{"contracts/ArbExecutor.sol":{"ArbExecutor":{"abi":[{"inputs":[{"internalType":"contract IPoolAddressesProvider","name":"provider","type":"address"},{"internalType":"address","name":"_uniRouter","type":"address"},{"internalType":"address","name":"_sushiRouter","type":"address"}],"stateMutability":"nonpayable","type":"constructor"},{"inputs":[],"name":"ReentrancyGuardReentrantCall","type":"error"},{"inputs":[{"internalType":"address","name":"token","type":"address"}],"name":"SafeERC20FailedOperation","type":"error"},{"anonymous":false,"inputs":[{"indexed":true,"internalType":"address","name":"asset","type":"address"},{"indexed":false,"internalType":"uint256","name":"amount","type":"uint256"},{"indexed":false,"internalType":"uint256","name":"premium","type":"uint256"},{"indexed":false,"internalType":"uint256","name":"profit","type":"uint256"}],"name":"FlashLoanExecuted","type":"event"},{"inputs":[],"name":"ADDRESSES_PROVIDER","outputs":[{"internalType":"contract IPoolAddressesProvider","name":"","type":"address"}],"stateMutability":"view","type":"function"},{"inputs":[],"name":"POOL","outputs":[{"internalType":"contract IPool","name":"","type":"address"}],"stateMutability":"view","type":"function"},{"inputs":[],"name":"SUSHI_ROUTER","outputs":[{"internalType":"contract IUniswapV2Router02","name":"","type":"address"}],"stateMutability":"view","type":"function"},{"inputs":[],"name":"UNI_ROUTER","outputs":[{"internalType":"contract IUniswapV2Router02","name":"","type":"address"}],"stateMutability":"view","type":"function"},{"inputs":[{"internalType":"uint256","name":"amount","type":"uint256"},{"internalType":"address[]","name":"pathUni","type":"address[]"},{"internalType":"address[]","name":"pathSushi","type":"address[]"},{"internalType":"uint256","name":"minOutUni","type":"uint256"},{"internalType":"uint256","name":"minOutSushi","type":"uint256"}],"name":"executeFlashLoan","outputs":[],"stateMutability":"nonpayable","type":"function"},{"inputs":[{"internalType":"address","name":"asset","type":"address"},{"internalType":"uint256","name":"amount","type":"uint256"},{"internalType":"uint256","name":"premium","type":"uint256"},{"internalType":"address","name":"","type":"address"},{"internalType":"bytes","name":"params","type":"bytes"}],"name":"executeOperation","outputs":[{"internalType":"bool","name":"","type":"bool"}],"stateMutability":"nonpayable","type":"function"},{"inputs":[],"name":"owner","outputs":[{"internalType":"address","name":"","type":"address"}],"stateMutability":"view","type":"function"},{"inputs":[{"internalType":"address","name":"token","type":"address"}],"name":"withdraw","outputs":[],"stateMutability":"nonpayable","type":"function"}],"evm":{"bytecode":{"linkReferences":{},"object":"6101208060405234620001715760608162001240803803809162000024828562000176565b83398101031262000171578051906001600160a01b039081831690818403620001715760206004926200006760406200005f848601620001b0565b9401620001b0565b956080526040519384809263026b1d5f60e01b82525afa8015620001655783926000916200011c575b50821660a05260016000553360c0521660e0526101009116815260405161107a9182620001c6833960805182610b2a015260a051828181610191015281816104690152818161064101526108ce015260c05182818160d90152818161042401526104b6015260e0518281816103df0152818161075901526107b30152518181816108210152610ae70152f35b9192506020823d82116200015c575b816200013a6020938362000176565b810103126200015957509082620001528193620001b0565b9062000090565b80fd5b3d91506200012b565b6040513d6000823e3d90fd5b600080fd5b601f909101601f19168101906001600160401b038211908210176200019a57604052565b634e487b7160e01b600052604160045260246000fd5b51906001600160a01b0382168203620001715756fe608080604052600436101561001357600080fd5b600090813560e01c9081630542975c14610b16575080630c24f4fa14610ad15780631b11d0ff146105c857806351cff8d9146104985780637535d246146104535780638da5cb5b1461040e578063ee0ab465146103c95763f11967ef1461007957600080fd5b346103c65760a03660031901126103c657600435602467ffffffffffffffff81358181116103c2576100af903690600401610b88565b936044358381116103be576100c8903690600401610b88565b9590916001600160a01b03610100337f0000000000000000000000000000000000000000000000000000000000000000831614610bb9565b811561038c57600283101580610381575b1561034e57821561033b5761012585610c17565b600019908982018a8111610328578361014861014382938e8b610bf1565b610c17565b169116036102f15783018381116102de57610143610167918588610bf1565b88156102cb579061018b6101d8949392828061018289610c17565b16911614610c2b565b610208817f000000000000000000000000000000000000000000000000000000000000000016966101ec6101be82610c17565b9b60405197889360209860808a87015260a0860191610c6c565b90601f19998a858403016040860152610c6c565b6064356060830152608435608083015203868101865285610cb0565b853b156102c7576040516310ac2ddf60e21b8152306004820152981687890152604488015260a06064880152815160a48801819052889488949093909290865b8381106102ad5750505060c4848093601f848985819786010152856084850152011681010301925af180156102a25761027f578380f35b821161029057506040523880808380f35b634e487b7160e01b8352604160045282fd5b6040513d86823e3d90fd5b8181018301518b820160c401528b97508a96508201610248565b8980fd5b634e487b7160e01b8a526032600452878afd5b634e487b7160e01b8a526011600452878afd5b60405162461bcd60e51b8152602060048201526010818a01526f135a5cdb585d18da195908185cdcd95d60821b6044820152606490fd5b634e487b7160e01b8c526011600452898cfd5b634e487b7160e01b895260326004528689fd5b60405162461bcd60e51b815260206004820152600c818901526b092dcecc2d8d2c840e0c2e8d60a31b6044820152606490fd5b506002881015610111565b60405162461bcd60e51b815260206004820152600b818901526a16995c9bc8185b5bdd5b9d60aa1b6044820152606490fd5b8680fd5b8480fd5b80fd5b50346103c657806003193601126103c6576040517f00000000000000000000000000000000000000000000000000000000000000006001600160a01b03168152602090f35b50346103c657806003193601126103c6576040517f00000000000000000000000000000000000000000000000000000000000000006001600160a01b03168152602090f35b50346103c657806003193601126103c6576040517f00000000000000000000000000000000000000000000000000000000000000006001600160a01b03168152602090f35b50346103c657602090816003193601126103c6576104b4610b59565b7f0000000000000000000000000000000000000000000000000000000000000000906001600160a01b03906104ec3383851614610bb9565b166040516370a0823160e01b81523060048201528481602481855afa9081156102a2578491610597575b5080156105655760405163a9059cbb60e01b958101959095526001600160a01b0392909216602485015260448085019290925290835290916105629161055d606483610cb0565b610fe8565b80f35b60405162461bcd60e51b815260048101869052600a6024820152694e6f2062616c616e636560b01b6044820152606490fd5b90508481813d83116105c1575b6105ae8183610cb0565b810103126105bd575138610516565b8380fd5b503d6105a4565b50346103c65760a03660031901126103c6576105e2610b59565b906064356001600160a01b038116036103c65767ffffffffffffffff8060843511610acd57366023608435011215610acd5760843560040135818111610a86576084350160248101903682116105bd576002845414610abb57600284557f00000000000000000000000000000000000000000000000000000000000000006001600160a01b03163303610a8a57608090608435900312610a8657602460843501358281116105bd5781602461069b926084350101610d00565b91604460843501359081116105bd579060246106bb926084350101610d00565b906001600160a01b036106cd82610e4a565b51166001600160a01b03851603610a4b5780516000198101908111610a375761071e906001600160a01b03906107039084610e57565b51166001600160a01b0361071685610e4a565b511614610c2b565b81516000198101908111610a37576001600160a01b03858116916107429085610e57565b5116036109fa576107826024356001600160a01b037f00000000000000000000000000000000000000000000000000000000000000008116908716610e8e565b6040518381806107ae6338ed173960e01b95868352429030906064608435013560243560048701610de0565b0381837f00000000000000000000000000000000000000000000000000000000000000006001600160a01b03165af19081156102a25784916109e0575b50805160001981019190821161099f579161080b61087994928694610e57565b51836001600160a01b0361081e85610e4a565b517f00000000000000000000000000000000000000000000000000000000000000006001600160a01b03169491610859918591879116610e8e565b604051968795869485938452429130916084803501359060048701610de0565b03925af19081156109d55782916109b3575b506044359061089c82602435610e6b565b81519091600019820191821161099f57906108b691610e57565b519080821115610967576108f7816001600160a01b037f00000000000000000000000000000000000000000000000000000000000000008116908816610e8e565b81039081116109535760408051602435815260208101939093528201526001926001600160a01b0316907fe03a36d920ad8de5a978a8f1917280e202ae9193e6dc19e08ef1f6c2a051eba490606090a255602060405160018152f35b634e487b7160e01b83526011600452602483fd5b60405162461bcd60e51b815260206004820152601060248201526f2ab7383937b334ba30b136329030b93160811b6044820152606490fd5b634e487b7160e01b85526011600452602485fd5b6109cf91503d8084833e6109c78183610cb0565b810190610d66565b3861088b565b6040513d84823e3d90fd5b6109f491503d8086833e6109c78183610cb0565b386107eb565b60405162461bcd60e51b81526020600482015260156024820152740a4cae8eae4dc40c2e6e6cae840dad2e6dac2e8c6d605b1b6044820152606490fd5b634e487b7160e01b84526011600452602484fd5b60405162461bcd60e51b8152602060048201526013602482015272082e6e6cae85ee0c2e8d040dad2e6dac2e8c6d606b1b6044820152606490fd5b8280fd5b60405162461bcd60e51b815260206004820152600960248201526813db9b1e481c1bdbdb60ba1b6044820152606490fd5b604051633ee5aeb560e01b8152600490fd5b5080fd5b50346103c657806003193601126103c6576040517f00000000000000000000000000000000000000000000000000000000000000006001600160a01b03168152602090f35b905034610acd5781600319360112610acd577f00000000000000000000000000000000000000000000000000000000000000006001600160a01b03168152602090f35b600435906001600160a01b0382168203610b6f57565b600080fd5b35906001600160a01b0382168203610b6f57565b9181601f84011215610b6f5782359167ffffffffffffffff8311610b6f576020808501948460051b010111610b6f57565b15610bc057565b60405162461bcd60e51b81526020600482015260096024820152682737ba1037bbb732b960b91b6044820152606490fd5b9190811015610c015760051b0190565b634e487b7160e01b600052603260045260246000fd5b356001600160a01b0381168103610b6f5790565b15610c3257565b60405162461bcd60e51b8152602060048201526012602482015271446973636f6e6e656374656420706174687360701b6044820152606490fd5b91908082526020809201929160005b828110610c89575050505090565b909192938280600192838060a01b03610ca189610b74565b16815201950193929101610c7b565b90601f8019910116810190811067ffffffffffffffff821117610cd257604052565b634e487b7160e01b600052604160045260246000fd5b67ffffffffffffffff8111610cd25760051b60200190565b81601f82011215610b6f57803591610d1783610ce8565b92610d256040519485610cb0565b808452602092838086019260051b820101928311610b6f578301905b828210610d4f575050505090565b838091610d5b84610b74565b815201910190610d41565b6020908181840312610b6f5780519067ffffffffffffffff8211610b6f57019180601f84011215610b6f578251610d9c81610ce8565b93610daa6040519586610cb0565b818552838086019260051b820101928311610b6f578301905b828210610dd1575050505090565b81518152908301908301610dc3565b9291909594939560a084019084526020918285015260a0604085015282518091528160c0850193019160005b828110610e2d5750505050906080919460018060a01b031660608201520152565b83516001600160a01b031685529381019392810192600101610e0c565b805115610c015760200190565b8051821015610c015760209160051b010190565b91908201809211610e7857565b634e487b7160e01b600052601160045260246000fd5b604051636eb1769f60e11b81523060048201526001600160a01b03838116602483018190526020959184169490929091908681604481895afa908115610fdc57600091610fad575b5090610ee191610e6b565b60405163095ea7b360e01b8782018181526001600160a01b039490941660248301526044808301939093529181529490918690600090610f22606489610cb0565b87519082885af1903d6000519083610f8e575b50505015610f45575b5050505050565b60405194850152602484015260006044840152604483526080830183811067ffffffffffffffff821117610cd257610f849361055d9160405282610fe8565b3880808080610f3e565b91925090610fa357503b15155b388080610f35565b6001915014610f9b565b908782813d8311610fd5575b610fc38183610cb0565b810103126103c6575051610ee1610ed6565b503d610fb9565b6040513d6000823e3d90fd5b906000602091828151910182855af115610fdc576000513d61103b57506001600160a01b0381163b155b6110195750565b604051635274afe760e01b81526001600160a01b039091166004820152602490fd5b6001141561101256fea2646970667358221220819a643f67c10a24b632b2e1962f0c122586e32fdaa3fca6c5a83e99118cc1d764736f6c63430008140033","opcodes":"PUSH2 0x120 DUP1 PUSH1 0x40 MSTORE CALLVALUE PUSH3 0x171 JUMPI PUSH1 0x60 DUP2 PUSH3 0x1240 DUP1 CODESIZE SUB DUP1 SWAP2 PUSH3 0x24 DUP3 DUP6 PUSH3 0x176 JUMP JUMPDEST DUP4 CODECOPY DUP2 ADD SUB SLT PUSH3 0x171 JUMPI DUP1 MLOAD SWAP1 PUSH1 0x1 PUSH1 0x1 PUSH1 0xA0 SHL SUB SWAP1 DUP2 DUP4 AND SWAP1 DUP2 DUP5 SUB PUSH3 0x171 JUMPI PUSH1 0x20 PUSH1 0x4 SWAP3 PUSH3 0x67 PUSH1 0x40 PUSH3 0x5F DUP5 DUP7 ADD PUSH3 0x1B0 JUMP JUMPDEST SWAP5 ADD PUSH3 0x1B0 JUMP JUMPDEST SWAP6 PUSH1 0x80 MSTORE PUSH1 0x40 MLOAD SWAP4 DUP5 DUP1 SWAP3 PUSH4 0x26B1D5F PUSH1 0xE0 SHL DUP3 MSTORE GAS STATICCALL DUP1 ISZERO PUSH3 0x165 JUMPI DUP4 SWAP3 PUSH1 0x0 SWAP2 PUSH3 0x11C JUMPI JUMPDEST POP DUP3 AND PUSH1 0xA0 MSTORE PUSH1 0x1 PUSH1 0x0 SSTORE CALLER PUSH1 0xC0 MSTORE AND PUSH1 0xE0 MSTORE PUSH2 0x100 SWAP2 AND DUP2 MSTORE PUSH1 0x40 MLOAD PUSH2 0x107A SWAP2 DUP3 PUSH3 0x1C6 DUP4 CODECOPY PUSH1 0x80 MLOAD DUP3 PUSH2 0xB2A ADD MSTORE PUSH1 0xA0 MLOAD DUP3 DUP2 DUP2 PUSH2 0x191 ADD MSTORE DUP2 DUP2 PUSH2 0x469 ADD MSTORE DUP2 DUP2 PUSH2 0x641 ADD MSTORE PUSH2 0x8CE ADD MSTORE PUSH1 0xC0 MLOAD DUP3 DUP2 DUP2 PUSH1 0xD9 ADD MSTORE DUP2 DUP2 PUSH2 0x424 ADD MSTORE PUSH2 0x4B6 ADD MSTORE PUSH1 0xE0 MLOAD DUP3 DUP2 DUP2 PUSH2 0x3DF ADD MSTORE DUP2 DUP2 PUSH2 0x759 ADD MSTORE PUSH2 0x7B3 ADD MSTORE MLOAD DUP2 DUP2 DUP2 PUSH2 0x821 ADD MSTORE PUSH2 0xAE7 ADD MSTORE RETURN JUMPDEST SWAP2 SWAP3 POP PUSH1 0x20 DUP3 RETURNDATASIZE DUP3 GT PUSH3 0x15C JUMPI JUMPDEST DUP2 PUSH3 0x13A PUSH1 0x20 SWAP4 DUP4 PUSH3 0x176 JUMP JUMPDEST DUP2 ADD SUB SLT PUSH3 0x159 JUMPI POP SWAP1 DUP3 PUSH3 0x152 DUP2 SWAP4 PUSH3 0x1B0 JUMP JUMPDEST SWAP1 PUSH3 0x90 JUMP JUMPDEST DUP1 REVERT JUMPDEST RETURNDATASIZE SWAP2 POP PUSH3 0x12B JUMP JUMPDEST PUSH1 0x40 MLOAD RETURNDATASIZE PUSH1 0x0 DUP3 RETURNDATACOPY RETURNDATASIZE SWAP1 REVERT JUMPDEST PUSH1 0x0 DUP1 REVERT JUMPDEST PUSH1 0x1F SWAP1 SWAP2 ADD PUSH1 0x1F NOT AND DUP2 ADD SWAP1 PUSH1 0x1 PUSH1 0x1 PUSH1 0x40 SHL SUB DUP3 GT SWAP1 DUP3 LT OR PUSH3 0x19A JUMPI PUSH1 0x40 MSTORE JUMP JUMPDEST PUSH4 0x4E487B71 PUSH1 0xE0 SHL PUSH1 0x0 MSTORE PUSH1 0x41 PUSH1 0x4 MSTORE PUSH1 0x24 PUSH1 0x0 REVERT JUMPDEST MLOAD SWAP1 PUSH1 0x1 PUSH1 0x1 PUSH1 0xA0 SHL SUB DUP3 AND DUP3 SUB PUSH3 0x171 JUMPI JUMP INVALID PUSH1 0x80 DUP1 PUSH1 0x40 MSTORE PUSH1 0x4 CALLDATASIZE LT ISZERO PUSH2 0x13 JUMPI PUSH1 0x0 DUP1 REVERT JUMPDEST PUSH1 0x0 SWAP1 DUP2 CALLDATALOAD PUSH1 0xE0 SHR SWAP1 DUP2 PUSH4 0x542975C EQ PUSH2 0xB16 JUMPI POP DUP1 PUSH4 0xC24F4FA EQ PUSH2 0xAD1 JUMPI DUP1 PUSH4 0x1B11D0FF EQ PUSH2 0x5C8 JUMPI DUP1 PUSH4 0x51CFF8D9 EQ PUSH2 0x498 JUMPI DUP1 PUSH4 0x7535D246 EQ PUSH2 0x453 JUMPI DUP1 PUSH4 0x8DA5CB5B EQ PUSH2 0x40E JUMPI DUP1 PUSH4 0xEE0AB465 EQ PUSH2 0x3C9 JUMPI PUSH4 0xF11967EF EQ PUSH2 0x79 JUMPI PUSH1 0x0 DUP1 REVERT JUMPDEST CALLVALUE PUSH2 0x3C6 JUMPI PUSH1 0xA0 CALLDATASIZE PUSH1 0x3 NOT ADD SLT PUSH2 0x3C6 JUMPI PUSH1 0x4 CALLDATALOAD PUSH1 0x24 PUSH8 0xFFFFFFFFFFFFFFFF DUP2 CALLDATALOAD DUP2 DUP2 GT PUSH2 0x3C2 JUMPI PUSH2 0xAF SWAP1 CALLDATASIZE SWAP1 PUSH1 0x4 ADD PUSH2 0xB88 JUMP JUMPDEST SWAP4 PUSH1 0x44 CALLDATALOAD DUP4 DUP2 GT PUSH2 0x3BE JUMPI PUSH2 0xC8 SWAP1 CALLDATASIZE SWAP1 PUSH1 0x4 ADD PUSH2 0xB88 JUMP JUMPDEST SWAP6 SWAP1 SWAP2 PUSH1 0x1 PUSH1 0x1 PUSH1 0xA0 SHL SUB PUSH2 0x100 CALLER PUSH32 0x0 DUP4 AND EQ PUSH2 0xBB9 JUMP JUMPDEST DUP2 ISZERO PUSH2 0x38C JUMPI PUSH1 0x2 DUP4 LT ISZERO DUP1 PUSH2 0x381 JUMPI JUMPDEST ISZERO PUSH2 0x34E JUMPI DUP3 ISZERO PUSH2 0x33B JUMPI PUSH2 0x125 DUP6 PUSH2 0xC17 JUMP JUMPDEST PUSH1 0x0 NOT SWAP1 DUP10 DUP3 ADD DUP11 DUP2 GT PUSH2 0x328 JUMPI DUP4 PUSH2 0x148 PUSH2 0x143 DUP3 SWAP4 DUP15 DUP12 PUSH2 0xBF1 JUMP JUMPDEST PUSH2 0xC17 JUMP JUMPDEST AND SWAP2 AND SUB PUSH2 0x2F1 JUMPI DUP4 ADD DUP4 DUP2 GT PUSH2 0x2DE JUMPI PUSH2 0x143 PUSH2 0x167 SWAP2 DUP6 DUP9 PUSH2 0xBF1 JUMP JUMPDEST DUP9 ISZERO PUSH2 0x2CB JUMPI SWAP1 PUSH2 0x18B PUSH2 0x1D8 SWAP5 SWAP4 SWAP3 DUP3 DUP1 PUSH2 0x182 DUP10 PUSH2 0xC17 JUMP JUMPDEST AND SWAP2 AND EQ PUSH2 0xC2B JUMP JUMPDEST PUSH2 0x208 DUP2 PUSH32 0x0 AND SWAP7 PUSH2 0x1EC PUSH2 0x1BE DUP3 PUSH2 0xC17 JUMP JUMPDEST SWAP12 PUSH1 0x40 MLOAD SWAP8 DUP9 SWAP4 PUSH1 0x20 SWAP9 PUSH1 0x80 DUP11 DUP8 ADD MSTORE PUSH1 0xA0 DUP7 ADD SWAP2 PUSH2 0xC6C JUMP JUMPDEST SWAP1 PUSH1 0x1F NOT SWAP10 DUP11 DUP6 DUP5 SUB ADD PUSH1 0x40 DUP7 ADD MSTORE PUSH2 0xC6C JUMP JUMPDEST PUSH1 0x64 CALLDATALOAD PUSH1 0x60 DUP4 ADD MSTORE PUSH1 0x84 CALLDATALOAD PUSH1 0x80 DUP4 ADD MSTORE SUB DUP7 DUP2 ADD DUP7 MSTORE DUP6 PUSH2 0xCB0 JUMP JUMPDEST DUP6 EXTCODESIZE ISZERO PUSH2 0x2C7 JUMPI PUSH1 0x40 MLOAD PUSH4 0x10AC2DDF PUSH1 0xE2 SHL DUP2 MSTORE ADDRESS PUSH1 0x4 DUP3 ADD MSTORE SWAP9 AND DUP8 DUP10 ADD MSTORE PUSH1 0x44 DUP9 ADD MSTORE PUSH1 0xA0 PUSH1 0x64 DUP9 ADD MSTORE DUP2 MLOAD PUSH1 0xA4 DUP9 ADD DUP2 SWAP1 MSTORE DUP9 SWAP5 DUP9 SWAP5 SWAP1 SWAP4 SWAP1 SWAP3 SWAP1 DUP7 JUMPDEST DUP4 DUP2 LT PUSH2 0x2AD JUMPI POP POP POP PUSH1 0xC4 DUP5 DUP1 SWAP4 PUSH1 0x1F DUP5 DUP10 DUP6 DUP2 SWAP8 DUP7 ADD ADD MSTORE DUP6 PUSH1 0x84 DUP6 ADD MSTORE ADD AND DUP2 ADD SUB ADD SWAP3 GAS CALL DUP1 ISZERO PUSH2 0x2A2 JUMPI PUSH2 0x27F JUMPI DUP4 DUP1 RETURN JUMPDEST DUP3 GT PUSH2 0x290 JUMPI POP PUSH1 0x40 MSTORE CODESIZE DUP1 DUP1 DUP4 DUP1 RETURN JUMPDEST PUSH4 0x4E487B71 PUSH1 0xE0 SHL DUP4 MSTORE PUSH1 0x41 PUSH1 0x4 MSTORE DUP3 REVERT JUMPDEST PUSH1 0x40 MLOAD RETURNDATASIZE DUP7 DUP3 RETURNDATACOPY RETURNDATASIZE SWAP1 REVERT JUMPDEST DUP2 DUP2 ADD DUP4 ADD MLOAD DUP12 DUP3 ADD PUSH1 0xC4 ADD MSTORE DUP12 SWAP8 POP DUP11 SWAP7 POP DUP3 ADD PUSH2 0x248 JUMP JUMPDEST DUP10 DUP1 REVERT JUMPDEST PUSH4 0x4E487B71 PUSH1 0xE0 SHL DUP11 MSTORE PUSH1 0x32 PUSH1 0x4 MSTORE DUP8 DUP11 REVERT JUMPDEST PUSH4 0x4E487B71 PUSH1 0xE0 SHL DUP11 MSTORE PUSH1 0x11 PUSH1 0x4 MSTORE DUP8 DUP11 REVERT JUMPDEST PUSH1 0x40 MLOAD PUSH3 0x461BCD PUSH1 0xE5 SHL DUP2 MSTORE PUSH1 0x20 PUSH1 0x4 DUP3 ADD MSTORE PUSH1 0x10 DUP2 DUP11 ADD MSTORE PUSH16 0x135A5CDB585D18DA195908185CDCD95D PUSH1 0x82 SHL PUSH1 0x44 DUP3 ADD MSTORE PUSH1 0x64 SWAP1 REVERT JUMPDEST PUSH4 0x4E487B71 PUSH1 0xE0 SHL DUP13 MSTORE PUSH1 0x11 PUSH1 0x4 MSTORE DUP10 DUP13 REVERT JUMPDEST PUSH4 0x4E487B71 PUSH1 0xE0 SHL DUP10 MSTORE PUSH1 0x32 PUSH1 0x4 MSTORE DUP7 DUP10 REVERT JUMPDEST PUSH1 0x40 MLOAD PUSH3 0x461BCD PUSH1 0xE5 SHL DUP2 MSTORE PUSH1 0x20 PUSH1 0x4 DUP3 ADD MSTORE PUSH1 0xC DUP2 DUP10 ADD MSTORE PUSH12 0x92DCECC2D8D2C840E0C2E8D PUSH1 0xA3 SHL PUSH1 0x44 DUP3 ADD MSTORE PUSH1 0x64 SWAP1 REVERT JUMPDEST POP PUSH1 0x2 DUP9 LT ISZERO PUSH2 0x111 JUMP JUMPDEST PUSH1 0x40 MLOAD PUSH3 0x461BCD PUSH1 0xE5 SHL DUP2 MSTORE PUSH1 0x20 PUSH1 0x4 DUP3 ADD MSTORE PUSH1 0xB DUP2 DUP10 ADD MSTORE PUSH11 0x16995C9BC8185B5BDD5B9D PUSH1 0xAA SHL PUSH1 0x44 DUP3 ADD MSTORE PUSH1 0x64 SWAP1 REVERT JUMPDEST DUP7 DUP1 REVERT JUMPDEST DUP5 DUP1 REVERT JUMPDEST DUP1 REVERT JUMPDEST POP CALLVALUE PUSH2 0x3C6 JUMPI DUP1 PUSH1 0x3 NOT CALLDATASIZE ADD SLT PUSH2 0x3C6 JUMPI PUSH1 0x40 MLOAD PUSH32 0x0 PUSH1 0x1 PUSH1 0x1 PUSH1 0xA0 SHL SUB AND DUP2 MSTORE PUSH1 0x20 SWAP1 RETURN JUMPDEST POP CALLVALUE PUSH2 0x3C6 JUMPI DUP1 PUSH1 0x3 NOT CALLDATASIZE ADD SLT PUSH2 0x3C6 JUMPI PUSH1 0x40 MLOAD PUSH32 0x0 PUSH1 0x1 PUSH1 0x1 PUSH1 0xA0 SHL SUB AND DUP2 MSTORE PUSH1 0x20 SWAP1 RETURN JUMPDEST POP CALLVALUE PUSH2 0x3C6 JUMPI DUP1 PUSH1 0x3 NOT CALLDATASIZE ADD SLT PUSH2 0x3C6 JUMPI PUSH1 0x40 MLOAD PUSH32 0x0 PUSH1 0x1 PUSH1 0x1 PUSH1 0xA0 SHL SUB AND DUP2 MSTORE PUSH1 0x20 SWAP1 RETURN JUMPDEST POP CALLVALUE PUSH2 0x3C6 JUMPI PUSH1 0x20 SWAP1 DUP2 PUSH1 0x3 NOT CALLDATASIZE ADD SLT PUSH2 0x3C6 JUMPI PUSH2 0x4B4 PUSH2 0xB59 JUMP JUMPDEST PUSH32 0x0 SWAP1 PUSH1 0x1 PUSH1 0x1 PUSH1 0xA0 SHL SUB SWAP1 PUSH2 0x4EC CALLER DUP4 DUP6 AND EQ PUSH2 0xBB9 JUMP JUMPDEST AND PUSH1 0x40 MLOAD PUSH4 0x70A08231 PUSH1 0xE0 SHL DUP2 MSTORE ADDRESS PUSH1 0x4 DUP3 ADD MSTORE DUP5 DUP2 PUSH1 0x24 DUP2 DUP6 GAS STATICCALL SWAP1 DUP2 ISZERO PUSH2 0x2A2 JUMPI DUP5 SWAP2 PUSH2 0x597 JUMPI JUMPDEST POP DUP1 ISZERO PUSH2 0x565 JUMPI PUSH1 0x40 MLOAD PUSH4 0xA9059CBB PUSH1 0xE0 SHL SWAP6 DUP2 ADD SWAP6 SWAP1 SWAP6 MSTORE PUSH1 0x1 PUSH1 0x1 PUSH1 0xA0 SHL SUB SWAP3 SWAP1 SWAP3 AND PUSH1 0x24 DUP6 ADD MSTORE PUSH1 0x44 DUP1 DUP6 ADD SWAP3 SWAP1 SWAP3 MSTORE SWAP1 DUP4 MSTORE SWAP1 SWAP2 PUSH2 0x562 SWAP2 PUSH2 0x55D PUSH1 0x64 DUP4 PUSH2 0xCB0 JUMP JUMPDEST PUSH2 0xFE8 JUMP JUMPDEST DUP1 RETURN JUMPDEST PUSH1 0x40 MLOAD PUSH3 0x461BCD PUSH1 0xE5 SHL DUP2 MSTORE PUSH1 0x4 DUP2 ADD DUP7 SWAP1 MSTORE PUSH1 0xA PUSH1 0x24 DUP3 ADD MSTORE PUSH10 0x4E6F2062616C616E6365 PUSH1 0xB0 SHL PUSH1 0x44 DUP3 ADD MSTORE PUSH1 0x64 SWAP1 REVERT JUMPDEST SWAP1 POP DUP5 DUP2 DUP2 RETURNDATASIZE DUP4 GT PUSH2 0x5C1 JUMPI JUMPDEST PUSH2 0x5AE DUP2 DUP4 PUSH2 0xCB0 JUMP JUMPDEST DUP2 ADD SUB SLT PUSH2 0x5BD JUMPI MLOAD CODESIZE PUSH2 0x516 JUMP JUMPDEST DUP4 DUP1 REVERT JUMPDEST POP RETURNDATASIZE PUSH2 0x5A4 JUMP JUMPDEST POP CALLVALUE PUSH2 0x3C6 JUMPI PUSH1 0xA0 CALLDATASIZE PUSH1 0x3 NOT ADD SLT PUSH2 0x3C6 JUMPI PUSH2 0x5E2 PUSH2 0xB59 JUMP JUMPDEST SWAP1 PUSH1 0x64 CALLDATALOAD PUSH1 0x1 PUSH1 0x1 PUSH1 0xA0 SHL SUB DUP2 AND SUB PUSH2 0x3C6 JUMPI PUSH8 0xFFFFFFFFFFFFFFFF DUP1 PUSH1 0x84 CALLDATALOAD GT PUSH2 0xACD JUMPI CALLDATASIZE PUSH1 0x23 PUSH1 0x84 CALLDATALOAD ADD SLT ISZERO PUSH2 0xACD JUMPI PUSH1 0x84 CALLDATALOAD PUSH1 0x4 ADD CALLDATALOAD DUP2 DUP2 GT PUSH2 0xA86 JUMPI PUSH1 0x84 CALLDATALOAD ADD PUSH1 0x24 DUP2 ADD SWAP1 CALLDATASIZE DUP3 GT PUSH2 0x5BD JUMPI PUSH1 0x2 DUP5 SLOAD EQ PUSH2 0xABB JUMPI PUSH1 0x2 DUP5 SSTORE PUSH32 0x0 PUSH1 0x1 PUSH1 0x1 PUSH1 0xA0 SHL SUB AND CALLER SUB PUSH2 0xA8A JUMPI PUSH1 0x80 SWAP1 PUSH1 0x84 CALLDATALOAD SWAP1 SUB SLT PUSH2 0xA86 JUMPI PUSH1 0x24 PUSH1 0x84 CALLDATALOAD ADD CALLDATALOAD DUP3 DUP2 GT PUSH2 0x5BD JUMPI DUP2 PUSH1 0x24 PUSH2 0x69B SWAP3 PUSH1 0x84 CALLDATALOAD ADD ADD PUSH2 0xD00 JUMP JUMPDEST SWAP2 PUSH1 0x44 PUSH1 0x84 CALLDATALOAD ADD CALLDATALOAD SWAP1 DUP2 GT PUSH2 0x5BD JUMPI SWAP1 PUSH1 0x24 PUSH2 0x6BB SWAP3 PUSH1 0x84 CALLDATALOAD ADD ADD PUSH2 0xD00 JUMP JUMPDEST SWAP1 PUSH1 0x1 PUSH1 0x1 PUSH1 0xA0 SHL SUB PUSH2 0x6CD DUP3 PUSH2 0xE4A JUMP JUMPDEST MLOAD AND PUSH1 0x1 PUSH1 0x1 PUSH1 0xA0 SHL SUB DUP6 AND SUB PUSH2 0xA4B JUMPI DUP1 MLOAD PUSH1 0x0 NOT DUP2 ADD SWAP1 DUP2 GT PUSH2 0xA37 JUMPI PUSH2 0x71E SWAP1 PUSH1 0x1 PUSH1 0x1 PUSH1 0xA0 SHL SUB SWAP1 PUSH2 0x703 SWAP1 DUP5 PUSH2 0xE57 JUMP JUMPDEST MLOAD AND PUSH1 0x1 PUSH1 0x1 PUSH1 0xA0 SHL SUB PUSH2 0x716 DUP6 PUSH2 0xE4A JUMP JUMPDEST MLOAD AND EQ PUSH2 0xC2B JUMP JUMPDEST DUP2 MLOAD PUSH1 0x0 NOT DUP2 ADD SWAP1 DUP2 GT PUSH2 0xA37 JUMPI PUSH1 0x1 PUSH1 0x1 PUSH1 0xA0 SHL SUB DUP6 DUP2 AND SWAP2 PUSH2 0x742 SWAP1 DUP6 PUSH2 0xE57 JUMP JUMPDEST MLOAD AND SUB PUSH2 0x9FA JUMPI PUSH2 0x782 PUSH1 0x24 CALLDATALOAD PUSH1 0x1 PUSH1 0x1 PUSH1 0xA0 SHL SUB PUSH32 0x0 DUP2 AND SWAP1 DUP8 AND PUSH2 0xE8E JUMP JUMPDEST PUSH1 0x40 MLOAD DUP4 DUP2 DUP1 PUSH2 0x7AE PUSH4 0x38ED1739 PUSH1 0xE0 SHL SWAP6 DUP7 DUP4 MSTORE TIMESTAMP SWAP1 ADDRESS SWAP1 PUSH1 0x64 PUSH1 0x84 CALLDATALOAD ADD CALLDATALOAD PUSH1 0x24 CALLDATALOAD PUSH1 0x4 DUP8 ADD PUSH2 0xDE0 JUMP JUMPDEST SUB DUP2 DUP4 PUSH32 0x0 PUSH1 0x1 PUSH1 0x1 PUSH1 0xA0 SHL SUB AND GAS CALL SWAP1 DUP2 ISZERO PUSH2 0x2A2 JUMPI DUP5 SWAP2 PUSH2 0x9E0 JUMPI JUMPDEST POP DUP1 MLOAD PUSH1 0x0 NOT DUP2 ADD SWAP2 SWAP1 DUP3 GT PUSH2 0x99F JUMPI SWAP2 PUSH2 0x80B PUSH2 0x879 SWAP5 SWAP3 DUP7 SWAP5 PUSH2 0xE57 JUMP JUMPDEST MLOAD DUP4 PUSH1 0x1 PUSH1 0x1 PUSH1 0xA0 SHL SUB PUSH2 0x81E DUP6 PUSH2 0xE4A JUMP JUMPDEST MLOAD PUSH32 0x0 PUSH1 0x1 PUSH1 0x1 PUSH1 0xA0 SHL SUB AND SWAP5 SWAP2 PUSH2 0x859 SWAP2 DUP6 SWAP2 DUP8 SWAP2 AND PUSH2 0xE8E JUMP JUMPDEST PUSH1 0x40 MLOAD SWAP7 DUP8 SWAP6 DUP7 SWAP5 DUP6 SWAP4 DUP5 MSTORE TIMESTAMP SWAP2 ADDRESS SWAP2 PUSH1 0x84 DUP1 CALLDATALOAD ADD CALLDATALOAD SWAP1 PUSH1 0x4 DUP8 ADD PUSH2 0xDE0 JUMP JUMPDEST SUB SWAP3 GAS CALL SWAP1 DUP2 ISZERO PUSH2 0x9D5 JUMPI DUP3 SWAP2 PUSH2 0x9B3 JUMPI JUMPDEST POP PUSH1 0x44 CALLDATALOAD SWAP1 PUSH2 0x89C DUP3 PUSH1 0x24 CALLDATALOAD PUSH2 0xE6B JUMP JUMPDEST DUP2 MLOAD SWAP1 SWAP2 PUSH1 0x0 NOT DUP3 ADD SWAP2 DUP3 GT PUSH2 0x99F JUMPI SWAP1 PUSH2 0x8B6 SWAP2 PUSH2 0xE57 JUMP JUMPDEST MLOAD SWAP1 DUP1 DUP3 GT ISZERO PUSH2 0x967 JUMPI PUSH2 0x8F7 DUP2 PUSH1 0x1 PUSH1 0x1 PUSH1 0xA0 SHL SUB PUSH32 0x0 DUP2 AND SWAP1 DUP9 AND PUSH2 0xE8E JUMP JUMPDEST DUP2 SUB SWAP1 DUP2 GT PUSH2 0x953 JUMPI PUSH1 0x40 DUP1 MLOAD PUSH1 0x24 CALLDATALOAD DUP2 MSTORE PUSH1 0x20 DUP2 ADD SWAP4 SWAP1 SWAP4 MSTORE DUP3 ADD MSTORE PUSH1 0x1 SWAP3 PUSH1 0x1 PUSH1 0x1 PUSH1 0xA0 SHL SUB AND SWAP1 PUSH32 0xE03A36D920AD8DE5A978A8F1917280E202AE9193E6DC19E08EF1F6C2A051EBA4 SWAP1 PUSH1 0x60 SWAP1 LOG2 SSTORE PUSH1 0x20 PUSH1 0x40 MLOAD PUSH1 0x1 DUP2 MSTORE RETURN JUMPDEST PUSH4 0x4E487B71 PUSH1 0xE0 SHL DUP4 MSTORE PUSH1 0x11 PUSH1 0x4 MSTORE PUSH1 0x24 DUP4 REVERT JUMPDEST PUSH1 0x40 MLOAD PUSH3 0x461BCD PUSH1 0xE5 SHL DUP2 MSTORE PUSH1 0x20 PUSH1 0x4 DUP3 ADD MSTORE PUSH1 0x10 PUSH1 0x24 DUP3 ADD MSTORE PUSH16 0x2AB7383937B334BA30B136329030B931 PUSH1 0x81 SHL PUSH1 0x44 DUP3 ADD MSTORE PUSH1 0x64 SWAP1 REVERT JUMPDEST PUSH4 0x4E487B71 PUSH1 0xE0 SHL DUP6 MSTORE PUSH1 0x11 PUSH1 0x4 MSTORE PUSH1 0x24 DUP6 REVERT JUMPDEST PUSH2 0x9CF SWAP2 POP RETURNDATASIZE DUP1 DUP5 DUP4 RETURNDATACOPY PUSH2 0x9C7 DUP2 DUP4 PUSH2 0xCB0 JUMP JUMPDEST DUP2 ADD SWAP1 PUSH2 0xD66 JUMP JUMPDEST CODESIZE PUSH2 0x88B JUMP JUMPDEST PUSH1 0x40 MLOAD RETURNDATASIZE DUP5 DUP3 RETURNDATACOPY RETURNDATASIZE SWAP1 REVERT JUMPDEST PUSH2 0x9F4 SWAP2 POP RETURNDATASIZE DUP1 DUP7 DUP4 RETURNDATACOPY PUSH2 0x9C7 DUP2 DUP4 PUSH2 0xCB0 JUMP JUMPDEST CODESIZE PUSH2 0x7EB JUMP JUMPDEST PUSH1 0x40 MLOAD PUSH3 0x461BCD PUSH1 0xE5 SHL DUP2 MSTORE PUSH1 0x20 PUSH1 0x4 DUP3 ADD MSTORE PUSH1 0x15 PUSH1 0x24 DUP3 ADD MSTORE PUSH21 0xA4CAE8EAE4DC40C2E6E6CAE840DAD2E6DAC2E8C6D PUSH1 0x5B SHL PUSH1 0x44 DUP3 ADD MSTORE PUSH1 0x64 SWAP1 REVERT JUMPDEST PUSH4 0x4E487B71 PUSH1 0xE0 SHL DUP5 MSTORE PUSH1 0x11 PUSH1 0x4 MSTORE PUSH1 0x24 DUP5 REVERT JUMPDEST PUSH1 0x40 MLOAD PUSH3 0x461BCD PUSH1 0xE5 SHL DUP2 MSTORE PUSH1 0x20 PUSH1 0x4 DUP3 ADD MSTORE PUSH1 0x13 PUSH1 0x24 DUP3 ADD MSTORE PUSH19 0x82E6E6CAE85EE0C2E8D040DAD2E6DAC2E8C6D PUSH1 0x6B SHL PUSH1 0x44 DUP3 ADD MSTORE PUSH1 0x64 SWAP1 REVERT JUMPDEST DUP3 DUP1 REVERT JUMPDEST PUSH1 0x40 MLOAD PUSH3 0x461BCD PUSH1 0xE5 SHL DUP2 MSTORE PUSH1 0x20 PUSH1 0x4 DUP3 ADD MSTORE PUSH1 0x9 PUSH1 0x24 DUP3 ADD MSTORE PUSH9 0x13DB9B1E481C1BDBDB PUSH1 0xBA SHL PUSH1 0x44 DUP3 ADD MSTORE PUSH1 0x64 SWAP1 REVERT JUMPDEST PUSH1 0x40 MLOAD PUSH4 0x3EE5AEB5 PUSH1 0xE0 SHL DUP2 MSTORE PUSH1 0x4 SWAP1 REVERT JUMPDEST POP DUP1 REVERT JUMPDEST POP CALLVALUE PUSH2 0x3C6 JUMPI DUP1 PUSH1 0x3 NOT CALLDATASIZE ADD SLT PUSH2 0x3C6 JUMPI PUSH1 0x40 MLOAD PUSH32 0x0 PUSH1 0x1 PUSH1 0x1 PUSH1 0xA0 SHL SUB AND DUP2 MSTORE PUSH1 0x20 SWAP1 RETURN JUMPDEST SWAP1 POP CALLVALUE PUSH2 0xACD JUMPI DUP2 PUSH1 0x3 NOT CALLDATASIZE ADD SLT PUSH2 0xACD JUMPI PUSH32 0x0 PUSH1 0x1 PUSH1 0x1 PUSH1 0xA0 SHL SUB AND DUP2 MSTORE PUSH1 0x20 SWAP1 RETURN JUMPDEST PUSH1 0x4 CALLDATALOAD SWAP1 PUSH1 0x1 PUSH1 0x1 PUSH1 0xA0 SHL SUB DUP3 AND DUP3 SUB PUSH2 0xB6F JUMPI JUMP JUMPDEST PUSH1 0x0 DUP1 REVERT JUMPDEST CALLDATALOAD SWAP1 PUSH1 0x1 PUSH1 0x1 PUSH1 0xA0 SHL SUB DUP3 AND DUP3 SUB PUSH2 0xB6F JUMPI JUMP JUMPDEST SWAP2 DUP2 PUSH1 0x1F DUP5 ADD SLT ISZERO PUSH2 0xB6F JUMPI DUP3 CALLDATALOAD SWAP2 PUSH8 0xFFFFFFFFFFFFFFFF DUP4 GT PUSH2 0xB6F JUMPI PUSH1 0x20 DUP1 DUP6 ADD SWAP5 DUP5 PUSH1 0x5 SHL ADD ADD GT PUSH2 0xB6F JUMPI JUMP JUMPDEST ISZERO PUSH2 0xBC0 JUMPI JUMP JUMPDEST PUSH1 0x40 MLOAD PUSH3 0x461BCD PUSH1 0xE5 SHL DUP2 MSTORE PUSH1 0x20 PUSH1 0x4 DUP3 ADD MSTORE PUSH1 0x9 PUSH1 0x24 DUP3 ADD MSTORE PUSH9 0x2737BA1037BBB732B9 PUSH1 0xB9 SHL PUSH1 0x44 DUP3 ADD MSTORE PUSH1 0x64 SWAP1 REVERT JUMPDEST SWAP2 SWAP1 DUP2 LT ISZERO PUSH2 0xC01 JUMPI PUSH1 0x5 SHL ADD SWAP1 JUMP JUMPDEST PUSH4 0x4E487B71 PUSH1 0xE0 SHL PUSH1 0x0 MSTORE PUSH1 0x32 PUSH1 0x4 MSTORE PUSH1 0x24 PUSH1 0x0 REVERT JUMPDEST CALLDATALOAD PUSH1 0x1 PUSH1 0x1 PUSH1 0xA0 SHL SUB DUP2 AND DUP2 SUB PUSH2 0xB6F JUMPI SWAP1 JUMP JUMPDEST ISZERO PUSH2 0xC32 JUMPI JUMP JUMPDEST PUSH1 0x40 MLOAD PUSH3 0x461BCD PUSH1 0xE5 SHL DUP2 MSTORE PUSH1 0x20 PUSH1 0x4 DUP3 ADD MSTORE PUSH1 0x12 PUSH1 0x24 DUP3 ADD MSTORE PUSH18 0x446973636F6E6E6563746564207061746873 PUSH1 0x70 SHL PUSH1 0x44 DUP3 ADD MSTORE PUSH1 0x64 SWAP1 REVERT JUMPDEST SWAP2 SWAP1 DUP1 DUP3 MSTORE PUSH1 0x20 DUP1 SWAP3 ADD SWAP3 SWAP2 PUSH1 0x0 JUMPDEST DUP3 DUP2 LT PUSH2 0xC89 JUMPI POP POP POP POP SWAP1 JUMP JUMPDEST SWAP1 SWAP2 SWAP3 SWAP4 DUP3 DUP1 PUSH1 0x1 SWAP3 DUP4 DUP1 PUSH1 0xA0 SHL SUB PUSH2 0xCA1 DUP10 PUSH2 0xB74 JUMP JUMPDEST AND DUP2 MSTORE ADD SWAP6 ADD SWAP4 SWAP3 SWAP2 ADD PUSH2 0xC7B JUMP JUMPDEST SWAP1 PUSH1 0x1F DUP1 NOT SWAP2 ADD AND DUP2 ADD SWAP1 DUP2 LT PUSH8 0xFFFFFFFFFFFFFFFF DUP3 GT OR PUSH2 0xCD2 JUMPI PUSH1 0x40 MSTORE JUMP JUMPDEST PUSH4 0x4E487B71 PUSH1 0xE0 SHL PUSH1 0x0 MSTORE PUSH1 0x41 PUSH1 0x4 MSTORE PUSH1 0x24 PUSH1 0x0 REVERT JUMPDEST PUSH8 0xFFFFFFFFFFFFFFFF DUP2 GT PUSH2 0xCD2 JUMPI PUSH1 0x5 SHL PUSH1 0x20 ADD SWAP1 JUMP JUMPDEST DUP2 PUSH1 0x1F DUP3 ADD SLT ISZERO PUSH2 0xB6F JUMPI DUP1 CALLDATALOAD SWAP2 PUSH2 0xD17 DUP4 PUSH2 0xCE8 JUMP JUMPDEST SWAP3 PUSH2 0xD25 PUSH1 0x40 MLOAD SWAP5 DUP6 PUSH2 0xCB0 JUMP JUMPDEST DUP1 DUP5 MSTORE PUSH1 0x20 SWAP3 DUP4 DUP1 DUP7 ADD SWAP3 PUSH1 0x5 SHL DUP3 ADD ADD SWAP3 DUP4 GT PUSH2 0xB6F JUMPI DUP4 ADD SWAP1 JUMPDEST DUP3 DUP3 LT PUSH2 0xD4F JUMPI POP POP POP POP SWAP1 JUMP JUMPDEST DUP4 DUP1 SWAP2 PUSH2 0xD5B DUP5 PUSH2 0xB74 JUMP JUMPDEST DUP2 MSTORE ADD SWAP2 ADD SWAP1 PUSH2 0xD41 JUMP JUMPDEST PUSH1 0x20 SWAP1 DUP2 DUP2 DUP5 SUB SLT PUSH2 0xB6F JUMPI DUP1 MLOAD SWAP1 PUSH8 0xFFFFFFFFFFFFFFFF DUP3 GT PUSH2 0xB6F JUMPI ADD SWAP2 DUP1 PUSH1 0x1F DUP5 ADD SLT ISZERO PUSH2 0xB6F JUMPI DUP3 MLOAD PUSH2 0xD9C DUP2 PUSH2 0xCE8 JUMP JUMPDEST SWAP4 PUSH2 0xDAA PUSH1 0x40 MLOAD SWAP6 DUP7 PUSH2 0xCB0 JUMP JUMPDEST DUP2 DUP6 MSTORE DUP4 DUP1 DUP7 ADD SWAP3 PUSH1 0x5 SHL DUP3 ADD ADD SWAP3 DUP4 GT PUSH2 0xB6F JUMPI DUP4 ADD SWAP1 JUMPDEST DUP3 DUP3 LT PUSH2 0xDD1 JUMPI POP POP POP POP SWAP1 JUMP JUMPDEST DUP2 MLOAD DUP2 MSTORE SWAP1 DUP4 ADD SWAP1 DUP4 ADD PUSH2 0xDC3 JUMP JUMPDEST SWAP3 SWAP2 SWAP1 SWAP6 SWAP5 SWAP4 SWAP6 PUSH1 0xA0 DUP5 ADD SWAP1 DUP5 MSTORE PUSH1 0x20 SWAP2 DUP3 DUP6 ADD MSTORE PUSH1 0xA0 PUSH1 0x40 DUP6 ADD MSTORE DUP3 MLOAD DUP1 SWAP2 MSTORE DUP2 PUSH1 0xC0 DUP6 ADD SWAP4 ADD SWAP2 PUSH1 0x0 JUMPDEST DUP3 DUP2 LT PUSH2 0xE2D JUMPI POP POP POP POP SWAP1 PUSH1 0x80 SWAP2 SWAP5 PUSH1 0x1 DUP1 PUSH1 0xA0 SHL SUB AND PUSH1 0x60 DUP3 ADD MSTORE ADD MSTORE JUMP JUMPDEST DUP4 MLOAD PUSH1 0x1 PUSH1 0x1 PUSH1 0xA0 SHL SUB AND DUP6 MSTORE SWAP4 DUP2 ADD SWAP4 SWAP3 DUP2 ADD SWAP3 PUSH1 0x1 ADD PUSH2 0xE0C JUMP JUMPDEST DUP1 MLOAD ISZERO PUSH2 0xC01 JUMPI PUSH1 0x20 ADD SWAP1 JUMP JUMPDEST DUP1 MLOAD DUP3 LT ISZERO PUSH2 0xC01 JUMPI PUSH1 0x20 SWAP2 PUSH1 0x5 SHL ADD ADD SWAP1 JUMP JUMPDEST SWAP2 SWAP1 DUP3 ADD DUP1 SWAP3 GT PUSH2 0xE78 JUMPI JUMP JUMPDEST PUSH4 0x4E487B71 PUSH1 0xE0 SHL PUSH1 0x0 MSTORE PUSH1 0x11 PUSH1 0x4 MSTORE PUSH1 0x24 PUSH1 0x0 REVERT JUMPDEST PUSH1 0x40 MLOAD PUSH4 0x6EB1769F PUSH1 0xE1 SHL DUP2 MSTORE ADDRESS PUSH1 0x4 DUP3 ADD MSTORE PUSH1 0x1 PUSH1 0x1 PUSH1 0xA0 SHL SUB DUP4 DUP2 AND PUSH1 0x24 DUP4 ADD DUP2 SWAP1 MSTORE PUSH1 0x20 SWAP6 SWAP2 DUP5 AND SWAP5 SWAP1 SWAP3 SWAP1 SWAP2 SWAP1 DUP7 DUP2 PUSH1 0x44 DUP2 DUP10 GAS STATICCALL SWAP1 DUP2 ISZERO PUSH2 0xFDC JUMPI PUSH1 0x0 SWAP2 PUSH2 0xFAD JUMPI JUMPDEST POP SWAP1 PUSH2 0xEE1 SWAP2 PUSH2 0xE6B JUMP JUMPDEST PUSH1 0x40 MLOAD PUSH4 0x95EA7B3 PUSH1 0xE0 SHL DUP8 DUP3 ADD DUP2 DUP2 MSTORE PUSH1 0x1 PUSH1 0x1 PUSH1 0xA0 SHL SUB SWAP5 SWAP1 SWAP5 AND PUSH1 0x24 DUP4 ADD MSTORE PUSH1 0x44 DUP1 DUP4 ADD SWAP4 SWAP1 SWAP4 MSTORE SWAP2 DUP2 MSTORE SWAP5 SWAP1 SWAP2 DUP7 SWAP1 PUSH1 0x0 SWAP1 PUSH2 0xF22 PUSH1 0x64 DUP10 PUSH2 0xCB0 JUMP JUMPDEST DUP8 MLOAD SWAP1 DUP3 DUP9 GAS CALL SWAP1 RETURNDATASIZE PUSH1 0x0 MLOAD SWAP1 DUP4 PUSH2 0xF8E JUMPI JUMPDEST POP POP POP ISZERO PUSH2 0xF45 JUMPI JUMPDEST POP POP POP POP POP JUMP JUMPDEST PUSH1 0x40 MLOAD SWAP5 DUP6 ADD MSTORE PUSH1 0x24 DUP5 ADD MSTORE PUSH1 0x0 PUSH1 0x44 DUP5 ADD MSTORE PUSH1 0x44 DUP4 MSTORE PUSH1 0x80 DUP4 ADD DUP4 DUP2 LT PUSH8 0xFFFFFFFFFFFFFFFF DUP3 GT OR PUSH2 0xCD2 JUMPI PUSH2 0xF84 SWAP4 PUSH2 0x55D SWAP2 PUSH1 0x40 MSTORE DUP3 PUSH2 0xFE8 JUMP JUMPDEST CODESIZE DUP1 DUP1 DUP1 DUP1 PUSH2 0xF3E JUMP JUMPDEST SWAP2 SWAP3 POP SWAP1 PUSH2 0xFA3 JUMPI POP EXTCODESIZE ISZERO ISZERO JUMPDEST CODESIZE DUP1 DUP1 PUSH2 0xF35 JUMP JUMPDEST PUSH1 0x1 SWAP2 POP EQ PUSH2 0xF9B JUMP JUMPDEST SWAP1 DUP8 DUP3 DUP2 RETURNDATASIZE DUP4 GT PUSH2 0xFD5 JUMPI JUMPDEST PUSH2 0xFC3 DUP2 DUP4 PUSH2 0xCB0 JUMP JUMPDEST DUP2 ADD SUB SLT PUSH2 0x3C6 JUMPI POP MLOAD PUSH2 0xEE1 PUSH2 0xED6 JUMP JUMPDEST POP RETURNDATASIZE PUSH2 0xFB9 JUMP JUMPDEST PUSH1 0x40 MLOAD RETURNDATASIZE PUSH1 0x0 DUP3 RETURNDATACOPY RETURNDATASIZE SWAP1 REVERT JUMPDEST SWAP1 PUSH1 0x0 PUSH1 0x20 SWAP2 DUP3 DUP2 MLOAD SWAP2 ADD DUP3 DUP6 GAS CALL ISZERO PUSH2 0xFDC JUMPI PUSH1 0x0 MLOAD RETURNDATASIZE PUSH2 0x103B JUMPI POP PUSH1 0x1 PUSH1 0x1 PUSH1 0xA0 SHL SUB DUP2 AND EXTCODESIZE ISZERO JUMPDEST PUSH2 0x1019 JUMPI POP JUMP JUMPDEST PUSH1 0x40 MLOAD PUSH4 0x5274AFE7 PUSH1 0xE0 SHL DUP2 MSTORE PUSH1 0x1 PUSH1 0x1 PUSH1 0xA0 SHL SUB SWAP1 SWAP2 AND PUSH1 0x4 DUP3 ADD MSTORE PUSH1 0x24 SWAP1 REVERT JUMPDEST PUSH1 0x1 EQ ISZERO PUSH2 0x1012 JUMP INVALID LOG2 PUSH5 0x6970667358 0x22 SLT KECCAK256 DUP2 SWAP11 PUSH5 0x3F67C10A24 0xB6 ORIGIN 0xB2 0xE1 SWAP7 0x2F 0xC SLT 0x25 DUP7 0xE3 0x2F 0xDA LOG3 0xFC 0xA6 0xC5 0xA8 RETURNDATACOPY SWAP10 GT DUP13 0xC1 0xD7 PUSH5 0x736F6C6343 STOP ADDMOD EQ STOP CALLER "},"methodIdentifiers":{"ADDRESSES_PROVIDER()":"0542975c","POOL()":"7535d246","SUSHI_ROUTER()":"0c24f4fa","UNI_ROUTER()":"ee0ab465","executeFlashLoan(uint256,address[],address[],uint256,uint256)":"f11967ef","executeOperation(address,uint256,uint256,address,bytes)":"1b11d0ff","owner()":"8da5cb5b","withdraw(address)":"51cff8d9"}}}}}