{"contracts/CycleArbExecutor.sol":{"CycleArbExecutor":{"abi":[{"inputs":[{"internalType":"address[]","name":"routers","type":"address[]"}],"stateMutability":"nonpayable","type":"constructor"},{"inputs":[{"internalType":"address","name":"owner","type":"address"}],"name":"OwnableInvalidOwner","type":"error"},{"inputs":[{"internalType":"address","name":"account","type":"address"}],"name":"OwnableUnauthorizedAccount","type":"error"},{"inputs":[],"name":"ReentrancyGuardReentrantCall","type":"error"},{"inputs":[{"internalType":"address","name":"token","type":"address"}],"name":"SafeERC20FailedOperation","type":"error"},{"anonymous":false,"inputs":[{"indexed":true,"internalType":"address","name":"previousOwner","type":"address"},{"indexed":true,"internalType":"address","name":"newOwner","type":"address"}],"name":"OwnershipTransferred","type":"event"},{"anonymous":false,"inputs":[{"indexed":true,"internalType":"address","name":"tokenIn","type":"address"},{"indexed":true,"internalType":"address","name":"middleToken","type":"address"},{"indexed":true,"internalType":"address","name":"firstRouter","type":"address"},{"indexed":false,"internalType":"address","name":"secondRouter","type":"address"},{"indexed":false,"internalType":"uint256","name":"amountIn","type":"uint256"},{"indexed":false,"internalType":"uint256","name":"amountOut","type":"uint256"}],"name":"TwoLegSwapExecuted","type":"event"},{"inputs":[{"internalType":"address","name":"routerA","type":"address"},{"internalType":"address","name":"routerB","type":"address"},{"internalType":"address","name":"tokenIn","type":"address"},{"internalType":"address","name":"middleToken","type":"address"},{"internalType":"uint24","name":"feeA","type":"uint24"},{"internalType":"uint24","name":"feeB","type":"uint24"},{"internalType":"uint256","name":"amountIn","type":"uint256"},{"internalType":"uint256","name":"minOutFirst","type":"uint256"},{"internalType":"uint256","name":"minOutSecond","type":"uint256"}],"name":"executeTwoLegSwap","outputs":[{"internalType":"uint256","name":"finalAmount","type":"uint256"}],"stateMutability":"nonpayable","type":"function"},{"inputs":[],"name":"owner","outputs":[{"internalType":"address","name":"","type":"address"}],"stateMutability":"view","type":"function"},{"inputs":[],"name":"renounceOwnership","outputs":[],"stateMutability":"nonpayable","type":"function"},{"inputs":[{"internalType":"address","name":"router","type":"address"},{"internalType":"bool","name":"allowed","type":"bool"}],"name":"setTrustedRouter","outputs":[],"stateMutability":"nonpayable","type":"function"},{"inputs":[{"internalType":"address","name":"token","type":"address"},{"internalType":"address","name":"to","type":"address"}],"name":"sweep","outputs":[],"stateMutability":"nonpayable","type":"function"},{"inputs":[{"internalType":"address","name":"newOwner","type":"address"}],"name":"transferOwnership","outputs":[],"stateMutability":"nonpayable","type":"function"},{"inputs":[{"internalType":"address","name":"","type":"address"}],"name":"trustedRouter","outputs":[{"internalType":"bool","name":"","type":"bool"}],"stateMutability":"view","type":"function"}],"evm":{"bytecode":{"linkReferences":{},"object":"60406080815234620001c45762000df1803803806200001e81620001df565b92833981016020908183820312620001c45782516001600160401b0393848211620001c457019080601f83011215620001c4578151938411620001c95760059184831b90848062000071818501620001df565b809881520192820101928311620001c4578401905b828210620001a35750505033156200018b5760008054336001600160a01b031982168117835592949193926001600160a01b03929183167f8be0079c531659141344cd1fd0a4f28419497f9722a3daafe3b4186f6b6457e08680a360018080559484865b620000ff575b8751610beb9081620002068239f35b82518110156200018557838582841b8501015116801562000153578652600285528786208760ff198254161790558681018091116200013f5786620000ea565b634e487b7160e01b86526011600452602486fd5b885162461bcd60e51b815260048101879052600b60248201526a3d32b937903937baba32b960a91b6044820152606490fd5b620000f0565b8351631e4fbdf760e01b815260006004820152602490fd5b81516001600160a01b0381168103620001c457815290840190840162000086565b600080fd5b634e487b7160e01b600052604160045260246000fd5b6040519190601f01601f191682016001600160401b03811183821017620001c95760405256fe608080604052600436101561001357600080fd5b60003560e01c908163687e2c171461087557508063715018a61461081c5780637f39a74c146103115780638da5cb5b146102e8578063b8dc491b1461018f578063c64f5351146100ff5763f2fde38b1461006c57600080fd5b346100fa5760203660031901126100fa576100856108b0565b61008d6108dc565b6001600160a01b039081169081156100e157600054826bffffffffffffffffffffffff60a01b821617600055167f8be0079c531659141344cd1fd0a4f28419497f9722a3daafe3b4186f6b6457e0600080a3005b604051631e4fbdf760e01b815260006004820152602490fd5b600080fd5b346100fa5760403660031901126100fa576101186108b0565b602435908115158092036100fa5761012e6108dc565b6001600160a01b0316801561015c57600052600260205260406000209060ff80198354169116179055600080f35b60405162461bcd60e51b815260206004820152600b60248201526a3d32b937903937baba32b960a91b6044820152606490fd5b346100fa5760403660031901126100fa576101a86108b0565b6101b06108c6565b906101b96108dc565b6001600160a01b0390828216156102b2571690604051916370a0823160e01b83523060048401526020928381602481855afa9081156102a657600091610279575b5080156102475760405163a9059cbb60e01b948101949094526001600160a01b039290921660248401526044808401929092529082526102459190610240606483610957565b6109e0565b005b60405162461bcd60e51b815260048101859052600a6024820152696e6f2062616c616e636560b01b6044820152606490fd5b90508381813d831161029f575b6102908183610957565b810103126100fa5751846101fa565b503d610286565b6040513d6000823e3d90fd5b60405162461bcd60e51b815260206004820152600e60248201526d1e995c9bc81c9958da5c1a595b9d60921b6044820152606490fd5b346100fa5760003660031901126100fa576000546040516001600160a01b039091168152602090f35b346100fa576101203660031901126100fa5761032b6108b0565b6103336108c6565b6044356001600160a01b03811681036100fa57606435906001600160a01b03821682036100fa576084359262ffffff9081851685036100fa5760a4359082821682036100fa576103816108dc565b60026001541461080a57600260015560018060a01b038716600052600260205260ff60406000205416806107ed575b156107b5576001600160a01b0384161515806107a3575b15610771576001600160a01b038481169086161461073f5760c4351561070c576040516370a0823160e01b81523060048201526020816024816001600160a01b0389165afa9081156102a6576000916106da575b5060c4351161069e57610437876001600160a01b038616610a3c565b61044d60c435886001600160a01b038716610af5565b826040519661045b88610908565b60018060a01b038616885260018060a01b038716602089015216604087015230606087015242608087015260c43560a087015260e43560c0870152600060e087015260405190602082806104bd63414bf38960e01b9a8b835260048301610979565b038160006001600160a01b038d165af19182156102a657600092610662575b50610576966020939290916104fa816001600160a01b038a16610a3c565b61050e82826001600160a01b038b16610af5565b60018060a01b0316946040519361052485610908565b60018060a01b038916855260018060a01b0388168686015216604084015230606084015242608084015260a08301526101043560c0830152600060e08301526040519687928392835260048301610979565b03816000855af19384156102a65760009461062e575b5060c4358411156105f4576040805191825260c435602083810191909152908201859052946001600160a01b039081169381169216907fd2f2f6bc95428b74c337e895ea9c3900d5daa9b9c83e4dd50ac028ec5016136490606090a460018055604051908152f35b60405162461bcd60e51b8152602060048201526012602482015271756e70726f66697461626c65206379636c6560701b6044820152606490fd5b9093506020813d60201161065a575b8161064a60209383610957565b810103126100fa5751928561058c565b3d915061063d565b929150956020833d602011610696575b8161067f60209383610957565b810103126100fa57915191959091906105766104dc565b3d9150610672565b60405162461bcd60e51b8152602060048201526014602482015273696e73756666696369656e742062616c616e636560601b6044820152606490fd5b90506020813d602011610704575b816106f560209383610957565b810103126100fa57518861041b565b3d91506106e8565b60405162461bcd60e51b815260206004820152600b60248201526a1e995c9bc8185b5bdd5b9d60aa1b6044820152606490fd5b60405162461bcd60e51b815260206004820152600a60248201526939b0b6b2903a37b5b2b760b11b6044820152606490fd5b60405162461bcd60e51b815260206004820152600a6024820152693d32b937903a37b5b2b760b11b6044820152606490fd5b506001600160a01b03851615156103c7565b60405162461bcd60e51b815260206004820152601060248201526f3ab73a393ab9ba32b2103937baba32b960811b6044820152606490fd5b506001600160a01b0381166000908152604090205460ff166103b0565b604051633ee5aeb560e01b8152600490fd5b346100fa5760003660031901126100fa576108356108dc565b600080546001600160a01b0319811682556001600160a01b03167f8be0079c531659141344cd1fd0a4f28419497f9722a3daafe3b4186f6b6457e08280a3005b346100fa5760203660031901126100fa576020906001600160a01b036108996108b0565b166000526002825260ff6040600020541615158152f35b600435906001600160a01b03821682036100fa57565b602435906001600160a01b03821682036100fa57565b6000546001600160a01b031633036108f057565b60405163118cdaa760e01b8152336004820152602490fd5b610100810190811067ffffffffffffffff82111761092557604052565b634e487b7160e01b600052604160045260246000fd5b6080810190811067ffffffffffffffff82111761092557604052565b90601f8019910116810190811067ffffffffffffffff82111761092557604052565b91909160e06101008201938160018060a01b039182815116855282602082015116602086015262ffffff60408201511660408601528260608201511660608601526080810151608086015260a081015160a086015260c081015160c0860152015116910152565b906000602091828151910182855af1156102a6576000513d610a3357506001600160a01b0381163b155b610a115750565b604051635274afe760e01b81526001600160a01b039091166004820152602490fd5b60011415610a0a565b60405190602082019263095ea7b360e01b80855260018060a01b038092169182602486015260206000809781604489015260448852610a7a8861093b565b87519082885af1903d87519083610ad4575b50505015610a9c575b5050505050565b610aca94610240926040519260208401526024830152604482015260448152610ac48161093b565b826109e0565b3880808080610a95565b91925090610aeb575083163b15155b388080610a8c565b6001915014610ae3565b60405163095ea7b360e01b60208083018281526001600160a01b03861660248501526044808501979097529583529094919391600090610b36606487610957565b85519082865af16000513d82610b90575b505015610b55575b50505050565b610b87936102409160405191602083015260018060a01b031660248201526000604482015260448152610ac48161093b565b38808080610b4f565b909150610bad57506001600160a01b0382163b15155b3880610b47565b600114610ba656fea26469706673582212202912a81846b0bec833a072da582d870c3e990690e8bb52c985b52a1e6df56e3064736f6c63430008140033","opcodes":"PUSH1 0x40 PUSH1 0x80 DUP2 MSTORE CALLVALUE PUSH3 0x1C4 JUMPI PUSH3 0xDF1 DUP1 CODESIZE SUB DUP1 PUSH3 0x1E DUP2 PUSH3 0x1DF JUMP JUMPDEST SWAP3 DUP4 CODECOPY DUP2 ADD PUSH1 0x20 SWAP1 DUP2 DUP4 DUP3 SUB SLT PUSH3 0x1C4 JUMPI DUP3 MLOAD PUSH1 0x1 PUSH1 0x1 PUSH1 0x40 SHL SUB SWAP4 DUP5 DUP3 GT PUSH3 0x1C4 JUMPI ADD SWAP1 DUP1 PUSH1 0x1F DUP4 ADD SLT ISZERO PUSH3 0x1C4 JUMPI DUP2 MLOAD SWAP4 DUP5 GT PUSH3 0x1C9 JUMPI PUSH1 0x5 SWAP2 DUP5 DUP4 SHL SWAP1 DUP5 DUP1 PUSH3 0x71 DUP2 DUP6 ADD PUSH3 0x1DF JUMP JUMPDEST DUP1 SWAP9 DUP2 MSTORE ADD SWAP3 DUP3 ADD ADD SWAP3 DUP4 GT PUSH3 0x1C4 JUMPI DUP5 ADD SWAP1 JUMPDEST DUP3 DUP3 LT PUSH3 0x1A3 JUMPI POP POP POP CALLER ISZERO PUSH3 0x18B JUMPI PUSH1 0x0 DUP1 SLOAD CALLER PUSH1 0x1 PUSH1 0x1 PUSH1 0xA0 SHL SUB NOT DUP3 AND DUP2 OR DUP4 SSTORE SWAP3 SWAP5 SWAP2 SWAP4 SWAP3 PUSH1 0x1 PUSH1 0x1 PUSH1 0xA0 SHL SUB SWAP3 SWAP2 DUP4 AND PUSH32 0x8BE0079C531659141344CD1FD0A4F28419497F9722A3DAAFE3B4186F6B6457E0 DUP7 DUP1 LOG3 PUSH1 0x1 DUP1 DUP1 SSTORE SWAP5 DUP5 DUP7 JUMPDEST PUSH3 0xFF JUMPI JUMPDEST DUP8 MLOAD PUSH2 0xBEB SWAP1 DUP2 PUSH3 0x206 DUP3 CODECOPY RETURN JUMPDEST DUP3 MLOAD DUP2 LT ISZERO PUSH3 0x185 JUMPI DUP4 DUP6 DUP3 DUP5 SHL DUP6 ADD ADD MLOAD AND DUP1 ISZERO PUSH3 0x153 JUMPI DUP7 MSTORE PUSH1 0x2 DUP6 MSTORE DUP8 DUP7 KECCAK256 DUP8 PUSH1 0xFF NOT DUP3 SLOAD AND OR SWAP1 SSTORE DUP7 DUP2 ADD DUP1 SWAP2 GT PUSH3 0x13F JUMPI DUP7 PUSH3 0xEA JUMP JUMPDEST PUSH4 0x4E487B71 PUSH1 0xE0 SHL DUP7 MSTORE PUSH1 0x11 PUSH1 0x4 MSTORE PUSH1 0x24 DUP7 REVERT JUMPDEST DUP9 MLOAD PUSH3 0x461BCD PUSH1 0xE5 SHL DUP2 MSTORE PUSH1 0x4 DUP2 ADD DUP8 SWAP1 MSTORE PUSH1 0xB PUSH1 0x24 DUP3 ADD MSTORE PUSH11 0x3D32B937903937BABA32B9 PUSH1 0xA9 SHL PUSH1 0x44 DUP3 ADD MSTORE PUSH1 0x64 SWAP1 REVERT JUMPDEST PUSH3 0xF0 JUMP JUMPDEST DUP4 MLOAD PUSH4 0x1E4FBDF7 PUSH1 0xE0 SHL DUP2 MSTORE PUSH1 0x0 PUSH1 0x4 DUP3 ADD MSTORE PUSH1 0x24 SWAP1 REVERT JUMPDEST DUP2 MLOAD PUSH1 0x1 PUSH1 0x1 PUSH1 0xA0 SHL SUB DUP2 AND DUP2 SUB PUSH3 0x1C4 JUMPI DUP2 MSTORE SWAP1 DUP5 ADD SWAP1 DUP5 ADD PUSH3 0x86 JUMP JUMPDEST PUSH1 0x0 DUP1 REVERT JUMPDEST PUSH4 0x4E487B71 PUSH1 0xE0 SHL PUSH1 0x0 MSTORE PUSH1 0x41 PUSH1 0x4 MSTORE PUSH1 0x24 PUSH1 0x0 REVERT JUMPDEST PUSH1 0x40 MLOAD SWAP2 SWAP1 PUSH1 0x1F ADD PUSH1 0x1F NOT AND DUP3 ADD PUSH1 0x1 PUSH1 0x1 PUSH1 0x40 SHL SUB DUP2 GT DUP4 DUP3 LT OR PUSH3 0x1C9 JUMPI PUSH1 0x40 MSTORE JUMP INVALID PUSH1 0x80 DUP1 PUSH1 0x40 MSTORE PUSH1 0x4 CALLDATASIZE LT ISZERO PUSH2 0x13 JUMPI PUSH1 0x0 DUP1 REVERT JUMPDEST PUSH1 0x0 CALLDATALOAD PUSH1 0xE0 SHR SWAP1 DUP2 PUSH4 0x687E2C17 EQ PUSH2 0x875 JUMPI POP DUP1 PUSH4 0x715018A6 EQ PUSH2 0x81C JUMPI DUP1 PUSH4 0x7F39A74C EQ PUSH2 0x311 JUMPI DUP1 PUSH4 0x8DA5CB5B EQ PUSH2 0x2E8 JUMPI DUP1 PUSH4 0xB8DC491B EQ PUSH2 0x18F JUMPI DUP1 PUSH4 0xC64F5351 EQ PUSH2 0xFF JUMPI PUSH4 0xF2FDE38B EQ PUSH2 0x6C JUMPI PUSH1 0x0 DUP1 REVERT JUMPDEST CALLVALUE PUSH2 0xFA JUMPI PUSH1 0x20 CALLDATASIZE PUSH1 0x3 NOT ADD SLT PUSH2 0xFA JUMPI PUSH2 0x85 PUSH2 0x8B0 JUMP JUMPDEST PUSH2 0x8D PUSH2 0x8DC JUMP JUMPDEST PUSH1 0x1 PUSH1 0x1 PUSH1 0xA0 SHL SUB SWAP1 DUP2 AND SWAP1 DUP2 ISZERO PUSH2 0xE1 JUMPI PUSH1 0x0 SLOAD DUP3 PUSH12 0xFFFFFFFFFFFFFFFFFFFFFFFF PUSH1 0xA0 SHL DUP3 AND OR PUSH1 0x0 SSTORE AND PUSH32 0x8BE0079C531659141344CD1FD0A4F28419497F9722A3DAAFE3B4186F6B6457E0 PUSH1 0x0 DUP1 LOG3 STOP JUMPDEST PUSH1 0x40 MLOAD PUSH4 0x1E4FBDF7 PUSH1 0xE0 SHL DUP2 MSTORE PUSH1 0x0 PUSH1 0x4 DUP3 ADD MSTORE PUSH1 0x24 SWAP1 REVERT JUMPDEST PUSH1 0x0 DUP1 REVERT JUMPDEST CALLVALUE PUSH2 0xFA JUMPI PUSH1 0x40 CALLDATASIZE PUSH1 0x3 NOT ADD SLT PUSH2 0xFA JUMPI PUSH2 0x118 PUSH2 0x8B0 JUMP JUMPDEST PUSH1 0x24 CALLDATALOAD SWAP1 DUP2 ISZERO ISZERO DUP1 SWAP3 SUB PUSH2 0xFA JUMPI PUSH2 0x12E PUSH2 0x8DC JUMP JUMPDEST PUSH1 0x1 PUSH1 0x1 PUSH1 0xA0 SHL SUB AND DUP1 ISZERO PUSH2 0x15C JUMPI PUSH1 0x0 MSTORE PUSH1 0x2 PUSH1 0x20 MSTORE PUSH1 0x40 PUSH1 0x0 KECCAK256 SWAP1 PUSH1 0xFF DUP1 NOT DUP4 SLOAD AND SWAP2 AND OR SWAP1 SSTORE PUSH1 0x0 DUP1 RETURN JUMPDEST PUSH1 0x40 MLOAD PUSH3 0x461BCD PUSH1 0xE5 SHL DUP2 MSTORE PUSH1 0x20 PUSH1 0x4 DUP3 ADD MSTORE PUSH1 0xB PUSH1 0x24 DUP3 ADD MSTORE PUSH11 0x3D32B937903937BABA32B9 PUSH1 0xA9 SHL PUSH1 0x44 DUP3 ADD MSTORE PUSH1 0x64 SWAP1 REVERT JUMPDEST CALLVALUE PUSH2 0xFA JUMPI PUSH1 0x40 CALLDATASIZE PUSH1 0x3 NOT ADD SLT PUSH2 0xFA JUMPI PUSH2 0x1A8 PUSH2 0x8B0 JUMP JUMPDEST PUSH2 0x1B0 PUSH2 0x8C6 JUMP JUMPDEST SWAP1 PUSH2 0x1B9 PUSH2 0x8DC JUMP JUMPDEST PUSH1 0x1 PUSH1 0x1 PUSH1 0xA0 SHL SUB SWAP1 DUP3 DUP3 AND ISZERO PUSH2 0x2B2 JUMPI AND SWAP1 PUSH1 0x40 MLOAD SWAP2 PUSH4 0x70A08231 PUSH1 0xE0 SHL DUP4 MSTORE ADDRESS PUSH1 0x4 DUP5 ADD MSTORE PUSH1 0x20 SWAP3 DUP4 DUP2 PUSH1 0x24 DUP2 DUP6 GAS STATICCALL SWAP1 DUP2 ISZERO PUSH2 0x2A6 JUMPI PUSH1 0x0 SWAP2 PUSH2 0x279 JUMPI JUMPDEST POP DUP1 ISZERO PUSH2 0x247 JUMPI PUSH1 0x40 MLOAD PUSH4 0xA9059CBB PUSH1 0xE0 SHL SWAP5 DUP2 ADD SWAP5 SWAP1 SWAP5 MSTORE PUSH1 0x1 PUSH1 0x1 PUSH1 0xA0 SHL SUB SWAP3 SWAP1 SWAP3 AND PUSH1 0x24 DUP5 ADD MSTORE PUSH1 0x44 DUP1 DUP5 ADD SWAP3 SWAP1 SWAP3 MSTORE SWAP1 DUP3 MSTORE PUSH2 0x245 SWAP2 SWAP1 PUSH2 0x240 PUSH1 0x64 DUP4 PUSH2 0x957 JUMP JUMPDEST PUSH2 0x9E0 JUMP JUMPDEST STOP JUMPDEST PUSH1 0x40 MLOAD PUSH3 0x461BCD PUSH1 0xE5 SHL DUP2 MSTORE PUSH1 0x4 DUP2 ADD DUP6 SWAP1 MSTORE PUSH1 0xA PUSH1 0x24 DUP3 ADD MSTORE PUSH10 0x6E6F2062616C616E6365 PUSH1 0xB0 SHL PUSH1 0x44 DUP3 ADD MSTORE PUSH1 0x64 SWAP1 REVERT JUMPDEST SWAP1 POP DUP4 DUP2 DUP2 RETURNDATASIZE DUP4 GT PUSH2 0x29F JUMPI JUMPDEST PUSH2 0x290 DUP2 DUP4 PUSH2 0x957 JUMP JUMPDEST DUP2 ADD SUB SLT PUSH2 0xFA JUMPI MLOAD DUP5 PUSH2 0x1FA JUMP JUMPDEST POP RETURNDATASIZE PUSH2 0x286 JUMP JUMPDEST PUSH1 0x40 MLOAD RETURNDATASIZE PUSH1 0x0 DUP3 RETURNDATACOPY RETURNDATASIZE SWAP1 REVERT JUMPDEST PUSH1 0x40 MLOAD PUSH3 0x461BCD PUSH1 0xE5 SHL DUP2 MSTORE PUSH1 0x20 PUSH1 0x4 DUP3 ADD MSTORE PUSH1 0xE PUSH1 0x24 DUP3 ADD MSTORE PUSH14 0x1E995C9BC81C9958DA5C1A595B9D PUSH1 0x92 SHL PUSH1 0x44 DUP3 ADD MSTORE PUSH1 0x64 SWAP1 REVERT JUMPDEST CALLVALUE PUSH2 0xFA JUMPI PUSH1 0x0 CALLDATASIZE PUSH1 0x3 NOT ADD SLT PUSH2 0xFA JUMPI PUSH1 0x0 SLOAD PUSH1 0x40 MLOAD PUSH1 0x1 PUSH1 0x1 PUSH1 0xA0 SHL SUB SWAP1 SWAP2 AND DUP2 MSTORE PUSH1 0x20 SWAP1 RETURN JUMPDEST CALLVALUE PUSH2 0xFA JUMPI PUSH2 0x120 CALLDATASIZE PUSH1 0x3 NOT ADD SLT PUSH2 0xFA JUMPI PUSH2 0x32B PUSH2 0x8B0 JUMP JUMPDEST PUSH2 0x333 PUSH2 0x8C6 JUMP JUMPDEST PUSH1 0x44 CALLDATALOAD PUSH1 0x1 PUSH1 0x1 PUSH1 0xA0 SHL SUB DUP2 AND DUP2 SUB PUSH2 0xFA JUMPI PUSH1 0x64 CALLDATALOAD SWAP1 PUSH1 0x1 PUSH1 0x1 PUSH1 0xA0 SHL SUB DUP3 AND DUP3 SUB PUSH2 0xFA JUMPI PUSH1 0x84 CALLDATALOAD SWAP3 PUSH3 0xFFFFFF SWAP1 DUP2 DUP6 AND DUP6 SUB PUSH2 0xFA JUMPI PUSH1 0xA4 CALLDATALOAD SWAP1 DUP3 DUP3 AND DUP3 SUB PUSH2 0xFA JUMPI PUSH2 0x381 PUSH2 0x8DC JUMP JUMPDEST PUSH1 0x2 PUSH1 0x1 SLOAD EQ PUSH2 0x80A JUMPI PUSH1 0x2 PUSH1 0x1 SSTORE PUSH1 0x1 DUP1 PUSH1 0xA0 SHL SUB DUP8 AND PUSH1 0x0 MSTORE PUSH1 0x2 PUSH1 0x20 MSTORE PUSH1 0xFF PUSH1 0x40 PUSH1 0x0 KECCAK256 SLOAD AND DUP1 PUSH2 0x7ED JUMPI JUMPDEST ISZERO PUSH2 0x7B5 JUMPI PUSH1 0x1 PUSH1 0x1 PUSH1 0xA0 SHL SUB DUP5 AND ISZERO ISZERO DUP1 PUSH2 0x7A3 JUMPI JUMPDEST ISZERO PUSH2 0x771 JUMPI PUSH1 0x1 PUSH1 0x1 PUSH1 0xA0 SHL SUB DUP5 DUP2 AND SWAP1 DUP7 AND EQ PUSH2 0x73F JUMPI PUSH1 0xC4 CALLDATALOAD ISZERO PUSH2 0x70C JUMPI PUSH1 0x40 MLOAD PUSH4 0x70A08231 PUSH1 0xE0 SHL DUP2 MSTORE ADDRESS PUSH1 0x4 DUP3 ADD MSTORE PUSH1 0x20 DUP2 PUSH1 0x24 DUP2 PUSH1 0x1 PUSH1 0x1 PUSH1 0xA0 SHL SUB DUP10 AND GAS STATICCALL SWAP1 DUP2 ISZERO PUSH2 0x2A6 JUMPI PUSH1 0x0 SWAP2 PUSH2 0x6DA JUMPI JUMPDEST POP PUSH1 0xC4 CALLDATALOAD GT PUSH2 0x69E JUMPI PUSH2 0x437 DUP8 PUSH1 0x1 PUSH1 0x1 PUSH1 0xA0 SHL SUB DUP7 AND PUSH2 0xA3C JUMP JUMPDEST PUSH2 0x44D PUSH1 0xC4 CALLDATALOAD DUP9 PUSH1 0x1 PUSH1 0x1 PUSH1 0xA0 SHL SUB DUP8 AND PUSH2 0xAF5 JUMP JUMPDEST DUP3 PUSH1 0x40 MLOAD SWAP7 PUSH2 0x45B DUP9 PUSH2 0x908 JUMP JUMPDEST PUSH1 0x1 DUP1 PUSH1 0xA0 SHL SUB DUP7 AND DUP9 MSTORE PUSH1 0x1 DUP1 PUSH1 0xA0 SHL SUB DUP8 AND PUSH1 0x20 DUP10 ADD MSTORE AND PUSH1 0x40 DUP8 ADD MSTORE ADDRESS PUSH1 0x60 DUP8 ADD MSTORE TIMESTAMP PUSH1 0x80 DUP8 ADD MSTORE PUSH1 0xC4 CALLDATALOAD PUSH1 0xA0 DUP8 ADD MSTORE PUSH1 0xE4 CALLDATALOAD PUSH1 0xC0 DUP8 ADD MSTORE PUSH1 0x0 PUSH1 0xE0 DUP8 ADD MSTORE PUSH1 0x40 MLOAD SWAP1 PUSH1 0x20 DUP3 DUP1 PUSH2 0x4BD PUSH4 0x414BF389 PUSH1 0xE0 SHL SWAP11 DUP12 DUP4 MSTORE PUSH1 0x4 DUP4 ADD PUSH2 0x979 JUMP JUMPDEST SUB DUP2 PUSH1 0x0 PUSH1 0x1 PUSH1 0x1 PUSH1 0xA0 SHL SUB DUP14 AND GAS CALL SWAP2 DUP3 ISZERO PUSH2 0x2A6 JUMPI PUSH1 0x0 SWAP3 PUSH2 0x662 JUMPI JUMPDEST POP PUSH2 0x576 SWAP7 PUSH1 0x20 SWAP4 SWAP3 SWAP1 SWAP2 PUSH2 0x4FA DUP2 PUSH1 0x1 PUSH1 0x1 PUSH1 0xA0 SHL SUB DUP11 AND PUSH2 0xA3C JUMP JUMPDEST PUSH2 0x50E DUP3 DUP3 PUSH1 0x1 PUSH1 0x1 PUSH1 0xA0 SHL SUB DUP12 AND PUSH2 0xAF5 JUMP JUMPDEST PUSH1 0x1 DUP1 PUSH1 0xA0 SHL SUB AND SWAP5 PUSH1 0x40 MLOAD SWAP4 PUSH2 0x524 DUP6 PUSH2 0x908 JUMP JUMPDEST PUSH1 0x1 DUP1 PUSH1 0xA0 SHL SUB DUP10 AND DUP6 MSTORE PUSH1 0x1 DUP1 PUSH1 0xA0 SHL SUB DUP9 AND DUP7 DUP7 ADD MSTORE AND PUSH1 0x40 DUP5 ADD MSTORE ADDRESS PUSH1 0x60 DUP5 ADD MSTORE TIMESTAMP PUSH1 0x80 DUP5 ADD MSTORE PUSH1 0xA0 DUP4 ADD MSTORE PUSH2 0x104 CALLDATALOAD PUSH1 0xC0 DUP4 ADD MSTORE PUSH1 0x0 PUSH1 0xE0 DUP4 ADD MSTORE PUSH1 0x40 MLOAD SWAP7 DUP8 SWAP3 DUP4 SWAP3 DUP4 MSTORE PUSH1 0x4 DUP4 ADD PUSH2 0x979 JUMP JUMPDEST SUB DUP2 PUSH1 0x0 DUP6 GAS CALL SWAP4 DUP5 ISZERO PUSH2 0x2A6 JUMPI PUSH1 0x0 SWAP5 PUSH2 0x62E JUMPI JUMPDEST POP PUSH1 0xC4 CALLDATALOAD DUP5 GT ISZERO PUSH2 0x5F4 JUMPI PUSH1 0x40 DUP1 MLOAD SWAP2 DUP3 MSTORE PUSH1 0xC4 CALLDATALOAD PUSH1 0x20 DUP4 DUP2 ADD SWAP2 SWAP1 SWAP2 MSTORE SWAP1 DUP3 ADD DUP6 SWAP1 MSTORE SWAP5 PUSH1 0x1 PUSH1 0x1 PUSH1 0xA0 SHL SUB SWAP1 DUP2 AND SWAP4 DUP2 AND SWAP3 AND SWAP1 PUSH32 0xD2F2F6BC95428B74C337E895EA9C3900D5DAA9B9C83E4DD50AC028EC50161364 SWAP1 PUSH1 0x60 SWAP1 LOG4 PUSH1 0x1 DUP1 SSTORE PUSH1 0x40 MLOAD SWAP1 DUP2 MSTORE RETURN JUMPDEST PUSH1 0x40 MLOAD PUSH3 0x461BCD PUSH1 0xE5 SHL DUP2 MSTORE PUSH1 0x20 PUSH1 0x4 DUP3 ADD MSTORE PUSH1 0x12 PUSH1 0x24 DUP3 ADD MSTORE PUSH18 0x756E70726F66697461626C65206379636C65 PUSH1 0x70 SHL PUSH1 0x44 DUP3 ADD MSTORE PUSH1 0x64 SWAP1 REVERT JUMPDEST SWAP1 SWAP4 POP PUSH1 0x20 DUP2 RETURNDATASIZE PUSH1 0x20 GT PUSH2 0x65A JUMPI JUMPDEST DUP2 PUSH2 0x64A PUSH1 0x20 SWAP4 DUP4 PUSH2 0x957 JUMP JUMPDEST DUP2 ADD SUB SLT PUSH2 0xFA JUMPI MLOAD SWAP3 DUP6 PUSH2 0x58C JUMP JUMPDEST RETURNDATASIZE SWAP2 POP PUSH2 0x63D JUMP JUMPDEST SWAP3 SWAP2 POP SWAP6 PUSH1 0x20 DUP4 RETURNDATASIZE PUSH1 0x20 GT PUSH2 0x696 JUMPI JUMPDEST DUP2 PUSH2 0x67F PUSH1 0x20 SWAP4 DUP4 PUSH2 0x957 JUMP JUMPDEST DUP2 ADD SUB SLT PUSH2 0xFA JUMPI SWAP2 MLOAD SWAP2 SWAP6 SWAP1 SWAP2 SWAP1 PUSH2 0x576 PUSH2 0x4DC JUMP JUMPDEST RETURNDATASIZE SWAP2 POP PUSH2 0x672 JUMP JUMPDEST PUSH1 0x40 MLOAD PUSH3 0x461BCD PUSH1 0xE5 SHL DUP2 MSTORE PUSH1 0x20 PUSH1 0x4 DUP3 ADD MSTORE PUSH1 0x14 PUSH1 0x24 DUP3 ADD MSTORE PUSH20 0x696E73756666696369656E742062616C616E6365 PUSH1 0x60 SHL PUSH1 0x44 DUP3 ADD MSTORE PUSH1 0x64 SWAP1 REVERT JUMPDEST SWAP1 POP PUSH1 0x20 DUP2 RETURNDATASIZE PUSH1 0x20 GT PUSH2 0x704 JUMPI JUMPDEST DUP2 PUSH2 0x6F5 PUSH1 0x20 SWAP4 DUP4 PUSH2 0x957 JUMP JUMPDEST DUP2 ADD SUB SLT PUSH2 0xFA JUMPI MLOAD DUP9 PUSH2 0x41B JUMP JUMPDEST RETURNDATASIZE SWAP2 POP PUSH2 0x6E8 JUMP JUMPDEST PUSH1 0x40 MLOAD PUSH3 0x461BCD PUSH1 0xE5 SHL DUP2 MSTORE PUSH1 0x20 PUSH1 0x4 DUP3 ADD MSTORE PUSH1 0xB PUSH1 0x24 DUP3 ADD MSTORE PUSH11 0x1E995C9BC8185B5BDD5B9D PUSH1 0xAA SHL PUSH1 0x44 DUP3 ADD MSTORE PUSH1 0x64 SWAP1 REVERT JUMPDEST PUSH1 0x40 MLOAD PUSH3 0x461BCD PUSH1 0xE5 SHL DUP2 MSTORE PUSH1 0x20 PUSH1 0x4 DUP3 ADD MSTORE PUSH1 0xA PUSH1 0x24 DUP3 ADD MSTORE PUSH10 0x39B0B6B2903A37B5B2B7 PUSH1 0xB1 SHL PUSH1 0x44 DUP3 ADD MSTORE PUSH1 0x64 SWAP1 REVERT JUMPDEST PUSH1 0x40 MLOAD PUSH3 0x461BCD PUSH1 0xE5 SHL DUP2 MSTORE PUSH1 0x20 PUSH1 0x4 DUP3 ADD MSTORE PUSH1 0xA PUSH1 0x24 DUP3 ADD MSTORE PUSH10 0x3D32B937903A37B5B2B7 PUSH1 0xB1 SHL PUSH1 0x44 DUP3 ADD MSTORE PUSH1 0x64 SWAP1 REVERT JUMPDEST POP PUSH1 0x1 PUSH1 0x1 PUSH1 0xA0 SHL SUB DUP6 AND ISZERO ISZERO PUSH2 0x3C7 JUMP JUMPDEST PUSH1 0x40 MLOAD PUSH3 0x461BCD PUSH1 0xE5 SHL DUP2 MSTORE PUSH1 0x20 PUSH1 0x4 DUP3 ADD MSTORE PUSH1 0x10 PUSH1 0x24 DUP3 ADD MSTORE PUSH16 0x3AB73A393AB9BA32B2103937BABA32B9 PUSH1 0x81 SHL PUSH1 0x44 DUP3 ADD MSTORE PUSH1 0x64 SWAP1 REVERT JUMPDEST POP PUSH1 0x1 PUSH1 0x1 PUSH1 0xA0 SHL SUB DUP2 AND PUSH1 0x0 SWAP1 DUP2 MSTORE PUSH1 0x40 SWAP1 KECCAK256 SLOAD PUSH1 0xFF AND PUSH2 0x3B0 JUMP JUMPDEST PUSH1 0x40 MLOAD PUSH4 0x3EE5AEB5 PUSH1 0xE0 SHL DUP2 MSTORE PUSH1 0x4 SWAP1 REVERT JUMPDEST CALLVALUE PUSH2 0xFA JUMPI PUSH1 0x0 CALLDATASIZE PUSH1 0x3 NOT ADD SLT PUSH2 0xFA JUMPI PUSH2 0x835 PUSH2 0x8DC JUMP JUMPDEST PUSH1 0x0 DUP1 SLOAD PUSH1 0x1 PUSH1 0x1 PUSH1 0xA0 SHL SUB NOT DUP2 AND DUP3 SSTORE PUSH1 0x1 PUSH1 0x1 PUSH1 0xA0 SHL SUB AND PUSH32 0x8BE0079C531659141344CD1FD0A4F28419497F9722A3DAAFE3B4186F6B6457E0 DUP3 DUP1 LOG3 STOP JUMPDEST CALLVALUE PUSH2 0xFA JUMPI PUSH1 0x20 CALLDATASIZE PUSH1 0x3 NOT ADD SLT PUSH2 0xFA JUMPI PUSH1 0x20 SWAP1 PUSH1 0x1 PUSH1 0x1 PUSH1 0xA0 SHL SUB PUSH2 0x899 PUSH2 0x8B0 JUMP JUMPDEST AND PUSH1 0x0 MSTORE PUSH1 0x2 DUP3 MSTORE PUSH1 0xFF PUSH1 0x40 PUSH1 0x0 KECCAK256 SLOAD AND ISZERO ISZERO DUP2 MSTORE RETURN JUMPDEST PUSH1 0x4 CALLDATALOAD SWAP1 PUSH1 0x1 PUSH1 0x1 PUSH1 0xA0 SHL SUB DUP3 AND DUP3 SUB PUSH2 0xFA JUMPI JUMP JUMPDEST PUSH1 0x24 CALLDATALOAD SWAP1 PUSH1 0x1 PUSH1 0x1 PUSH1 0xA0 SHL SUB DUP3 AND DUP3 SUB PUSH2 0xFA JUMPI JUMP JUMPDEST PUSH1 0x0 SLOAD PUSH1 0x1 PUSH1 0x1 PUSH1 0xA0 SHL SUB AND CALLER SUB PUSH2 0x8F0 JUMPI JUMP JUMPDEST PUSH1 0x40 MLOAD PUSH4 0x118CDAA7 PUSH1 0xE0 SHL DUP2 MSTORE CALLER PUSH1 0x4 DUP3 ADD MSTORE PUSH1 0x24 SWAP1 REVERT JUMPDEST PUSH2 0x100 DUP2 ADD SWAP1 DUP2 LT PUSH8 0xFFFFFFFFFFFFFFFF DUP3 GT OR PUSH2 0x925 JUMPI PUSH1 0x40 MSTORE JUMP JUMPDEST PUSH4 0x4E487B71 PUSH1 0xE0 SHL PUSH1 0x0 MSTORE PUSH1 0x41 PUSH1 0x4 MSTORE PUSH1 0x24 PUSH1 0x0 REVERT JUMPDEST PUSH1 0x80 DUP2 ADD SWAP1 DUP2 LT PUSH8 0xFFFFFFFFFFFFFFFF DUP3 GT OR PUSH2 0x925 JUMPI PUSH1 0x40 MSTORE JUMP JUMPDEST SWAP1 PUSH1 0x1F DUP1 NOT SWAP2 ADD AND DUP2 ADD SWAP1 DUP2 LT PUSH8 0xFFFFFFFFFFFFFFFF DUP3 GT OR PUSH2 0x925 JUMPI PUSH1 0x40 MSTORE JUMP JUMPDEST SWAP2 SWAP1 SWAP2 PUSH1 0xE0 PUSH2 0x100 DUP3 ADD SWAP4 DUP2 PUSH1 0x1 DUP1 PUSH1 0xA0 SHL SUB SWAP2 DUP3 DUP2 MLOAD AND DUP6 MSTORE DUP3 PUSH1 0x20 DUP3 ADD MLOAD AND PUSH1 0x20 DUP7 ADD MSTORE PUSH3 0xFFFFFF PUSH1 0x40 DUP3 ADD MLOAD AND PUSH1 0x40 DUP7 ADD MSTORE DUP3 PUSH1 0x60 DUP3 ADD MLOAD AND PUSH1 0x60 DUP7 ADD MSTORE PUSH1 0x80 DUP2 ADD MLOAD PUSH1 0x80 DUP7 ADD MSTORE PUSH1 0xA0 DUP2 ADD MLOAD PUSH1 0xA0 DUP7 ADD MSTORE PUSH1 0xC0 DUP2 ADD MLOAD PUSH1 0xC0 DUP7 ADD MSTORE ADD MLOAD AND SWAP2 ADD MSTORE JUMP JUMPDEST SWAP1 PUSH1 0x0 PUSH1 0x20 SWAP2 DUP3 DUP2 MLOAD SWAP2 ADD DUP3 DUP6 GAS CALL ISZERO PUSH2 0x2A6 JUMPI PUSH1 0x0 MLOAD RETURNDATASIZE PUSH2 0xA33 JUMPI POP PUSH1 0x1 PUSH1 0x1 PUSH1 0xA0 SHL SUB DUP2 AND EXTCODESIZE ISZERO JUMPDEST PUSH2 0xA11 JUMPI POP JUMP JUMPDEST PUSH1 0x40 MLOAD PUSH4 0x5274AFE7 PUSH1 0xE0 SHL DUP2 MSTORE PUSH1 0x1 PUSH1 0x1 PUSH1 0xA0 SHL SUB SWAP1 SWAP2 AND PUSH1 0x4 DUP3 ADD MSTORE PUSH1 0x24 SWAP1 REVERT JUMPDEST PUSH1 0x1 EQ ISZERO PUSH2 0xA0A JUMP JUMPDEST PUSH1 0x40 MLOAD SWAP1 PUSH1 0x20 DUP3 ADD SWAP3 PUSH4 0x95EA7B3 PUSH1 0xE0 SHL DUP1 DUP6 MSTORE PUSH1 0x1 DUP1 PUSH1 0xA0 SHL SUB DUP1 SWAP3 AND SWAP2 DUP3 PUSH1 0x24 DUP7 ADD MSTORE PUSH1 0x20 PUSH1 0x0 DUP1 SWAP8 DUP2 PUSH1 0x44 DUP10 ADD MSTORE PUSH1 0x44 DUP9 MSTORE PUSH2 0xA7A DUP9 PUSH2 0x93B JUMP JUMPDEST DUP8 MLOAD SWAP1 DUP3 DUP9 GAS CALL SWAP1 RETURNDATASIZE DUP8 MLOAD SWAP1 DUP4 PUSH2 0xAD4 JUMPI JUMPDEST POP POP POP ISZERO PUSH2 0xA9C JUMPI JUMPDEST POP POP POP POP POP JUMP JUMPDEST PUSH2 0xACA SWAP5 PUSH2 0x240 SWAP3 PUSH1 0x40 MLOAD SWAP3 PUSH1 0x20 DUP5 ADD MSTORE PUSH1 0x24 DUP4 ADD MSTORE PUSH1 0x44 DUP3 ADD MSTORE PUSH1 0x44 DUP2 MSTORE PUSH2 0xAC4 DUP2 PUSH2 0x93B JUMP JUMPDEST DUP3 PUSH2 0x9E0 JUMP JUMPDEST CODESIZE DUP1 DUP1 DUP1 DUP1 PUSH2 0xA95 JUMP JUMPDEST SWAP2 SWAP3 POP SWAP1 PUSH2 0xAEB JUMPI POP DUP4 AND EXTCODESIZE ISZERO ISZERO JUMPDEST CODESIZE DUP1 DUP1 PUSH2 0xA8C JUMP JUMPDEST PUSH1 0x1 SWAP2 POP EQ PUSH2 0xAE3 JUMP JUMPDEST PUSH1 0x40 MLOAD PUSH4 0x95EA7B3 PUSH1 0xE0 SHL PUSH1 0x20 DUP1 DUP4 ADD DUP3 DUP2 MSTORE PUSH1 0x1 PUSH1 0x1 PUSH1 0xA0 SHL SUB DUP7 AND PUSH1 0x24 DUP6 ADD MSTORE PUSH1 0x44 DUP1 DUP6 ADD SWAP8 SWAP1 SWAP8 MSTORE SWAP6 DUP4 MSTORE SWAP1 SWAP5 SWAP2 SWAP4 SWAP2 PUSH1 0x0 SWAP1 PUSH2 0xB36 PUSH1 0x64 DUP8 PUSH2 0x957 JUMP JUMPDEST DUP6 MLOAD SWAP1 DUP3 DUP7 GAS CALL PUSH1 0x0 MLOAD RETURNDATASIZE DUP3 PUSH2 0xB90 JUMPI JUMPDEST POP POP ISZERO PUSH2 0xB55 JUMPI JUMPDEST POP POP POP POP JUMP JUMPDEST PUSH2 0xB87 SWAP4 PUSH2 0x240 SWAP2 PUSH1 0x40 MLOAD SWAP2 PUSH1 0x20 DUP4 ADD MSTORE PUSH1 0x1 DUP1 PUSH1 0xA0 SHL SUB AND PUSH1 0x24 DUP3 ADD MSTORE PUSH1 0x0 PUSH1 0x44 DUP3 ADD MSTORE PUSH1 0x44 DUP2 MSTORE PUSH2 0xAC4 DUP2 PUSH2 0x93B JUMP JUMPDEST CODESIZE DUP1 DUP1 DUP1 PUSH2 0xB4F JUMP JUMPDEST SWAP1 SWAP2 POP PUSH2 0xBAD JUMPI POP PUSH1 0x1 PUSH1 0x1 PUSH1 0xA0 SHL SUB DUP3 AND EXTCODESIZE ISZERO ISZERO JUMPDEST CODESIZE DUP1 PUSH2 0xB47 JUMP JUMPDEST PUSH1 0x1 EQ PUSH2 0xBA6 JUMP INVALID LOG2 PUSH5 0x6970667358 0x22 SLT KECCAK256 0x29 SLT 0xA8 XOR CHAINID 0xB0 0xBE 0xC8 CALLER LOG0 PUSH19 0xDA582D870C3E990690E8BB52C985B52A1E6DF5 PUSH15 0x3064736F6C63430008140033000000 "},"methodIdentifiers":{"executeTwoLegSwap(address,address,address,address,uint24,uint24,uint256,uint256,uint256)":"7f39a74c","owner()":"8da5cb5b","renounceOwnership()":"715018a6","setTrustedRouter(address,bool)":"c64f5351","sweep(address,address)":"b8dc491b","transferOwnership(address)":"f2fde38b","trustedRouter(address)":"687e2c17"}}}}}