{"contracts/ArbExecutor.sol":{"ArbExecutor":{"abi":[{"inputs":[{"internalType":"contract IPoolAddressesProvider","name":"provider","type":"address"},{"internalType":"address","name":"_uniRouter","type":"address"},{"internalType":"address","name":"_sushiRouter","type":"address"},{"internalType":"address","name":"_uniV3Router","type":"address"}],"stateMutability":"nonpayable","type":"constructor"},{"inputs":[],"name":"ReentrancyGuardReentrantCall","type":"error"},{"inputs":[{"internalType":"address","name":"token","type":"address"}],"name":"SafeERC20FailedOperation","type":"error"},{"anonymous":false,"inputs":[{"indexed":true,"internalType":"address","name":"asset","type":"address"},{"indexed":false,"internalType":"uint256","name":"amount","type":"uint256"},{"indexed":false,"internalType":"uint256","name":"premium","type":"uint256"},{"indexed":false,"internalType":"uint256","name":"profit","type":"uint256"}],"name":"FlashLoanExecuted","type":"event"},{"inputs":[],"name":"ADDRESSES_PROVIDER","outputs":[{"internalType":"contract IPoolAddressesProvider","name":"","type":"address"}],"stateMutability":"view","type":"function"},{"inputs":[],"name":"POOL","outputs":[{"internalType":"contract IPool","name":"","type":"address"}],"stateMutability":"view","type":"function"},{"inputs":[],"name":"SUSHI_ROUTER","outputs":[{"internalType":"contract IUniswapV2Router02","name":"","type":"address"}],"stateMutability":"view","type":"function"},{"inputs":[],"name":"UNI_ROUTER","outputs":[{"internalType":"contract IUniswapV2Router02","name":"","type":"address"}],"stateMutability":"view","type":"function"},{"inputs":[],"name":"UNI_V3_ROUTER","outputs":[{"internalType":"contract ISwapRouterV3","name":"","type":"address"}],"stateMutability":"view","type":"function"},{"inputs":[{"internalType":"uint256","name":"amount","type":"uint256"},{"internalType":"address[]","name":"pathUni","type":"address[]"},{"internalType":"address[]","name":"pathSushi","type":"address[]"},{"internalType":"uint256","name":"minOutUni","type":"uint256"},{"internalType":"uint256","name":"minOutSushi","type":"uint256"},{"internalType":"bool","name":"uniFirst","type":"bool"}],"name":"executeFlashLoan","outputs":[],"stateMutability":"nonpayable","type":"function"},{"inputs":[{"internalType":"uint256","name":"amount","type":"uint256"},{"internalType":"address","name":"asset","type":"address"},{"internalType":"address","name":"middleToken","type":"address"},{"internalType":"uint8","name":"firstDex","type":"uint8"},{"internalType":"uint8","name":"secondDex","type":"uint8"},{"internalType":"address","name":"firstV2Router","type":"address"},{"internalType":"address","name":"secondV2Router","type":"address"},{"internalType":"uint24","name":"firstFee","type":"uint24"},{"internalType":"uint24","name":"secondFee","type":"uint24"},{"internalType":"uint256","name":"minOutFirst","type":"uint256"},{"internalType":"uint256","name":"minOutSecond","type":"uint256"}],"name":"executeFlashLoanFlexible","outputs":[],"stateMutability":"nonpayable","type":"function"},{"inputs":[{"internalType":"address","name":"asset","type":"address"},{"internalType":"uint256","name":"amount","type":"uint256"},{"internalType":"uint256","name":"premium","type":"uint256"},{"internalType":"address","name":"","type":"address"},{"internalType":"bytes","name":"params","type":"bytes"}],"name":"executeOperation","outputs":[{"internalType":"bool","name":"","type":"bool"}],"stateMutability":"nonpayable","type":"function"},{"inputs":[],"name":"owner","outputs":[{"internalType":"address","name":"","type":"address"}],"stateMutability":"view","type":"function"},{"inputs":[{"internalType":"address","name":"router","type":"address"},{"internalType":"bool","name":"allowed","type":"bool"}],"name":"setTrustedV2Router","outputs":[],"stateMutability":"nonpayable","type":"function"},{"inputs":[{"internalType":"address","name":"","type":"address"}],"name":"trustedV2Router","outputs":[{"internalType":"bool","name":"","type":"bool"}],"stateMutability":"view","type":"function"},{"inputs":[{"internalType":"address","name":"token","type":"address"}],"name":"withdraw","outputs":[],"stateMutability":"nonpayable","type":"function"}],"evm":{"bytecode":{"linkReferences":{},"object":"610140604081815234620001de5760808262001ab98038038091620000258285620001e3565b833981010312620001de5781516001600160a01b0392909190838316808403620001de57600490602090816200005d8186016200021d565b91620000796060620000718989016200021d565b97016200021d565b9760805286519485809263026b1d5f60e01b82525afa928315620001d35790879160009462000186575b508190816001951660a052846000553360c05216938460e0521692610100968488526101209616865260005252816000209060ff1991600183825416179055600052600182600020918254161790555190611886928362000233843960805183610e8e015260a051838181610285015281816104e9015281816107000152610cf8015260c051838181610165015281816101fd015281816102d40152818161048c0152610c6a015260e05183818160bc0152818161096d0152610b6f015251828181610a0301528181610af80152610e4b015251818181610241015261171b0152f35b915091928382813d8311620001cb575b620001a28183620001e3565b81010312620001c85750866001939281620001be81946200021d565b95505090620000a3565b80fd5b503d62000196565b85513d6000823e3d90fd5b600080fd5b601f909101601f19168101906001600160401b038211908210176200020757604052565b634e487b7160e01b600052604160045260246000fd5b51906001600160a01b0382168203620001de5756fe608060408181526004918236101561001657600080fd5b600092833560e01c9182630542975c14610e7a575081630c24f4fa14610e365781630ce0cff014610bfd5781631b11d0ff1461067d5781632d3c04c9146103ee57816351cff8d9146102b45781637535d246146102705781637781f71f1461022c5781638da5cb5b146101e85781639594ace61461012c57508063d679bf45146100ef5763ee0ab465146100a957600080fd5b346100eb57816003193601126100eb57517f00000000000000000000000000000000000000000000000000000000000000006001600160a01b03168152602090f35b5080fd5b50346100eb5760203660031901126100eb5760209160ff9082906001600160a01b03610119610eee565b1681526001855220541690519015158152f35b919050346101e457806003193601126101e457610147610eee565b91602435928315158094036101df576001600160a01b039061018c337f0000000000000000000000000000000000000000000000000000000000000000841614610f36565b169081156101ae57508352600160205282209060ff8019835416911617905580f35b606490602084519162461bcd60e51b8352820152600b60248201526a2d32b937903937baba32b960a91b6044820152fd5b600080fd5b8280fd5b5050346100eb57816003193601126100eb57517f00000000000000000000000000000000000000000000000000000000000000006001600160a01b03168152602090f35b5050346100eb57816003193601126100eb57517f00000000000000000000000000000000000000000000000000000000000000006001600160a01b03168152602090f35b5050346100eb57816003193601126100eb57517f00000000000000000000000000000000000000000000000000000000000000006001600160a01b03168152602090f35b839150346100eb57602090816003193601126101e4576102d2610eee565b7f000000000000000000000000000000000000000000000000000000000000000092906001600160a01b039061030b3383871614610f36565b86516370a0823160e01b815230818601529116928282602481875afa9182156103e45786926103b5575b5081156103855750945163a9059cbb60e01b918101919091526001600160a01b039290921660248301526044808301949094529281529091610382919061037d606483610fe6565b61153d565b80f35b865162461bcd60e51b8152908101839052600a6024820152694e6f2062616c616e636560b01b6044820152606490fd5b9091508281813d83116103dd575b6103cd8183610fe6565b810103126101df57519087610335565b503d6103c3565b87513d88823e3d90fd5b905082346105b85761016092836003193601126100eb576001600160a01b039383359060243590868216908183036101df57604435918883168093036101df5760643560ff81168091036101df5760843560ff81168091036101df5760a4358b81168091036101df5760c435918c83168093036101df5760e4359362ffffff958686168096036101df57610104359687168097036101df576104b38f7f0000000000000000000000000000000000000000000000000000000000000000163314610f36565b6104be8b1515610f6e565b80151580610674575b156106455788146106155760028111158061060a575b156105dd5760209b9c9d7f0000000000000000000000000000000000000000000000000000000000000000169760018c519d8e01528b8d015260608c015260808b015260a08a015260c089015260e0880152610100870152610124356101208701526101406101443581880152865285019480861067ffffffffffffffff8711176105c857869750858552813b156105c45786869382610594869484986310ac2ddf60e21b875261015f19943061016484016110ba565b0301925af19081156105bb57506105a85750f35b6105b190610fbc565b6105b85780f35b80fd5b513d84823e3d90fd5b8680fd5b604188634e487b7160e01b6000525260246000fd5b8a5162461bcd60e51b81526020818f01526007602482015266084c2c840c8caf60cb1b6044820152606490fd5b5060028211156104dd565b8a5162461bcd60e51b81526020818f0152600a60248201526929b0b6b2903a37b5b2b760b11b6044820152606490fd5b60648e60208e519162461bcd60e51b835282015260096024820152682d32b9379030b2323960b91b6044820152fd5b508815156104c7565b9050346101e45760a03660031901126101e457610698610eee565b9060248035916001600160a01b039160443591606435848116036101df5767ffffffffffffffff95608435878111610bf95736602382011215610bf95780830135888111610bf557848201908201858101368111610bb35760028d5414610be55760028d55887f0000000000000000000000000000000000000000000000000000000000000000169a8b3303610bb7578d94939291908335600181036108ef57505050826101409103126101e45761074f90610f18565b5061075c60448201610f04565b90838861076b60648401610f18565b60ff8c61077a60848701610f18565b9561078760a48201610f04565b9161079460c48301610f04565b92876107a260e48501610f26565b94866107b16101048701610f26565b988a806101446101248a01359901359f169b8c961693169e501680156000146108cc57506107df9550611599565b945b16806108a95750506107f294611599565b945b6107fe85886113d6565b9182871115610874576108159183911698896113e3565b84039384116108615760208760018a897fe03a36d920ad8de5a978a8f1917280e202ae9193e6dc19e08ef1f6c2a051eba460608b8b8b88519283528983015287820152a2555160018152f35b601190634e487b7160e01b600052526000fd5b895162461bcd60e51b81526020818601526010818701526f2ab7383937b334ba30b136329030b93160811b6044820152606490fd5b6001036108c057506108ba94611599565b946107f4565b91906108ba9550611709565b6001036108e3576108dd9550611599565b946107e1565b50906108dd9491611709565b9260a0929650859194500312610bb357818111610bb3578387610914928501016112d4565b926044830135918211610bb3578661092e928401016112d4565b90606481013560a4608483013592013580151581036101df578a8a8f928f8161095a8c938a8c8e611223565b15610ae6576109b5988591610996868d877f000000000000000000000000000000000000000000000000000000000000000016978891166113e3565b51998a95869485936338ed173960e01b9a8b865242933093870161136c565b03925af1938415610adc578d94610abf575b50835160001994858201918211610aad57928e8895938f610a3f906109ee8f968599611148565b5190610a2a82886109fe8b611125565b5116987f00000000000000000000000000000000000000000000000000000000000000001680996113e3565b5198899788968795865242933093870161136c565b03925af1908115610aa3578b91610a81575b508051918201918211610a6f5790610a6891611148565b51946107f4565b634e487b7160e01b8b5260118452848bfd5b610a9d91503d808d833e610a958183610fe6565b8101906112f2565b38610a51565b8a513d8d823e3d90fd5b634e487b7160e01b8f5260118852888ffd5b610ad59194508d3d8091833e610a958183610fe6565b92386109c7565b8c513d8f823e3d90fd5b610b2198978591610996868d879b9a9b7f000000000000000000000000000000000000000000000000000000000000000016978891166113e3565b03925af1938415610adc578d94610b96575b50835160001994858201918211610aad57928e8895938f610a3f90610b5a8f968599611148565b5190610a2a8288610b6a8b611125565b5116987f00000000000000000000000000000000000000000000000000000000000000001680996113e3565b610bac9194508d3d8091833e610a958183610fe6565b9238610b33565b8c80fd5b8c5162461bcd60e51b81526020818901526009818a01526813db9b1e481c1bdbdb60ba1b6044820152606490fd5b8b51633ee5aeb560e01b81528690fd5b8a80fd5b8980fd5b8383346100eb5760c03660031901126100eb5767ffffffffffffffff908335602435838111610dad57610c339036908701610ebd565b9093604435908111610e3257610c4c9036908801610ebd565b9160a43580151590818103610e2e576001600160a01b0390610c91337f0000000000000000000000000000000000000000000000000000000000000000841614610f36565b610c9c871515610f6e565b600284101580610e23575b15610df1578015610dc4578315610db15792610d6892610d468a9b9c9593610cf68c98958f9c9d610cda610ce491610fa8565b9a5b873691611020565b610cef368d8a611020565b908b611223565b7f00000000000000000000000000000000000000000000000000000000000000001697610d328c519d8e9560a0602088015260c0870191611076565b90601f19958d878785030190870152611076565b906064356060840152608435608084015260a083015203908101895288610fe6565b823b15610dad578490610d908751988996879586946310ac2ddf60e21b8652309086016110ba565b03925af19081156105bb5750610da4575080f35b61038290610fbc565b8480fd5b634e487b7160e01b8a5260328b5260248afd5b8515610db15792610d6892610d468693610cf68d9e97610ce48e9f9d9e9a610deb90610fa8565b9a610cdc565b875162461bcd60e51b81526020818d0152600c60248201526b092dcecc2d8d2c840e0c2e8d60a31b6044820152606490fd5b506002861015610ca7565b8880fd5b8580fd5b5050346100eb57816003193601126100eb57517f00000000000000000000000000000000000000000000000000000000000000006001600160a01b03168152602090f35b8490346100eb57816003193601126100eb577f00000000000000000000000000000000000000000000000000000000000000006001600160a01b03168152602090f35b9181601f840112156101df5782359167ffffffffffffffff83116101df576020808501948460051b0101116101df57565b600435906001600160a01b03821682036101df57565b35906001600160a01b03821682036101df57565b359060ff821682036101df57565b359062ffffff821682036101df57565b15610f3d57565b60405162461bcd60e51b81526020600482015260096024820152682737ba1037bbb732b960b91b6044820152606490fd5b15610f7557565b60405162461bcd60e51b815260206004820152600b60248201526a16995c9bc8185b5bdd5b9d60aa1b6044820152606490fd5b356001600160a01b03811681036101df5790565b67ffffffffffffffff8111610fd057604052565b634e487b7160e01b600052604160045260246000fd5b90601f8019910116810190811067ffffffffffffffff821117610fd057604052565b67ffffffffffffffff8111610fd05760051b60200190565b929161102b82611008565b916110396040519384610fe6565b829481845260208094019160051b81019283116101df57905b82821061105f5750505050565b83809161106b84610f04565b815201910190611052565b91908082526020809201929160005b828110611093575050505090565b909192938280600192838060a01b036110ab89610f04565b16815201950193929101611085565b9493929060018060a01b0380911686526020921682860152604085015260a060608501528151918260a086015260005b83811061111157505050608060c082600082819588010152601f8019910116850101930152565b81810183015186820160c0015282016110ea565b8051156111325760200190565b634e487b7160e01b600052603260045260246000fd5b80518210156111325760209160051b010190565b1561116357565b60405162461bcd60e51b8152602060048201526013602482015272082e6e6cae85ee0c2e8d040dad2e6dac2e8c6d606b1b6044820152606490fd5b156111a557565b60405162461bcd60e51b8152602060048201526012602482015271446973636f6e6e656374656420706174687360701b6044820152606490fd5b156111e657565b60405162461bcd60e51b81526020600482015260156024820152740a4cae8eae4dc40c2e6e6cae840dad2e6dac2e8c6d605b1b6044820152606490fd5b9190926000146112bc576001600160a01b0390611250828061124487611125565b5116941680941461115c565b835160001994908581019081116112a65761126f849161128393611148565b51168361127b84611125565b51161461119e565b80519384019384116112a6576112a49361129c91611148565b5116146111df565b565b634e487b7160e01b600052601160045260246000fd5b916001600160a01b0390611250828061124487611125565b9080601f830112156101df578160206112ef93359101611020565b90565b60209081818403126101df5780519067ffffffffffffffff82116101df57019180601f840112156101df57825161132881611008565b936113366040519586610fe6565b818552838086019260051b8201019283116101df578301905b82821061135d575050505090565b8151815290830190830161134f565b9291909594939560a084019084526020918285015260a0604085015282518091528160c0850193019160005b8281106113b95750505050906080919460018060a01b031660608201520152565b83516001600160a01b031685529381019392810192600101611398565b919082018092116112a657565b604051636eb1769f60e11b81523060048201526001600160a01b03838116602483018190526020959184169490929091908681604481895afa90811561153157600091611502575b5090611436916113d6565b60405163095ea7b360e01b8782018181526001600160a01b039490941660248301526044808301939093529181529490918690600090611477606489610fe6565b87519082885af1903d60005190836114e3575b5050501561149a575b5050505050565b60405194850152602484015260006044840152604483526080830183811067ffffffffffffffff821117610fd0576114d99361037d916040528261153d565b3880808080611493565b919250906114f857503b15155b38808061148a565b60019150146114f0565b908782813d831161152a575b6115188183610fe6565b810103126105b857505161143661142b565b503d61150e565b6040513d6000823e3d90fd5b906000602091828151910182855af115611531576000513d61159057506001600160a01b0381163b155b61156e5750565b604051635274afe760e01b81526001600160a01b039091166004820152602490fd5b60011415611567565b90929493919460018060a01b039182811692600097848952600160205260409660ff888b205416156116d05784836115d3921694856113e3565b8651926060840184811067ffffffffffffffff8211176116bc578852600284528736602086013761160384611125565b528251600110156116a857168582015284516338ed173960e01b81529387938593909284928692849261163f924292309291906004870161136c565b03925af191821561169f57508391611685575b5080516000198101919082116116715761166d929350611148565b5190565b634e487b7160e01b84526011600452602484fd5b61169991503d8085833e610a958183610fe6565b38611652565b513d85823e3d90fd5b634e487b7160e01b89526032600452602489fd5b634e487b7160e01b8b52604160045260248bfd5b875162461bcd60e51b8152602060048201526012602482015271149bdd5d195c881b9bdd081d1c9d5cdd195960721b6044820152606490fd5b6001600160a01b0394939192908516917f00000000000000000000000000000000000000000000000000000000000000008616916117488284866113e3565b6040519561010087019287841067ffffffffffffffff851117610fd057889586946040528852836020890197168752604088019262ffffff80911684528460608a0130815260808b019242845260a08c0194855260c08c0195865260e08c019660009d8e9c8d8a526040519e8f9d8e9163414bf38960e01b835251169060040152511660248c0152511660448a0152511660648801525160848701525160a48601525160c4850152511660e4830152815a9361010492602095f191821561184457809261181457505090565b9091506020823d821161183c575b8161182f60209383610fe6565b810103126105b857505190565b3d9150611822565b604051903d90823e3d90fdfea2646970667358221220fcbb81af3f07c3b6fc7f28a9d76dece0d61b9d7601e5810357e46a9538f97b1464736f6c63430008140033","opcodes":"PUSH2 0x140 PUSH1 0x40 DUP2 DUP2 MSTORE CALLVALUE PUSH3 0x1DE JUMPI PUSH1 0x80 DUP3 PUSH3 0x1AB9 DUP1 CODESIZE SUB DUP1 SWAP2 PUSH3 0x25 DUP3 DUP6 PUSH3 0x1E3 JUMP JUMPDEST DUP4 CODECOPY DUP2 ADD SUB SLT PUSH3 0x1DE JUMPI DUP2 MLOAD PUSH1 0x1 PUSH1 0x1 PUSH1 0xA0 SHL SUB SWAP3 SWAP1 SWAP2 SWAP1 DUP4 DUP4 AND DUP1 DUP5 SUB PUSH3 0x1DE JUMPI PUSH1 0x4 SWAP1 PUSH1 0x20 SWAP1 DUP2 PUSH3 0x5D DUP2 DUP7 ADD PUSH3 0x21D JUMP JUMPDEST SWAP2 PUSH3 0x79 PUSH1 0x60 PUSH3 0x71 DUP10 DUP10 ADD PUSH3 0x21D JUMP JUMPDEST SWAP8 ADD PUSH3 0x21D JUMP JUMPDEST SWAP8 PUSH1 0x80 MSTORE DUP7 MLOAD SWAP5 DUP6 DUP1 SWAP3 PUSH4 0x26B1D5F PUSH1 0xE0 SHL DUP3 MSTORE GAS STATICCALL SWAP3 DUP4 ISZERO PUSH3 0x1D3 JUMPI SWAP1 DUP8 SWAP2 PUSH1 0x0 SWAP5 PUSH3 0x186 JUMPI JUMPDEST POP DUP2 SWAP1 DUP2 PUSH1 0x1 SWAP6 AND PUSH1 0xA0 MSTORE DUP5 PUSH1 0x0 SSTORE CALLER PUSH1 0xC0 MSTORE AND SWAP4 DUP5 PUSH1 0xE0 MSTORE AND SWAP3 PUSH2 0x100 SWAP7 DUP5 DUP9 MSTORE PUSH2 0x120 SWAP7 AND DUP7 MSTORE PUSH1 0x0 MSTORE MSTORE DUP2 PUSH1 0x0 KECCAK256 SWAP1 PUSH1 0xFF NOT SWAP2 PUSH1 0x1 DUP4 DUP3 SLOAD AND OR SWAP1 SSTORE PUSH1 0x0 MSTORE PUSH1 0x1 DUP3 PUSH1 0x0 KECCAK256 SWAP2 DUP3 SLOAD AND OR SWAP1 SSTORE MLOAD SWAP1 PUSH2 0x1886 SWAP3 DUP4 PUSH3 0x233 DUP5 CODECOPY PUSH1 0x80 MLOAD DUP4 PUSH2 0xE8E ADD MSTORE PUSH1 0xA0 MLOAD DUP4 DUP2 DUP2 PUSH2 0x285 ADD MSTORE DUP2 DUP2 PUSH2 0x4E9 ADD MSTORE DUP2 DUP2 PUSH2 0x700 ADD MSTORE PUSH2 0xCF8 ADD MSTORE PUSH1 0xC0 MLOAD DUP4 DUP2 DUP2 PUSH2 0x165 ADD MSTORE DUP2 DUP2 PUSH2 0x1FD ADD MSTORE DUP2 DUP2 PUSH2 0x2D4 ADD MSTORE DUP2 DUP2 PUSH2 0x48C ADD MSTORE PUSH2 0xC6A ADD MSTORE PUSH1 0xE0 MLOAD DUP4 DUP2 DUP2 PUSH1 0xBC ADD MSTORE DUP2 DUP2 PUSH2 0x96D ADD MSTORE PUSH2 0xB6F ADD MSTORE MLOAD DUP3 DUP2 DUP2 PUSH2 0xA03 ADD MSTORE DUP2 DUP2 PUSH2 0xAF8 ADD MSTORE PUSH2 0xE4B ADD MSTORE MLOAD DUP2 DUP2 DUP2 PUSH2 0x241 ADD MSTORE PUSH2 0x171B ADD MSTORE RETURN JUMPDEST SWAP2 POP SWAP2 SWAP3 DUP4 DUP3 DUP2 RETURNDATASIZE DUP4 GT PUSH3 0x1CB JUMPI JUMPDEST PUSH3 0x1A2 DUP2 DUP4 PUSH3 0x1E3 JUMP JUMPDEST DUP2 ADD SUB SLT PUSH3 0x1C8 JUMPI POP DUP7 PUSH1 0x1 SWAP4 SWAP3 DUP2 PUSH3 0x1BE DUP2 SWAP5 PUSH3 0x21D JUMP JUMPDEST SWAP6 POP POP SWAP1 PUSH3 0xA3 JUMP JUMPDEST DUP1 REVERT JUMPDEST POP RETURNDATASIZE PUSH3 0x196 JUMP JUMPDEST DUP6 MLOAD RETURNDATASIZE PUSH1 0x0 DUP3 RETURNDATACOPY RETURNDATASIZE SWAP1 REVERT JUMPDEST PUSH1 0x0 DUP1 REVERT JUMPDEST PUSH1 0x1F SWAP1 SWAP2 ADD PUSH1 0x1F NOT AND DUP2 ADD SWAP1 PUSH1 0x1 PUSH1 0x1 PUSH1 0x40 SHL SUB DUP3 GT SWAP1 DUP3 LT OR PUSH3 0x207 JUMPI PUSH1 0x40 MSTORE JUMP JUMPDEST PUSH4 0x4E487B71 PUSH1 0xE0 SHL PUSH1 0x0 MSTORE PUSH1 0x41 PUSH1 0x4 MSTORE PUSH1 0x24 PUSH1 0x0 REVERT JUMPDEST MLOAD SWAP1 PUSH1 0x1 PUSH1 0x1 PUSH1 0xA0 SHL SUB DUP3 AND DUP3 SUB PUSH3 0x1DE JUMPI JUMP INVALID PUSH1 0x80 PUSH1 0x40 DUP2 DUP2 MSTORE PUSH1 0x4 SWAP2 DUP3 CALLDATASIZE LT ISZERO PUSH2 0x16 JUMPI PUSH1 0x0 DUP1 REVERT JUMPDEST PUSH1 0x0 SWAP3 DUP4 CALLDATALOAD PUSH1 0xE0 SHR SWAP2 DUP3 PUSH4 0x542975C EQ PUSH2 0xE7A JUMPI POP DUP2 PUSH4 0xC24F4FA EQ PUSH2 0xE36 JUMPI DUP2 PUSH4 0xCE0CFF0 EQ PUSH2 0xBFD JUMPI DUP2 PUSH4 0x1B11D0FF EQ PUSH2 0x67D JUMPI DUP2 PUSH4 0x2D3C04C9 EQ PUSH2 0x3EE JUMPI DUP2 PUSH4 0x51CFF8D9 EQ PUSH2 0x2B4 JUMPI DUP2 PUSH4 0x7535D246 EQ PUSH2 0x270 JUMPI DUP2 PUSH4 0x7781F71F EQ PUSH2 0x22C JUMPI DUP2 PUSH4 0x8DA5CB5B EQ PUSH2 0x1E8 JUMPI DUP2 PUSH4 0x9594ACE6 EQ PUSH2 0x12C JUMPI POP DUP1 PUSH4 0xD679BF45 EQ PUSH2 0xEF JUMPI PUSH4 0xEE0AB465 EQ PUSH2 0xA9 JUMPI PUSH1 0x0 DUP1 REVERT JUMPDEST CALLVALUE PUSH2 0xEB JUMPI DUP2 PUSH1 0x3 NOT CALLDATASIZE ADD SLT PUSH2 0xEB JUMPI MLOAD PUSH32 0x0 PUSH1 0x1 PUSH1 0x1 PUSH1 0xA0 SHL SUB AND DUP2 MSTORE PUSH1 0x20 SWAP1 RETURN JUMPDEST POP DUP1 REVERT JUMPDEST POP CALLVALUE PUSH2 0xEB JUMPI PUSH1 0x20 CALLDATASIZE PUSH1 0x3 NOT ADD SLT PUSH2 0xEB JUMPI PUSH1 0x20 SWAP2 PUSH1 0xFF SWAP1 DUP3 SWAP1 PUSH1 0x1 PUSH1 0x1 PUSH1 0xA0 SHL SUB PUSH2 0x119 PUSH2 0xEEE JUMP JUMPDEST AND DUP2 MSTORE PUSH1 0x1 DUP6 MSTORE KECCAK256 SLOAD AND SWAP1 MLOAD SWAP1 ISZERO ISZERO DUP2 MSTORE RETURN JUMPDEST SWAP2 SWAP1 POP CALLVALUE PUSH2 0x1E4 JUMPI DUP1 PUSH1 0x3 NOT CALLDATASIZE ADD SLT PUSH2 0x1E4 JUMPI PUSH2 0x147 PUSH2 0xEEE JUMP JUMPDEST SWAP2 PUSH1 0x24 CALLDATALOAD SWAP3 DUP4 ISZERO ISZERO DUP1 SWAP5 SUB PUSH2 0x1DF JUMPI PUSH1 0x1 PUSH1 0x1 PUSH1 0xA0 SHL SUB SWAP1 PUSH2 0x18C CALLER PUSH32 0x0 DUP5 AND EQ PUSH2 0xF36 JUMP JUMPDEST AND SWAP1 DUP2 ISZERO PUSH2 0x1AE JUMPI POP DUP4 MSTORE PUSH1 0x1 PUSH1 0x20 MSTORE DUP3 KECCAK256 SWAP1 PUSH1 0xFF DUP1 NOT DUP4 SLOAD AND SWAP2 AND OR SWAP1 SSTORE DUP1 RETURN JUMPDEST PUSH1 0x64 SWAP1 PUSH1 0x20 DUP5 MLOAD SWAP2 PUSH3 0x461BCD PUSH1 0xE5 SHL DUP4 MSTORE DUP3 ADD MSTORE PUSH1 0xB PUSH1 0x24 DUP3 ADD MSTORE PUSH11 0x2D32B937903937BABA32B9 PUSH1 0xA9 SHL PUSH1 0x44 DUP3 ADD MSTORE REVERT JUMPDEST PUSH1 0x0 DUP1 REVERT JUMPDEST DUP3 DUP1 REVERT JUMPDEST POP POP CALLVALUE PUSH2 0xEB JUMPI DUP2 PUSH1 0x3 NOT CALLDATASIZE ADD SLT PUSH2 0xEB JUMPI MLOAD PUSH32 0x0 PUSH1 0x1 PUSH1 0x1 PUSH1 0xA0 SHL SUB AND DUP2 MSTORE PUSH1 0x20 SWAP1 RETURN JUMPDEST POP POP CALLVALUE PUSH2 0xEB JUMPI DUP2 PUSH1 0x3 NOT CALLDATASIZE ADD SLT PUSH2 0xEB JUMPI MLOAD PUSH32 0x0 PUSH1 0x1 PUSH1 0x1 PUSH1 0xA0 SHL SUB AND DUP2 MSTORE PUSH1 0x20 SWAP1 RETURN JUMPDEST POP POP CALLVALUE PUSH2 0xEB JUMPI DUP2 PUSH1 0x3 NOT CALLDATASIZE ADD SLT PUSH2 0xEB JUMPI MLOAD PUSH32 0x0 PUSH1 0x1 PUSH1 0x1 PUSH1 0xA0 SHL SUB AND DUP2 MSTORE PUSH1 0x20 SWAP1 RETURN JUMPDEST DUP4 SWAP2 POP CALLVALUE PUSH2 0xEB JUMPI PUSH1 0x20 SWAP1 DUP2 PUSH1 0x3 NOT CALLDATASIZE ADD SLT PUSH2 0x1E4 JUMPI PUSH2 0x2D2 PUSH2 0xEEE JUMP JUMPDEST PUSH32 0x0 SWAP3 SWAP1 PUSH1 0x1 PUSH1 0x1 PUSH1 0xA0 SHL SUB SWAP1 PUSH2 0x30B CALLER DUP4 DUP8 AND EQ PUSH2 0xF36 JUMP JUMPDEST DUP7 MLOAD PUSH4 0x70A08231 PUSH1 0xE0 SHL DUP2 MSTORE ADDRESS DUP2 DUP7 ADD MSTORE SWAP2 AND SWAP3 DUP3 DUP3 PUSH1 0x24 DUP2 DUP8 GAS STATICCALL SWAP2 DUP3 ISZERO PUSH2 0x3E4 JUMPI DUP7 SWAP3 PUSH2 0x3B5 JUMPI JUMPDEST POP DUP2 ISZERO PUSH2 0x385 JUMPI POP SWAP5 MLOAD PUSH4 0xA9059CBB PUSH1 0xE0 SHL SWAP2 DUP2 ADD SWAP2 SWAP1 SWAP2 MSTORE PUSH1 0x1 PUSH1 0x1 PUSH1 0xA0 SHL SUB SWAP3 SWAP1 SWAP3 AND PUSH1 0x24 DUP4 ADD MSTORE PUSH1 0x44 DUP1 DUP4 ADD SWAP5 SWAP1 SWAP5 MSTORE SWAP3 DUP2 MSTORE SWAP1 SWAP2 PUSH2 0x382 SWAP2 SWAP1 PUSH2 0x37D PUSH1 0x64 DUP4 PUSH2 0xFE6 JUMP JUMPDEST PUSH2 0x153D JUMP JUMPDEST DUP1 RETURN JUMPDEST DUP7 MLOAD PUSH3 0x461BCD PUSH1 0xE5 SHL DUP2 MSTORE SWAP1 DUP2 ADD DUP4 SWAP1 MSTORE PUSH1 0xA PUSH1 0x24 DUP3 ADD MSTORE PUSH10 0x4E6F2062616C616E6365 PUSH1 0xB0 SHL PUSH1 0x44 DUP3 ADD MSTORE PUSH1 0x64 SWAP1 REVERT JUMPDEST SWAP1 SWAP2 POP DUP3 DUP2 DUP2 RETURNDATASIZE DUP4 GT PUSH2 0x3DD JUMPI JUMPDEST PUSH2 0x3CD DUP2 DUP4 PUSH2 0xFE6 JUMP JUMPDEST DUP2 ADD SUB SLT PUSH2 0x1DF JUMPI MLOAD SWAP1 DUP8 PUSH2 0x335 JUMP JUMPDEST POP RETURNDATASIZE PUSH2 0x3C3 JUMP JUMPDEST DUP8 MLOAD RETURNDATASIZE DUP9 DUP3 RETURNDATACOPY RETURNDATASIZE SWAP1 REVERT JUMPDEST SWAP1 POP DUP3 CALLVALUE PUSH2 0x5B8 JUMPI PUSH2 0x160 SWAP3 DUP4 PUSH1 0x3 NOT CALLDATASIZE ADD SLT PUSH2 0xEB JUMPI PUSH1 0x1 PUSH1 0x1 PUSH1 0xA0 SHL SUB SWAP4 DUP4 CALLDATALOAD SWAP1 PUSH1 0x24 CALLDATALOAD SWAP1 DUP7 DUP3 AND SWAP1 DUP2 DUP4 SUB PUSH2 0x1DF JUMPI PUSH1 0x44 CALLDATALOAD SWAP2 DUP9 DUP4 AND DUP1 SWAP4 SUB PUSH2 0x1DF JUMPI PUSH1 0x64 CALLDATALOAD PUSH1 0xFF DUP2 AND DUP1 SWAP2 SUB PUSH2 0x1DF JUMPI PUSH1 0x84 CALLDATALOAD PUSH1 0xFF DUP2 AND DUP1 SWAP2 SUB PUSH2 0x1DF JUMPI PUSH1 0xA4 CALLDATALOAD DUP12 DUP2 AND DUP1 SWAP2 SUB PUSH2 0x1DF JUMPI PUSH1 0xC4 CALLDATALOAD SWAP2 DUP13 DUP4 AND DUP1 SWAP4 SUB PUSH2 0x1DF JUMPI PUSH1 0xE4 CALLDATALOAD SWAP4 PUSH3 0xFFFFFF SWAP6 DUP7 DUP7 AND DUP1 SWAP7 SUB PUSH2 0x1DF JUMPI PUSH2 0x104 CALLDATALOAD SWAP7 DUP8 AND DUP1 SWAP8 SUB PUSH2 0x1DF JUMPI PUSH2 0x4B3 DUP16 PUSH32 0x0 AND CALLER EQ PUSH2 0xF36 JUMP JUMPDEST PUSH2 0x4BE DUP12 ISZERO ISZERO PUSH2 0xF6E JUMP JUMPDEST DUP1 ISZERO ISZERO DUP1 PUSH2 0x674 JUMPI JUMPDEST ISZERO PUSH2 0x645 JUMPI DUP9 EQ PUSH2 0x615 JUMPI PUSH1 0x2 DUP2 GT ISZERO DUP1 PUSH2 0x60A JUMPI JUMPDEST ISZERO PUSH2 0x5DD JUMPI PUSH1 0x20 SWAP12 SWAP13 SWAP14 PUSH32 0x0 AND SWAP8 PUSH1 0x1 DUP13 MLOAD SWAP14 DUP15 ADD MSTORE DUP12 DUP14 ADD MSTORE PUSH1 0x60 DUP13 ADD MSTORE PUSH1 0x80 DUP12 ADD MSTORE PUSH1 0xA0 DUP11 ADD MSTORE PUSH1 0xC0 DUP10 ADD MSTORE PUSH1 0xE0 DUP9 ADD MSTORE PUSH2 0x100 DUP8 ADD MSTORE PUSH2 0x124 CALLDATALOAD PUSH2 0x120 DUP8 ADD MSTORE PUSH2 0x140 PUSH2 0x144 CALLDATALOAD DUP2 DUP9 ADD MSTORE DUP7 MSTORE DUP6 ADD SWAP5 DUP1 DUP7 LT PUSH8 0xFFFFFFFFFFFFFFFF DUP8 GT OR PUSH2 0x5C8 JUMPI DUP7 SWAP8 POP DUP6 DUP6 MSTORE DUP2 EXTCODESIZE ISZERO PUSH2 0x5C4 JUMPI DUP7 DUP7 SWAP4 DUP3 PUSH2 0x594 DUP7 SWAP5 DUP5 SWAP9 PUSH4 0x10AC2DDF PUSH1 0xE2 SHL DUP8 MSTORE PUSH2 0x15F NOT SWAP5 ADDRESS PUSH2 0x164 DUP5 ADD PUSH2 0x10BA JUMP JUMPDEST SUB ADD SWAP3 GAS CALL SWAP1 DUP2 ISZERO PUSH2 0x5BB JUMPI POP PUSH2 0x5A8 JUMPI POP RETURN JUMPDEST PUSH2 0x5B1 SWAP1 PUSH2 0xFBC JUMP JUMPDEST PUSH2 0x5B8 JUMPI DUP1 RETURN JUMPDEST DUP1 REVERT JUMPDEST MLOAD RETURNDATASIZE DUP5 DUP3 RETURNDATACOPY RETURNDATASIZE SWAP1 REVERT JUMPDEST DUP7 DUP1 REVERT JUMPDEST PUSH1 0x41 DUP9 PUSH4 0x4E487B71 PUSH1 0xE0 SHL PUSH1 0x0 MSTORE MSTORE PUSH1 0x24 PUSH1 0x0 REVERT JUMPDEST DUP11 MLOAD PUSH3 0x461BCD PUSH1 0xE5 SHL DUP2 MSTORE PUSH1 0x20 DUP2 DUP16 ADD MSTORE PUSH1 0x7 PUSH1 0x24 DUP3 ADD MSTORE PUSH7 0x84C2C840C8CAF PUSH1 0xCB SHL PUSH1 0x44 DUP3 ADD MSTORE PUSH1 0x64 SWAP1 REVERT JUMPDEST POP PUSH1 0x2 DUP3 GT ISZERO PUSH2 0x4DD JUMP JUMPDEST DUP11 MLOAD PUSH3 0x461BCD PUSH1 0xE5 SHL DUP2 MSTORE PUSH1 0x20 DUP2 DUP16 ADD MSTORE PUSH1 0xA PUSH1 0x24 DUP3 ADD MSTORE PUSH10 0x29B0B6B2903A37B5B2B7 PUSH1 0xB1 SHL PUSH1 0x44 DUP3 ADD MSTORE PUSH1 0x64 SWAP1 REVERT JUMPDEST PUSH1 0x64 DUP15 PUSH1 0x20 DUP15 MLOAD SWAP2 PUSH3 0x461BCD PUSH1 0xE5 SHL DUP4 MSTORE DUP3 ADD MSTORE PUSH1 0x9 PUSH1 0x24 DUP3 ADD MSTORE PUSH9 0x2D32B9379030B23239 PUSH1 0xB9 SHL PUSH1 0x44 DUP3 ADD MSTORE REVERT JUMPDEST POP DUP9 ISZERO ISZERO PUSH2 0x4C7 JUMP JUMPDEST SWAP1 POP CALLVALUE PUSH2 0x1E4 JUMPI PUSH1 0xA0 CALLDATASIZE PUSH1 0x3 NOT ADD SLT PUSH2 0x1E4 JUMPI PUSH2 0x698 PUSH2 0xEEE JUMP JUMPDEST SWAP1 PUSH1 0x24 DUP1 CALLDATALOAD SWAP2 PUSH1 0x1 PUSH1 0x1 PUSH1 0xA0 SHL SUB SWAP2 PUSH1 0x44 CALLDATALOAD SWAP2 PUSH1 0x64 CALLDATALOAD DUP5 DUP2 AND SUB PUSH2 0x1DF JUMPI PUSH8 0xFFFFFFFFFFFFFFFF SWAP6 PUSH1 0x84 CALLDATALOAD DUP8 DUP2 GT PUSH2 0xBF9 JUMPI CALLDATASIZE PUSH1 0x23 DUP3 ADD SLT ISZERO PUSH2 0xBF9 JUMPI DUP1 DUP4 ADD CALLDATALOAD DUP9 DUP2 GT PUSH2 0xBF5 JUMPI DUP5 DUP3 ADD SWAP1 DUP3 ADD DUP6 DUP2 ADD CALLDATASIZE DUP2 GT PUSH2 0xBB3 JUMPI PUSH1 0x2 DUP14 SLOAD EQ PUSH2 0xBE5 JUMPI PUSH1 0x2 DUP14 SSTORE DUP9 PUSH32 0x0 AND SWAP11 DUP12 CALLER SUB PUSH2 0xBB7 JUMPI DUP14 SWAP5 SWAP4 SWAP3 SWAP2 SWAP1 DUP4 CALLDATALOAD PUSH1 0x1 DUP2 SUB PUSH2 0x8EF JUMPI POP POP POP DUP3 PUSH2 0x140 SWAP2 SUB SLT PUSH2 0x1E4 JUMPI PUSH2 0x74F SWAP1 PUSH2 0xF18 JUMP JUMPDEST POP PUSH2 0x75C PUSH1 0x44 DUP3 ADD PUSH2 0xF04 JUMP JUMPDEST SWAP1 DUP4 DUP9 PUSH2 0x76B PUSH1 0x64 DUP5 ADD PUSH2 0xF18 JUMP JUMPDEST PUSH1 0xFF DUP13 PUSH2 0x77A PUSH1 0x84 DUP8 ADD PUSH2 0xF18 JUMP JUMPDEST SWAP6 PUSH2 0x787 PUSH1 0xA4 DUP3 ADD PUSH2 0xF04 JUMP JUMPDEST SWAP2 PUSH2 0x794 PUSH1 0xC4 DUP4 ADD PUSH2 0xF04 JUMP JUMPDEST SWAP3 DUP8 PUSH2 0x7A2 PUSH1 0xE4 DUP6 ADD PUSH2 0xF26 JUMP JUMPDEST SWAP5 DUP7 PUSH2 0x7B1 PUSH2 0x104 DUP8 ADD PUSH2 0xF26 JUMP JUMPDEST SWAP9 DUP11 DUP1 PUSH2 0x144 PUSH2 0x124 DUP11 ADD CALLDATALOAD SWAP10 ADD CALLDATALOAD SWAP16 AND SWAP12 DUP13 SWAP7 AND SWAP4 AND SWAP15 POP AND DUP1 ISZERO PUSH1 0x0 EQ PUSH2 0x8CC JUMPI POP PUSH2 0x7DF SWAP6 POP PUSH2 0x1599 JUMP JUMPDEST SWAP5 JUMPDEST AND DUP1 PUSH2 0x8A9 JUMPI POP POP PUSH2 0x7F2 SWAP5 PUSH2 0x1599 JUMP JUMPDEST SWAP5 JUMPDEST PUSH2 0x7FE DUP6 DUP9 PUSH2 0x13D6 JUMP JUMPDEST SWAP2 DUP3 DUP8 GT ISZERO PUSH2 0x874 JUMPI PUSH2 0x815 SWAP2 DUP4 SWAP2 AND SWAP9 DUP10 PUSH2 0x13E3 JUMP JUMPDEST DUP5 SUB SWAP4 DUP5 GT PUSH2 0x861 JUMPI PUSH1 0x20 DUP8 PUSH1 0x1 DUP11 DUP10 PUSH32 0xE03A36D920AD8DE5A978A8F1917280E202AE9193E6DC19E08EF1F6C2A051EBA4 PUSH1 0x60 DUP12 DUP12 DUP12 DUP9 MLOAD SWAP3 DUP4 MSTORE DUP10 DUP4 ADD MSTORE DUP8 DUP3 ADD MSTORE LOG2 SSTORE MLOAD PUSH1 0x1 DUP2 MSTORE RETURN JUMPDEST PUSH1 0x11 SWAP1 PUSH4 0x4E487B71 PUSH1 0xE0 SHL PUSH1 0x0 MSTORE MSTORE PUSH1 0x0 REVERT JUMPDEST DUP10 MLOAD PUSH3 0x461BCD PUSH1 0xE5 SHL DUP2 MSTORE PUSH1 0x20 DUP2 DUP7 ADD MSTORE PUSH1 0x10 DUP2 DUP8 ADD MSTORE PUSH16 0x2AB7383937B334BA30B136329030B931 PUSH1 0x81 SHL PUSH1 0x44 DUP3 ADD MSTORE PUSH1 0x64 SWAP1 REVERT JUMPDEST PUSH1 0x1 SUB PUSH2 0x8C0 JUMPI POP PUSH2 0x8BA SWAP5 PUSH2 0x1599 JUMP JUMPDEST SWAP5 PUSH2 0x7F4 JUMP JUMPDEST SWAP2 SWAP1 PUSH2 0x8BA SWAP6 POP PUSH2 0x1709 JUMP JUMPDEST PUSH1 0x1 SUB PUSH2 0x8E3 JUMPI PUSH2 0x8DD SWAP6 POP PUSH2 0x1599 JUMP JUMPDEST SWAP5 PUSH2 0x7E1 JUMP JUMPDEST POP SWAP1 PUSH2 0x8DD SWAP5 SWAP2 PUSH2 0x1709 JUMP JUMPDEST SWAP3 PUSH1 0xA0 SWAP3 SWAP7 POP DUP6 SWAP2 SWAP5 POP SUB SLT PUSH2 0xBB3 JUMPI DUP2 DUP2 GT PUSH2 0xBB3 JUMPI DUP4 DUP8 PUSH2 0x914 SWAP3 DUP6 ADD ADD PUSH2 0x12D4 JUMP JUMPDEST SWAP3 PUSH1 0x44 DUP4 ADD CALLDATALOAD SWAP2 DUP3 GT PUSH2 0xBB3 JUMPI DUP7 PUSH2 0x92E SWAP3 DUP5 ADD ADD PUSH2 0x12D4 JUMP JUMPDEST SWAP1 PUSH1 0x64 DUP2 ADD CALLDATALOAD PUSH1 0xA4 PUSH1 0x84 DUP4 ADD CALLDATALOAD SWAP3 ADD CALLDATALOAD DUP1 ISZERO ISZERO DUP2 SUB PUSH2 0x1DF JUMPI DUP11 DUP11 DUP16 SWAP3 DUP16 DUP2 PUSH2 0x95A DUP13 SWAP4 DUP11 DUP13 DUP15 PUSH2 0x1223 JUMP JUMPDEST ISZERO PUSH2 0xAE6 JUMPI PUSH2 0x9B5 SWAP9 DUP6 SWAP2 PUSH2 0x996 DUP7 DUP14 DUP8 PUSH32 0x0 AND SWAP8 DUP9 SWAP2 AND PUSH2 0x13E3 JUMP JUMPDEST MLOAD SWAP10 DUP11 SWAP6 DUP7 SWAP5 DUP6 SWAP4 PUSH4 0x38ED1739 PUSH1 0xE0 SHL SWAP11 DUP12 DUP7 MSTORE TIMESTAMP SWAP4 ADDRESS SWAP4 DUP8 ADD PUSH2 0x136C JUMP JUMPDEST SUB SWAP3 GAS CALL SWAP4 DUP5 ISZERO PUSH2 0xADC JUMPI DUP14 SWAP5 PUSH2 0xABF JUMPI JUMPDEST POP DUP4 MLOAD PUSH1 0x0 NOT SWAP5 DUP6 DUP3 ADD SWAP2 DUP3 GT PUSH2 0xAAD JUMPI SWAP3 DUP15 DUP9 SWAP6 SWAP4 DUP16 PUSH2 0xA3F SWAP1 PUSH2 0x9EE DUP16 SWAP7 DUP6 SWAP10 PUSH2 0x1148 JUMP JUMPDEST MLOAD SWAP1 PUSH2 0xA2A DUP3 DUP9 PUSH2 0x9FE DUP12 PUSH2 0x1125 JUMP JUMPDEST MLOAD AND SWAP9 PUSH32 0x0 AND DUP1 SWAP10 PUSH2 0x13E3 JUMP JUMPDEST MLOAD SWAP9 DUP10 SWAP8 DUP9 SWAP7 DUP8 SWAP6 DUP7 MSTORE TIMESTAMP SWAP4 ADDRESS SWAP4 DUP8 ADD PUSH2 0x136C JUMP JUMPDEST SUB SWAP3 GAS CALL SWAP1 DUP2 ISZERO PUSH2 0xAA3 JUMPI DUP12 SWAP2 PUSH2 0xA81 JUMPI JUMPDEST POP DUP1 MLOAD SWAP2 DUP3 ADD SWAP2 DUP3 GT PUSH2 0xA6F JUMPI SWAP1 PUSH2 0xA68 SWAP2 PUSH2 0x1148 JUMP JUMPDEST MLOAD SWAP5 PUSH2 0x7F4 JUMP JUMPDEST PUSH4 0x4E487B71 PUSH1 0xE0 SHL DUP12 MSTORE PUSH1 0x11 DUP5 MSTORE DUP5 DUP12 REVERT JUMPDEST PUSH2 0xA9D SWAP2 POP RETURNDATASIZE DUP1 DUP14 DUP4 RETURNDATACOPY PUSH2 0xA95 DUP2 DUP4 PUSH2 0xFE6 JUMP JUMPDEST DUP2 ADD SWAP1 PUSH2 0x12F2 JUMP JUMPDEST CODESIZE PUSH2 0xA51 JUMP JUMPDEST DUP11 MLOAD RETURNDATASIZE DUP14 DUP3 RETURNDATACOPY RETURNDATASIZE SWAP1 REVERT JUMPDEST PUSH4 0x4E487B71 PUSH1 0xE0 SHL DUP16 MSTORE PUSH1 0x11 DUP9 MSTORE DUP9 DUP16 REVERT JUMPDEST PUSH2 0xAD5 SWAP2 SWAP5 POP DUP14 RETURNDATASIZE DUP1 SWAP2 DUP4 RETURNDATACOPY PUSH2 0xA95 DUP2 DUP4 PUSH2 0xFE6 JUMP JUMPDEST SWAP3 CODESIZE PUSH2 0x9C7 JUMP JUMPDEST DUP13 MLOAD RETURNDATASIZE DUP16 DUP3 RETURNDATACOPY RETURNDATASIZE SWAP1 REVERT JUMPDEST PUSH2 0xB21 SWAP9 SWAP8 DUP6 SWAP2 PUSH2 0x996 DUP7 DUP14 DUP8 SWAP12 SWAP11 SWAP12 PUSH32 0x0 AND SWAP8 DUP9 SWAP2 AND PUSH2 0x13E3 JUMP JUMPDEST SUB SWAP3 GAS CALL SWAP4 DUP5 ISZERO PUSH2 0xADC JUMPI DUP14 SWAP5 PUSH2 0xB96 JUMPI JUMPDEST POP DUP4 MLOAD PUSH1 0x0 NOT SWAP5 DUP6 DUP3 ADD SWAP2 DUP3 GT PUSH2 0xAAD JUMPI SWAP3 DUP15 DUP9 SWAP6 SWAP4 DUP16 PUSH2 0xA3F SWAP1 PUSH2 0xB5A DUP16 SWAP7 DUP6 SWAP10 PUSH2 0x1148 JUMP JUMPDEST MLOAD SWAP1 PUSH2 0xA2A DUP3 DUP9 PUSH2 0xB6A DUP12 PUSH2 0x1125 JUMP JUMPDEST MLOAD AND SWAP9 PUSH32 0x0 AND DUP1 SWAP10 PUSH2 0x13E3 JUMP JUMPDEST PUSH2 0xBAC SWAP2 SWAP5 POP DUP14 RETURNDATASIZE DUP1 SWAP2 DUP4 RETURNDATACOPY PUSH2 0xA95 DUP2 DUP4 PUSH2 0xFE6 JUMP JUMPDEST SWAP3 CODESIZE PUSH2 0xB33 JUMP JUMPDEST DUP13 DUP1 REVERT JUMPDEST DUP13 MLOAD PUSH3 0x461BCD PUSH1 0xE5 SHL DUP2 MSTORE PUSH1 0x20 DUP2 DUP10 ADD MSTORE PUSH1 0x9 DUP2 DUP11 ADD MSTORE PUSH9 0x13DB9B1E481C1BDBDB PUSH1 0xBA SHL PUSH1 0x44 DUP3 ADD MSTORE PUSH1 0x64 SWAP1 REVERT JUMPDEST DUP12 MLOAD PUSH4 0x3EE5AEB5 PUSH1 0xE0 SHL DUP2 MSTORE DUP7 SWAP1 REVERT JUMPDEST DUP11 DUP1 REVERT JUMPDEST DUP10 DUP1 REVERT JUMPDEST DUP4 DUP4 CALLVALUE PUSH2 0xEB JUMPI PUSH1 0xC0 CALLDATASIZE PUSH1 0x3 NOT ADD SLT PUSH2 0xEB JUMPI PUSH8 0xFFFFFFFFFFFFFFFF SWAP1 DUP4 CALLDATALOAD PUSH1 0x24 CALLDATALOAD DUP4 DUP2 GT PUSH2 0xDAD JUMPI PUSH2 0xC33 SWAP1 CALLDATASIZE SWAP1 DUP8 ADD PUSH2 0xEBD JUMP JUMPDEST SWAP1 SWAP4 PUSH1 0x44 CALLDATALOAD SWAP1 DUP2 GT PUSH2 0xE32 JUMPI PUSH2 0xC4C SWAP1 CALLDATASIZE SWAP1 DUP9 ADD PUSH2 0xEBD JUMP JUMPDEST SWAP2 PUSH1 0xA4 CALLDATALOAD DUP1 ISZERO ISZERO SWAP1 DUP2 DUP2 SUB PUSH2 0xE2E JUMPI PUSH1 0x1 PUSH1 0x1 PUSH1 0xA0 SHL SUB SWAP1 PUSH2 0xC91 CALLER PUSH32 0x0 DUP5 AND EQ PUSH2 0xF36 JUMP JUMPDEST PUSH2 0xC9C DUP8 ISZERO ISZERO PUSH2 0xF6E JUMP JUMPDEST PUSH1 0x2 DUP5 LT ISZERO DUP1 PUSH2 0xE23 JUMPI JUMPDEST ISZERO PUSH2 0xDF1 JUMPI DUP1 ISZERO PUSH2 0xDC4 JUMPI DUP4 ISZERO PUSH2 0xDB1 JUMPI SWAP3 PUSH2 0xD68 SWAP3 PUSH2 0xD46 DUP11 SWAP12 SWAP13 SWAP6 SWAP4 PUSH2 0xCF6 DUP13 SWAP9 SWAP6 DUP16 SWAP13 SWAP14 PUSH2 0xCDA PUSH2 0xCE4 SWAP2 PUSH2 0xFA8 JUMP JUMPDEST SWAP11 JUMPDEST DUP8 CALLDATASIZE SWAP2 PUSH2 0x1020 JUMP JUMPDEST PUSH2 0xCEF CALLDATASIZE DUP14 DUP11 PUSH2 0x1020 JUMP JUMPDEST SWAP1 DUP12 PUSH2 0x1223 JUMP JUMPDEST PUSH32 0x0 AND SWAP8 PUSH2 0xD32 DUP13 MLOAD SWAP14 DUP15 SWAP6 PUSH1 0xA0 PUSH1 0x20 DUP9 ADD MSTORE PUSH1 0xC0 DUP8 ADD SWAP2 PUSH2 0x1076 JUMP JUMPDEST SWAP1 PUSH1 0x1F NOT SWAP6 DUP14 DUP8 DUP8 DUP6 SUB ADD SWAP1 DUP8 ADD MSTORE PUSH2 0x1076 JUMP JUMPDEST SWAP1 PUSH1 0x64 CALLDATALOAD PUSH1 0x60 DUP5 ADD MSTORE PUSH1 0x84 CALLDATALOAD PUSH1 0x80 DUP5 ADD MSTORE PUSH1 0xA0 DUP4 ADD MSTORE SUB SWAP1 DUP2 ADD DUP10 MSTORE DUP9 PUSH2 0xFE6 JUMP JUMPDEST DUP3 EXTCODESIZE ISZERO PUSH2 0xDAD JUMPI DUP5 SWAP1 PUSH2 0xD90 DUP8 MLOAD SWAP9 DUP10 SWAP7 DUP8 SWAP6 DUP7 SWAP5 PUSH4 0x10AC2DDF PUSH1 0xE2 SHL DUP7 MSTORE ADDRESS SWAP1 DUP7 ADD PUSH2 0x10BA JUMP JUMPDEST SUB SWAP3 GAS CALL SWAP1 DUP2 ISZERO PUSH2 0x5BB JUMPI POP PUSH2 0xDA4 JUMPI POP DUP1 RETURN JUMPDEST PUSH2 0x382 SWAP1 PUSH2 0xFBC JUMP JUMPDEST DUP5 DUP1 REVERT JUMPDEST PUSH4 0x4E487B71 PUSH1 0xE0 SHL DUP11 MSTORE PUSH1 0x32 DUP12 MSTORE PUSH1 0x24 DUP11 REVERT JUMPDEST DUP6 ISZERO PUSH2 0xDB1 JUMPI SWAP3 PUSH2 0xD68 SWAP3 PUSH2 0xD46 DUP7 SWAP4 PUSH2 0xCF6 DUP14 SWAP15 SWAP8 PUSH2 0xCE4 DUP15 SWAP16 SWAP14 SWAP15 SWAP11 PUSH2 0xDEB SWAP1 PUSH2 0xFA8 JUMP JUMPDEST SWAP11 PUSH2 0xCDC JUMP JUMPDEST DUP8 MLOAD PUSH3 0x461BCD PUSH1 0xE5 SHL DUP2 MSTORE PUSH1 0x20 DUP2 DUP14 ADD MSTORE PUSH1 0xC PUSH1 0x24 DUP3 ADD MSTORE PUSH12 0x92DCECC2D8D2C840E0C2E8D PUSH1 0xA3 SHL PUSH1 0x44 DUP3 ADD MSTORE PUSH1 0x64 SWAP1 REVERT JUMPDEST POP PUSH1 0x2 DUP7 LT ISZERO PUSH2 0xCA7 JUMP JUMPDEST DUP9 DUP1 REVERT JUMPDEST DUP6 DUP1 REVERT JUMPDEST POP POP CALLVALUE PUSH2 0xEB JUMPI DUP2 PUSH1 0x3 NOT CALLDATASIZE ADD SLT PUSH2 0xEB JUMPI MLOAD PUSH32 0x0 PUSH1 0x1 PUSH1 0x1 PUSH1 0xA0 SHL SUB AND DUP2 MSTORE PUSH1 0x20 SWAP1 RETURN JUMPDEST DUP5 SWAP1 CALLVALUE PUSH2 0xEB JUMPI DUP2 PUSH1 0x3 NOT CALLDATASIZE ADD SLT PUSH2 0xEB JUMPI PUSH32 0x0 PUSH1 0x1 PUSH1 0x1 PUSH1 0xA0 SHL SUB AND DUP2 MSTORE PUSH1 0x20 SWAP1 RETURN JUMPDEST SWAP2 DUP2 PUSH1 0x1F DUP5 ADD SLT ISZERO PUSH2 0x1DF JUMPI DUP3 CALLDATALOAD SWAP2 PUSH8 0xFFFFFFFFFFFFFFFF DUP4 GT PUSH2 0x1DF JUMPI PUSH1 0x20 DUP1 DUP6 ADD SWAP5 DUP5 PUSH1 0x5 SHL ADD ADD GT PUSH2 0x1DF JUMPI JUMP JUMPDEST PUSH1 0x4 CALLDATALOAD SWAP1 PUSH1 0x1 PUSH1 0x1 PUSH1 0xA0 SHL SUB DUP3 AND DUP3 SUB PUSH2 0x1DF JUMPI JUMP JUMPDEST CALLDATALOAD SWAP1 PUSH1 0x1 PUSH1 0x1 PUSH1 0xA0 SHL SUB DUP3 AND DUP3 SUB PUSH2 0x1DF JUMPI JUMP JUMPDEST CALLDATALOAD SWAP1 PUSH1 0xFF DUP3 AND DUP3 SUB PUSH2 0x1DF JUMPI JUMP JUMPDEST CALLDATALOAD SWAP1 PUSH3 0xFFFFFF DUP3 AND DUP3 SUB PUSH2 0x1DF JUMPI JUMP JUMPDEST ISZERO PUSH2 0xF3D JUMPI JUMP JUMPDEST PUSH1 0x40 MLOAD PUSH3 0x461BCD PUSH1 0xE5 SHL DUP2 MSTORE PUSH1 0x20 PUSH1 0x4 DUP3 ADD MSTORE PUSH1 0x9 PUSH1 0x24 DUP3 ADD MSTORE PUSH9 0x2737BA1037BBB732B9 PUSH1 0xB9 SHL PUSH1 0x44 DUP3 ADD MSTORE PUSH1 0x64 SWAP1 REVERT JUMPDEST ISZERO PUSH2 0xF75 JUMPI JUMP JUMPDEST PUSH1 0x40 MLOAD PUSH3 0x461BCD PUSH1 0xE5 SHL DUP2 MSTORE PUSH1 0x20 PUSH1 0x4 DUP3 ADD MSTORE PUSH1 0xB PUSH1 0x24 DUP3 ADD MSTORE PUSH11 0x16995C9BC8185B5BDD5B9D PUSH1 0xAA SHL PUSH1 0x44 DUP3 ADD MSTORE PUSH1 0x64 SWAP1 REVERT JUMPDEST CALLDATALOAD PUSH1 0x1 PUSH1 0x1 PUSH1 0xA0 SHL SUB DUP2 AND DUP2 SUB PUSH2 0x1DF JUMPI SWAP1 JUMP JUMPDEST PUSH8 0xFFFFFFFFFFFFFFFF DUP2 GT PUSH2 0xFD0 JUMPI PUSH1 0x40 MSTORE JUMP JUMPDEST PUSH4 0x4E487B71 PUSH1 0xE0 SHL PUSH1 0x0 MSTORE PUSH1 0x41 PUSH1 0x4 MSTORE PUSH1 0x24 PUSH1 0x0 REVERT JUMPDEST SWAP1 PUSH1 0x1F DUP1 NOT SWAP2 ADD AND DUP2 ADD SWAP1 DUP2 LT PUSH8 0xFFFFFFFFFFFFFFFF DUP3 GT OR PUSH2 0xFD0 JUMPI PUSH1 0x40 MSTORE JUMP JUMPDEST PUSH8 0xFFFFFFFFFFFFFFFF DUP2 GT PUSH2 0xFD0 JUMPI PUSH1 0x5 SHL PUSH1 0x20 ADD SWAP1 JUMP JUMPDEST SWAP3 SWAP2 PUSH2 0x102B DUP3 PUSH2 0x1008 JUMP JUMPDEST SWAP2 PUSH2 0x1039 PUSH1 0x40 MLOAD SWAP4 DUP5 PUSH2 0xFE6 JUMP JUMPDEST DUP3 SWAP5 DUP2 DUP5 MSTORE PUSH1 0x20 DUP1 SWAP5 ADD SWAP2 PUSH1 0x5 SHL DUP2 ADD SWAP3 DUP4 GT PUSH2 0x1DF JUMPI SWAP1 JUMPDEST DUP3 DUP3 LT PUSH2 0x105F JUMPI POP POP POP POP JUMP JUMPDEST DUP4 DUP1 SWAP2 PUSH2 0x106B DUP5 PUSH2 0xF04 JUMP JUMPDEST DUP2 MSTORE ADD SWAP2 ADD SWAP1 PUSH2 0x1052 JUMP JUMPDEST SWAP2 SWAP1 DUP1 DUP3 MSTORE PUSH1 0x20 DUP1 SWAP3 ADD SWAP3 SWAP2 PUSH1 0x0 JUMPDEST DUP3 DUP2 LT PUSH2 0x1093 JUMPI POP POP POP POP SWAP1 JUMP JUMPDEST SWAP1 SWAP2 SWAP3 SWAP4 DUP3 DUP1 PUSH1 0x1 SWAP3 DUP4 DUP1 PUSH1 0xA0 SHL SUB PUSH2 0x10AB DUP10 PUSH2 0xF04 JUMP JUMPDEST AND DUP2 MSTORE ADD SWAP6 ADD SWAP4 SWAP3 SWAP2 ADD PUSH2 0x1085 JUMP JUMPDEST SWAP5 SWAP4 SWAP3 SWAP1 PUSH1 0x1 DUP1 PUSH1 0xA0 SHL SUB DUP1 SWAP2 AND DUP7 MSTORE PUSH1 0x20 SWAP3 AND DUP3 DUP7 ADD MSTORE PUSH1 0x40 DUP6 ADD MSTORE PUSH1 0xA0 PUSH1 0x60 DUP6 ADD MSTORE DUP2 MLOAD SWAP2 DUP3 PUSH1 0xA0 DUP7 ADD MSTORE PUSH1 0x0 JUMPDEST DUP4 DUP2 LT PUSH2 0x1111 JUMPI POP POP POP PUSH1 0x80 PUSH1 0xC0 DUP3 PUSH1 0x0 DUP3 DUP2 SWAP6 DUP9 ADD ADD MSTORE PUSH1 0x1F DUP1 NOT SWAP2 ADD AND DUP6 ADD ADD SWAP4 ADD MSTORE JUMP JUMPDEST DUP2 DUP2 ADD DUP4 ADD MLOAD DUP7 DUP3 ADD PUSH1 0xC0 ADD MSTORE DUP3 ADD PUSH2 0x10EA JUMP JUMPDEST DUP1 MLOAD ISZERO PUSH2 0x1132 JUMPI PUSH1 0x20 ADD SWAP1 JUMP JUMPDEST PUSH4 0x4E487B71 PUSH1 0xE0 SHL PUSH1 0x0 MSTORE PUSH1 0x32 PUSH1 0x4 MSTORE PUSH1 0x24 PUSH1 0x0 REVERT JUMPDEST DUP1 MLOAD DUP3 LT ISZERO PUSH2 0x1132 JUMPI PUSH1 0x20 SWAP2 PUSH1 0x5 SHL ADD ADD SWAP1 JUMP JUMPDEST ISZERO PUSH2 0x1163 JUMPI JUMP JUMPDEST PUSH1 0x40 MLOAD PUSH3 0x461BCD PUSH1 0xE5 SHL DUP2 MSTORE PUSH1 0x20 PUSH1 0x4 DUP3 ADD MSTORE PUSH1 0x13 PUSH1 0x24 DUP3 ADD MSTORE PUSH19 0x82E6E6CAE85EE0C2E8D040DAD2E6DAC2E8C6D PUSH1 0x6B SHL PUSH1 0x44 DUP3 ADD MSTORE PUSH1 0x64 SWAP1 REVERT JUMPDEST ISZERO PUSH2 0x11A5 JUMPI JUMP JUMPDEST PUSH1 0x40 MLOAD PUSH3 0x461BCD PUSH1 0xE5 SHL DUP2 MSTORE PUSH1 0x20 PUSH1 0x4 DUP3 ADD MSTORE PUSH1 0x12 PUSH1 0x24 DUP3 ADD MSTORE PUSH18 0x446973636F6E6E6563746564207061746873 PUSH1 0x70 SHL PUSH1 0x44 DUP3 ADD MSTORE PUSH1 0x64 SWAP1 REVERT JUMPDEST ISZERO PUSH2 0x11E6 JUMPI JUMP JUMPDEST PUSH1 0x40 MLOAD PUSH3 0x461BCD PUSH1 0xE5 SHL DUP2 MSTORE PUSH1 0x20 PUSH1 0x4 DUP3 ADD MSTORE PUSH1 0x15 PUSH1 0x24 DUP3 ADD MSTORE PUSH21 0xA4CAE8EAE4DC40C2E6E6CAE840DAD2E6DAC2E8C6D PUSH1 0x5B SHL PUSH1 0x44 DUP3 ADD MSTORE PUSH1 0x64 SWAP1 REVERT JUMPDEST SWAP2 SWAP1 SWAP3 PUSH1 0x0 EQ PUSH2 0x12BC JUMPI PUSH1 0x1 PUSH1 0x1 PUSH1 0xA0 SHL SUB SWAP1 PUSH2 0x1250 DUP3 DUP1 PUSH2 0x1244 DUP8 PUSH2 0x1125 JUMP JUMPDEST MLOAD AND SWAP5 AND DUP1 SWAP5 EQ PUSH2 0x115C JUMP JUMPDEST DUP4 MLOAD PUSH1 0x0 NOT SWAP5 SWAP1 DUP6 DUP2 ADD SWAP1 DUP2 GT PUSH2 0x12A6 JUMPI PUSH2 0x126F DUP5 SWAP2 PUSH2 0x1283 SWAP4 PUSH2 0x1148 JUMP JUMPDEST MLOAD AND DUP4 PUSH2 0x127B DUP5 PUSH2 0x1125 JUMP JUMPDEST MLOAD AND EQ PUSH2 0x119E JUMP JUMPDEST DUP1 MLOAD SWAP4 DUP5 ADD SWAP4 DUP5 GT PUSH2 0x12A6 JUMPI PUSH2 0x12A4 SWAP4 PUSH2 0x129C SWAP2 PUSH2 0x1148 JUMP JUMPDEST MLOAD AND EQ PUSH2 0x11DF JUMP JUMPDEST JUMP JUMPDEST PUSH4 0x4E487B71 PUSH1 0xE0 SHL PUSH1 0x0 MSTORE PUSH1 0x11 PUSH1 0x4 MSTORE PUSH1 0x24 PUSH1 0x0 REVERT JUMPDEST SWAP2 PUSH1 0x1 PUSH1 0x1 PUSH1 0xA0 SHL SUB SWAP1 PUSH2 0x1250 DUP3 DUP1 PUSH2 0x1244 DUP8 PUSH2 0x1125 JUMP JUMPDEST SWAP1 DUP1 PUSH1 0x1F DUP4 ADD SLT ISZERO PUSH2 0x1DF JUMPI DUP2 PUSH1 0x20 PUSH2 0x12EF SWAP4 CALLDATALOAD SWAP2 ADD PUSH2 0x1020 JUMP JUMPDEST SWAP1 JUMP JUMPDEST PUSH1 0x20 SWAP1 DUP2 DUP2 DUP5 SUB SLT PUSH2 0x1DF JUMPI DUP1 MLOAD SWAP1 PUSH8 0xFFFFFFFFFFFFFFFF DUP3 GT PUSH2 0x1DF JUMPI ADD SWAP2 DUP1 PUSH1 0x1F DUP5 ADD SLT ISZERO PUSH2 0x1DF JUMPI DUP3 MLOAD PUSH2 0x1328 DUP2 PUSH2 0x1008 JUMP JUMPDEST SWAP4 PUSH2 0x1336 PUSH1 0x40 MLOAD SWAP6 DUP7 PUSH2 0xFE6 JUMP JUMPDEST DUP2 DUP6 MSTORE DUP4 DUP1 DUP7 ADD SWAP3 PUSH1 0x5 SHL DUP3 ADD ADD SWAP3 DUP4 GT PUSH2 0x1DF JUMPI DUP4 ADD SWAP1 JUMPDEST DUP3 DUP3 LT PUSH2 0x135D JUMPI POP POP POP POP SWAP1 JUMP JUMPDEST DUP2 MLOAD DUP2 MSTORE SWAP1 DUP4 ADD SWAP1 DUP4 ADD PUSH2 0x134F JUMP JUMPDEST SWAP3 SWAP2 SWAP1 SWAP6 SWAP5 SWAP4 SWAP6 PUSH1 0xA0 DUP5 ADD SWAP1 DUP5 MSTORE PUSH1 0x20 SWAP2 DUP3 DUP6 ADD MSTORE PUSH1 0xA0 PUSH1 0x40 DUP6 ADD MSTORE DUP3 MLOAD DUP1 SWAP2 MSTORE DUP2 PUSH1 0xC0 DUP6 ADD SWAP4 ADD SWAP2 PUSH1 0x0 JUMPDEST DUP3 DUP2 LT PUSH2 0x13B9 JUMPI POP POP POP POP SWAP1 PUSH1 0x80 SWAP2 SWAP5 PUSH1 0x1 DUP1 PUSH1 0xA0 SHL SUB AND PUSH1 0x60 DUP3 ADD MSTORE ADD MSTORE JUMP JUMPDEST DUP4 MLOAD PUSH1 0x1 PUSH1 0x1 PUSH1 0xA0 SHL SUB AND DUP6 MSTORE SWAP4 DUP2 ADD SWAP4 SWAP3 DUP2 ADD SWAP3 PUSH1 0x1 ADD PUSH2 0x1398 JUMP JUMPDEST SWAP2 SWAP1 DUP3 ADD DUP1 SWAP3 GT PUSH2 0x12A6 JUMPI JUMP JUMPDEST PUSH1 0x40 MLOAD PUSH4 0x6EB1769F PUSH1 0xE1 SHL DUP2 MSTORE ADDRESS PUSH1 0x4 DUP3 ADD MSTORE PUSH1 0x1 PUSH1 0x1 PUSH1 0xA0 SHL SUB DUP4 DUP2 AND PUSH1 0x24 DUP4 ADD DUP2 SWAP1 MSTORE PUSH1 0x20 SWAP6 SWAP2 DUP5 AND SWAP5 SWAP1 SWAP3 SWAP1 SWAP2 SWAP1 DUP7 DUP2 PUSH1 0x44 DUP2 DUP10 GAS STATICCALL SWAP1 DUP2 ISZERO PUSH2 0x1531 JUMPI PUSH1 0x0 SWAP2 PUSH2 0x1502 JUMPI JUMPDEST POP SWAP1 PUSH2 0x1436 SWAP2 PUSH2 0x13D6 JUMP JUMPDEST PUSH1 0x40 MLOAD PUSH4 0x95EA7B3 PUSH1 0xE0 SHL DUP8 DUP3 ADD DUP2 DUP2 MSTORE PUSH1 0x1 PUSH1 0x1 PUSH1 0xA0 SHL SUB SWAP5 SWAP1 SWAP5 AND PUSH1 0x24 DUP4 ADD MSTORE PUSH1 0x44 DUP1 DUP4 ADD SWAP4 SWAP1 SWAP4 MSTORE SWAP2 DUP2 MSTORE SWAP5 SWAP1 SWAP2 DUP7 SWAP1 PUSH1 0x0 SWAP1 PUSH2 0x1477 PUSH1 0x64 DUP10 PUSH2 0xFE6 JUMP JUMPDEST DUP8 MLOAD SWAP1 DUP3 DUP9 GAS CALL SWAP1 RETURNDATASIZE PUSH1 0x0 MLOAD SWAP1 DUP4 PUSH2 0x14E3 JUMPI JUMPDEST POP POP POP ISZERO PUSH2 0x149A JUMPI JUMPDEST POP POP POP POP POP JUMP JUMPDEST PUSH1 0x40 MLOAD SWAP5 DUP6 ADD MSTORE PUSH1 0x24 DUP5 ADD MSTORE PUSH1 0x0 PUSH1 0x44 DUP5 ADD MSTORE PUSH1 0x44 DUP4 MSTORE PUSH1 0x80 DUP4 ADD DUP4 DUP2 LT PUSH8 0xFFFFFFFFFFFFFFFF DUP3 GT OR PUSH2 0xFD0 JUMPI PUSH2 0x14D9 SWAP4 PUSH2 0x37D SWAP2 PUSH1 0x40 MSTORE DUP3 PUSH2 0x153D JUMP JUMPDEST CODESIZE DUP1 DUP1 DUP1 DUP1 PUSH2 0x1493 JUMP JUMPDEST SWAP2 SWAP3 POP SWAP1 PUSH2 0x14F8 JUMPI POP EXTCODESIZE ISZERO ISZERO JUMPDEST CODESIZE DUP1 DUP1 PUSH2 0x148A JUMP JUMPDEST PUSH1 0x1 SWAP2 POP EQ PUSH2 0x14F0 JUMP JUMPDEST SWAP1 DUP8 DUP3 DUP2 RETURNDATASIZE DUP4 GT PUSH2 0x152A JUMPI JUMPDEST PUSH2 0x1518 DUP2 DUP4 PUSH2 0xFE6 JUMP JUMPDEST DUP2 ADD SUB SLT PUSH2 0x5B8 JUMPI POP MLOAD PUSH2 0x1436 PUSH2 0x142B JUMP JUMPDEST POP RETURNDATASIZE PUSH2 0x150E JUMP JUMPDEST PUSH1 0x40 MLOAD RETURNDATASIZE PUSH1 0x0 DUP3 RETURNDATACOPY RETURNDATASIZE SWAP1 REVERT JUMPDEST SWAP1 PUSH1 0x0 PUSH1 0x20 SWAP2 DUP3 DUP2 MLOAD SWAP2 ADD DUP3 DUP6 GAS CALL ISZERO PUSH2 0x1531 JUMPI PUSH1 0x0 MLOAD RETURNDATASIZE PUSH2 0x1590 JUMPI POP PUSH1 0x1 PUSH1 0x1 PUSH1 0xA0 SHL SUB DUP2 AND EXTCODESIZE ISZERO JUMPDEST PUSH2 0x156E JUMPI POP JUMP JUMPDEST PUSH1 0x40 MLOAD PUSH4 0x5274AFE7 PUSH1 0xE0 SHL DUP2 MSTORE PUSH1 0x1 PUSH1 0x1 PUSH1 0xA0 SHL SUB SWAP1 SWAP2 AND PUSH1 0x4 DUP3 ADD MSTORE PUSH1 0x24 SWAP1 REVERT JUMPDEST PUSH1 0x1 EQ ISZERO PUSH2 0x1567 JUMP JUMPDEST SWAP1 SWAP3 SWAP5 SWAP4 SWAP2 SWAP5 PUSH1 0x1 DUP1 PUSH1 0xA0 SHL SUB SWAP2 DUP3 DUP2 AND SWAP3 PUSH1 0x0 SWAP8 DUP5 DUP10 MSTORE PUSH1 0x1 PUSH1 0x20 MSTORE PUSH1 0x40 SWAP7 PUSH1 0xFF DUP9 DUP12 KECCAK256 SLOAD AND ISZERO PUSH2 0x16D0 JUMPI DUP5 DUP4 PUSH2 0x15D3 SWAP3 AND SWAP5 DUP6 PUSH2 0x13E3 JUMP JUMPDEST DUP7 MLOAD SWAP3 PUSH1 0x60 DUP5 ADD DUP5 DUP2 LT PUSH8 0xFFFFFFFFFFFFFFFF DUP3 GT OR PUSH2 0x16BC JUMPI DUP9 MSTORE PUSH1 0x2 DUP5 MSTORE DUP8 CALLDATASIZE PUSH1 0x20 DUP7 ADD CALLDATACOPY PUSH2 0x1603 DUP5 PUSH2 0x1125 JUMP JUMPDEST MSTORE DUP3 MLOAD PUSH1 0x1 LT ISZERO PUSH2 0x16A8 JUMPI AND DUP6 DUP3 ADD MSTORE DUP5 MLOAD PUSH4 0x38ED1739 PUSH1 0xE0 SHL DUP2 MSTORE SWAP4 DUP8 SWAP4 DUP6 SWAP4 SWAP1 SWAP3 DUP5 SWAP3 DUP7 SWAP3 DUP5 SWAP3 PUSH2 0x163F SWAP3 TIMESTAMP SWAP3 ADDRESS SWAP3 SWAP2 SWAP1 PUSH1 0x4 DUP8 ADD PUSH2 0x136C JUMP JUMPDEST SUB SWAP3 GAS CALL SWAP2 DUP3 ISZERO PUSH2 0x169F JUMPI POP DUP4 SWAP2 PUSH2 0x1685 JUMPI JUMPDEST POP DUP1 MLOAD PUSH1 0x0 NOT DUP2 ADD SWAP2 SWAP1 DUP3 GT PUSH2 0x1671 JUMPI PUSH2 0x166D SWAP3 SWAP4 POP PUSH2 0x1148 JUMP JUMPDEST MLOAD SWAP1 JUMP JUMPDEST PUSH4 0x4E487B71 PUSH1 0xE0 SHL DUP5 MSTORE PUSH1 0x11 PUSH1 0x4 MSTORE PUSH1 0x24 DUP5 REVERT JUMPDEST PUSH2 0x1699 SWAP2 POP RETURNDATASIZE DUP1 DUP6 DUP4 RETURNDATACOPY PUSH2 0xA95 DUP2 DUP4 PUSH2 0xFE6 JUMP JUMPDEST CODESIZE PUSH2 0x1652 JUMP JUMPDEST MLOAD RETURNDATASIZE DUP6 DUP3 RETURNDATACOPY RETURNDATASIZE SWAP1 REVERT JUMPDEST PUSH4 0x4E487B71 PUSH1 0xE0 SHL DUP10 MSTORE PUSH1 0x32 PUSH1 0x4 MSTORE PUSH1 0x24 DUP10 REVERT JUMPDEST PUSH4 0x4E487B71 PUSH1 0xE0 SHL DUP12 MSTORE PUSH1 0x41 PUSH1 0x4 MSTORE PUSH1 0x24 DUP12 REVERT JUMPDEST DUP8 MLOAD PUSH3 0x461BCD PUSH1 0xE5 SHL DUP2 MSTORE PUSH1 0x20 PUSH1 0x4 DUP3 ADD MSTORE PUSH1 0x12 PUSH1 0x24 DUP3 ADD MSTORE PUSH18 0x149BDD5D195C881B9BDD081D1C9D5CDD1959 PUSH1 0x72 SHL PUSH1 0x44 DUP3 ADD MSTORE PUSH1 0x64 SWAP1 REVERT JUMPDEST PUSH1 0x1 PUSH1 0x1 PUSH1 0xA0 SHL SUB SWAP5 SWAP4 SWAP2 SWAP3 SWAP1 DUP6 AND SWAP2 PUSH32 0x0 DUP7 AND SWAP2 PUSH2 0x1748 DUP3 DUP5 DUP7 PUSH2 0x13E3 JUMP JUMPDEST PUSH1 0x40 MLOAD SWAP6 PUSH2 0x100 DUP8 ADD SWAP3 DUP8 DUP5 LT PUSH8 0xFFFFFFFFFFFFFFFF DUP6 GT OR PUSH2 0xFD0 JUMPI DUP9 SWAP6 DUP7 SWAP5 PUSH1 0x40 MSTORE DUP9 MSTORE DUP4 PUSH1 0x20 DUP10 ADD SWAP8 AND DUP8 MSTORE PUSH1 0x40 DUP9 ADD SWAP3 PUSH3 0xFFFFFF DUP1 SWAP2 AND DUP5 MSTORE DUP5 PUSH1 0x60 DUP11 ADD ADDRESS DUP2 MSTORE PUSH1 0x80 DUP12 ADD SWAP3 TIMESTAMP DUP5 MSTORE PUSH1 0xA0 DUP13 ADD SWAP5 DUP6 MSTORE PUSH1 0xC0 DUP13 ADD SWAP6 DUP7 MSTORE PUSH1 0xE0 DUP13 ADD SWAP7 PUSH1 0x0 SWAP14 DUP15 SWAP13 DUP14 DUP11 MSTORE PUSH1 0x40 MLOAD SWAP15 DUP16 SWAP14 DUP15 SWAP2 PUSH4 0x414BF389 PUSH1 0xE0 SHL DUP4 MSTORE MLOAD AND SWAP1 PUSH1 0x4 ADD MSTORE MLOAD AND PUSH1 0x24 DUP13 ADD MSTORE MLOAD AND PUSH1 0x44 DUP11 ADD MSTORE MLOAD AND PUSH1 0x64 DUP9 ADD MSTORE MLOAD PUSH1 0x84 DUP8 ADD MSTORE MLOAD PUSH1 0xA4 DUP7 ADD MSTORE MLOAD PUSH1 0xC4 DUP6 ADD MSTORE MLOAD AND PUSH1 0xE4 DUP4 ADD MSTORE DUP2 GAS SWAP4 PUSH2 0x104 SWAP3 PUSH1 0x20 SWAP6 CALL SWAP2 DUP3 ISZERO PUSH2 0x1844 JUMPI DUP1 SWAP3 PUSH2 0x1814 JUMPI POP POP SWAP1 JUMP JUMPDEST SWAP1 SWAP2 POP PUSH1 0x20 DUP3 RETURNDATASIZE DUP3 GT PUSH2 0x183C JUMPI JUMPDEST DUP2 PUSH2 0x182F PUSH1 0x20 SWAP4 DUP4 PUSH2 0xFE6 JUMP JUMPDEST DUP2 ADD SUB SLT PUSH2 0x5B8 JUMPI POP MLOAD SWAP1 JUMP JUMPDEST RETURNDATASIZE SWAP2 POP PUSH2 0x1822 JUMP JUMPDEST PUSH1 0x40 MLOAD SWAP1 RETURNDATASIZE SWAP1 DUP3 RETURNDATACOPY RETURNDATASIZE SWAP1 REVERT INVALID LOG2 PUSH5 0x6970667358 0x22 SLT KECCAK256 0xFC 0xBB DUP2 0xAF EXTCODEHASH SMOD 0xC3 0xB6 0xFC PUSH32 0x28A9D76DECE0D61B9D7601E5810357E46A9538F97B1464736F6C634300081400 CALLER "},"methodIdentifiers":{"ADDRESSES_PROVIDER()":"0542975c","POOL()":"7535d246","SUSHI_ROUTER()":"0c24f4fa","UNI_ROUTER()":"ee0ab465","UNI_V3_ROUTER()":"7781f71f","executeFlashLoan(uint256,address[],address[],uint256,uint256,bool)":"0ce0cff0","executeFlashLoanFlexible(uint256,address,address,uint8,uint8,address,address,uint24,uint24,uint256,uint256)":"2d3c04c9","executeOperation(address,uint256,uint256,address,bytes)":"1b11d0ff","owner()":"8da5cb5b","setTrustedV2Router(address,bool)":"9594ace6","trustedV2Router(address)":"d679bf45","withdraw(address)":"51cff8d9"}}}}}