{
  "_format": "hh-sol-artifact-1",
  "contractName": "ArbExecutor",
  "sourceName": "contracts/ArbExecutor.sol",
  "abi": [
    {
      "inputs": [
        {
          "internalType": "contract IPoolAddressesProvider",
          "name": "provider",
          "type": "address"
        },
        {
          "internalType": "address",
          "name": "_uniRouter",
          "type": "address"
        },
        {
          "internalType": "address",
          "name": "_sushiRouter",
          "type": "address"
        },
        {
          "internalType": "address",
          "name": "_uniV3Router",
          "type": "address"
        }
      ],
      "stateMutability": "nonpayable",
      "type": "constructor"
    },
    {
      "inputs": [],
      "name": "ReentrancyGuardReentrantCall",
      "type": "error"
    },
    {
      "inputs": [
        {
          "internalType": "address",
          "name": "token",
          "type": "address"
        }
      ],
      "name": "SafeERC20FailedOperation",
      "type": "error"
    },
    {
      "anonymous": false,
      "inputs": [
        {
          "indexed": true,
          "internalType": "address",
          "name": "asset",
          "type": "address"
        },
        {
          "indexed": false,
          "internalType": "uint256",
          "name": "amount",
          "type": "uint256"
        },
        {
          "indexed": false,
          "internalType": "uint256",
          "name": "premium",
          "type": "uint256"
        },
        {
          "indexed": false,
          "internalType": "uint256",
          "name": "profit",
          "type": "uint256"
        }
      ],
      "name": "FlashLoanExecuted",
      "type": "event"
    },
    {
      "inputs": [],
      "name": "ADDRESSES_PROVIDER",
      "outputs": [
        {
          "internalType": "contract IPoolAddressesProvider",
          "name": "",
          "type": "address"
        }
      ],
      "stateMutability": "view",
      "type": "function"
    },
    {
      "inputs": [],
      "name": "POOL",
      "outputs": [
        {
          "internalType": "contract IPool",
          "name": "",
          "type": "address"
        }
      ],
      "stateMutability": "view",
      "type": "function"
    },
    {
      "inputs": [],
      "name": "SUSHI_ROUTER",
      "outputs": [
        {
          "internalType": "contract IUniswapV2Router02",
          "name": "",
          "type": "address"
        }
      ],
      "stateMutability": "view",
      "type": "function"
    },
    {
      "inputs": [],
      "name": "UNI_ROUTER",
      "outputs": [
        {
          "internalType": "contract IUniswapV2Router02",
          "name": "",
          "type": "address"
        }
      ],
      "stateMutability": "view",
      "type": "function"
    },
    {
      "inputs": [],
      "name": "UNI_V3_ROUTER",
      "outputs": [
        {
          "internalType": "contract ISwapRouterV3",
          "name": "",
          "type": "address"
        }
      ],
      "stateMutability": "view",
      "type": "function"
    },
    {
      "inputs": [
        {
          "internalType": "uint256",
          "name": "amount",
          "type": "uint256"
        },
        {
          "internalType": "address[]",
          "name": "pathUni",
          "type": "address[]"
        },
        {
          "internalType": "address[]",
          "name": "pathSushi",
          "type": "address[]"
        },
        {
          "internalType": "uint256",
          "name": "minOutUni",
          "type": "uint256"
        },
        {
          "internalType": "uint256",
          "name": "minOutSushi",
          "type": "uint256"
        },
        {
          "internalType": "bool",
          "name": "uniFirst",
          "type": "bool"
        }
      ],
      "name": "executeFlashLoan",
      "outputs": [],
      "stateMutability": "nonpayable",
      "type": "function"
    },
    {
      "inputs": [
        {
          "internalType": "uint256",
          "name": "amount",
          "type": "uint256"
        },
        {
          "internalType": "address",
          "name": "asset",
          "type": "address"
        },
        {
          "internalType": "address",
          "name": "middleToken",
          "type": "address"
        },
        {
          "internalType": "uint8",
          "name": "firstDex",
          "type": "uint8"
        },
        {
          "internalType": "uint8",
          "name": "secondDex",
          "type": "uint8"
        },
        {
          "internalType": "address",
          "name": "firstV2Router",
          "type": "address"
        },
        {
          "internalType": "address",
          "name": "secondV2Router",
          "type": "address"
        },
        {
          "internalType": "uint24",
          "name": "firstFee",
          "type": "uint24"
        },
        {
          "internalType": "uint24",
          "name": "secondFee",
          "type": "uint24"
        },
        {
          "internalType": "uint256",
          "name": "minOutFirst",
          "type": "uint256"
        },
        {
          "internalType": "uint256",
          "name": "minOutSecond",
          "type": "uint256"
        }
      ],
      "name": "executeFlashLoanFlexible",
      "outputs": [],
      "stateMutability": "nonpayable",
      "type": "function"
    },
    {
      "inputs": [
        {
          "internalType": "address",
          "name": "asset",
          "type": "address"
        },
        {
          "internalType": "uint256",
          "name": "amount",
          "type": "uint256"
        },
        {
          "internalType": "uint256",
          "name": "premium",
          "type": "uint256"
        },
        {
          "internalType": "address",
          "name": "",
          "type": "address"
        },
        {
          "internalType": "bytes",
          "name": "params",
          "type": "bytes"
        }
      ],
      "name": "executeOperation",
      "outputs": [
        {
          "internalType": "bool",
          "name": "",
          "type": "bool"
        }
      ],
      "stateMutability": "nonpayable",
      "type": "function"
    },
    {
      "inputs": [],
      "name": "owner",
      "outputs": [
        {
          "internalType": "address",
          "name": "",
          "type": "address"
        }
      ],
      "stateMutability": "view",
      "type": "function"
    },
    {
      "inputs": [
        {
          "internalType": "address",
          "name": "router",
          "type": "address"
        },
        {
          "internalType": "bool",
          "name": "allowed",
          "type": "bool"
        }
      ],
      "name": "setTrustedV2Router",
      "outputs": [],
      "stateMutability": "nonpayable",
      "type": "function"
    },
    {
      "inputs": [
        {
          "internalType": "address",
          "name": "",
          "type": "address"
        }
      ],
      "name": "trustedV2Router",
      "outputs": [
        {
          "internalType": "bool",
          "name": "",
          "type": "bool"
        }
      ],
      "stateMutability": "view",
      "type": "function"
    },
    {
      "inputs": [
        {
          "internalType": "address",
          "name": "token",
          "type": "address"
        }
      ],
      "name": "withdraw",
      "outputs": [],
      "stateMutability": "nonpayable",
      "type": "function"
    }
  ],
  "bytecode": "0x610140604081815234620001de5760808262001ab98038038091620000258285620001e3565b833981010312620001de5781516001600160a01b0392909190838316808403620001de57600490602090816200005d8186016200021d565b91620000796060620000718989016200021d565b97016200021d565b9760805286519485809263026b1d5f60e01b82525afa928315620001d35790879160009462000186575b508190816001951660a052846000553360c05216938460e0521692610100968488526101209616865260005252816000209060ff1991600183825416179055600052600182600020918254161790555190611886928362000233843960805183610e8e015260a051838181610285015281816104e9015281816107000152610cf8015260c051838181610165015281816101fd015281816102d40152818161048c0152610c6a015260e05183818160bc0152818161096d0152610b6f015251828181610a0301528181610af80152610e4b015251818181610241015261171b0152f35b915091928382813d8311620001cb575b620001a28183620001e3565b81010312620001c85750866001939281620001be81946200021d565b95505090620000a3565b80fd5b503d62000196565b85513d6000823e3d90fd5b600080fd5b601f909101601f19168101906001600160401b038211908210176200020757604052565b634e487b7160e01b600052604160045260246000fd5b51906001600160a01b0382168203620001de5756fe608060408181526004918236101561001657600080fd5b600092833560e01c9182630542975c14610e7a575081630c24f4fa14610e365781630ce0cff014610bfd5781631b11d0ff1461067d5781632d3c04c9146103ee57816351cff8d9146102b45781637535d246146102705781637781f71f1461022c5781638da5cb5b146101e85781639594ace61461012c57508063d679bf45146100ef5763ee0ab465146100a957600080fd5b346100eb57816003193601126100eb57517f00000000000000000000000000000000000000000000000000000000000000006001600160a01b03168152602090f35b5080fd5b50346100eb5760203660031901126100eb5760209160ff9082906001600160a01b03610119610eee565b1681526001855220541690519015158152f35b919050346101e457806003193601126101e457610147610eee565b91602435928315158094036101df576001600160a01b039061018c337f0000000000000000000000000000000000000000000000000000000000000000841614610f36565b169081156101ae57508352600160205282209060ff8019835416911617905580f35b606490602084519162461bcd60e51b8352820152600b60248201526a2d32b937903937baba32b960a91b6044820152fd5b600080fd5b8280fd5b5050346100eb57816003193601126100eb57517f00000000000000000000000000000000000000000000000000000000000000006001600160a01b03168152602090f35b5050346100eb57816003193601126100eb57517f00000000000000000000000000000000000000000000000000000000000000006001600160a01b03168152602090f35b5050346100eb57816003193601126100eb57517f00000000000000000000000000000000000000000000000000000000000000006001600160a01b03168152602090f35b839150346100eb57602090816003193601126101e4576102d2610eee565b7f000000000000000000000000000000000000000000000000000000000000000092906001600160a01b039061030b3383871614610f36565b86516370a0823160e01b815230818601529116928282602481875afa9182156103e45786926103b5575b5081156103855750945163a9059cbb60e01b918101919091526001600160a01b039290921660248301526044808301949094529281529091610382919061037d606483610fe6565b61153d565b80f35b865162461bcd60e51b8152908101839052600a6024820152694e6f2062616c616e636560b01b6044820152606490fd5b9091508281813d83116103dd575b6103cd8183610fe6565b810103126101df57519087610335565b503d6103c3565b87513d88823e3d90fd5b905082346105b85761016092836003193601126100eb576001600160a01b039383359060243590868216908183036101df57604435918883168093036101df5760643560ff81168091036101df5760843560ff81168091036101df5760a4358b81168091036101df5760c435918c83168093036101df5760e4359362ffffff958686168096036101df57610104359687168097036101df576104b38f7f0000000000000000000000000000000000000000000000000000000000000000163314610f36565b6104be8b1515610f6e565b80151580610674575b156106455788146106155760028111158061060a575b156105dd5760209b9c9d7f0000000000000000000000000000000000000000000000000000000000000000169760018c519d8e01528b8d015260608c015260808b015260a08a015260c089015260e0880152610100870152610124356101208701526101406101443581880152865285019480861067ffffffffffffffff8711176105c857869750858552813b156105c45786869382610594869484986310ac2ddf60e21b875261015f19943061016484016110ba565b0301925af19081156105bb57506105a85750f35b6105b190610fbc565b6105b85780f35b80fd5b513d84823e3d90fd5b8680fd5b604188634e487b7160e01b6000525260246000fd5b8a5162461bcd60e51b81526020818f01526007602482015266084c2c840c8caf60cb1b6044820152606490fd5b5060028211156104dd565b8a5162461bcd60e51b81526020818f0152600a60248201526929b0b6b2903a37b5b2b760b11b6044820152606490fd5b60648e60208e519162461bcd60e51b835282015260096024820152682d32b9379030b2323960b91b6044820152fd5b508815156104c7565b9050346101e45760a03660031901126101e457610698610eee565b9060248035916001600160a01b039160443591606435848116036101df5767ffffffffffffffff95608435878111610bf95736602382011215610bf95780830135888111610bf557848201908201858101368111610bb35760028d5414610be55760028d55887f0000000000000000000000000000000000000000000000000000000000000000169a8b3303610bb7578d94939291908335600181036108ef57505050826101409103126101e45761074f90610f18565b5061075c60448201610f04565b90838861076b60648401610f18565b60ff8c61077a60848701610f18565b9561078760a48201610f04565b9161079460c48301610f04565b92876107a260e48501610f26565b94866107b16101048701610f26565b988a806101446101248a01359901359f169b8c961693169e501680156000146108cc57506107df9550611599565b945b16806108a95750506107f294611599565b945b6107fe85886113d6565b9182871115610874576108159183911698896113e3565b84039384116108615760208760018a897fe03a36d920ad8de5a978a8f1917280e202ae9193e6dc19e08ef1f6c2a051eba460608b8b8b88519283528983015287820152a2555160018152f35b601190634e487b7160e01b600052526000fd5b895162461bcd60e51b81526020818601526010818701526f2ab7383937b334ba30b136329030b93160811b6044820152606490fd5b6001036108c057506108ba94611599565b946107f4565b91906108ba9550611709565b6001036108e3576108dd9550611599565b946107e1565b50906108dd9491611709565b9260a0929650859194500312610bb357818111610bb3578387610914928501016112d4565b926044830135918211610bb3578661092e928401016112d4565b90606481013560a4608483013592013580151581036101df578a8a8f928f8161095a8c938a8c8e611223565b15610ae6576109b5988591610996868d877f000000000000000000000000000000000000000000000000000000000000000016978891166113e3565b51998a95869485936338ed173960e01b9a8b865242933093870161136c565b03925af1938415610adc578d94610abf575b50835160001994858201918211610aad57928e8895938f610a3f906109ee8f968599611148565b5190610a2a82886109fe8b611125565b5116987f00000000000000000000000000000000000000000000000000000000000000001680996113e3565b5198899788968795865242933093870161136c565b03925af1908115610aa3578b91610a81575b508051918201918211610a6f5790610a6891611148565b51946107f4565b634e487b7160e01b8b5260118452848bfd5b610a9d91503d808d833e610a958183610fe6565b8101906112f2565b38610a51565b8a513d8d823e3d90fd5b634e487b7160e01b8f5260118852888ffd5b610ad59194508d3d8091833e610a958183610fe6565b92386109c7565b8c513d8f823e3d90fd5b610b2198978591610996868d879b9a9b7f000000000000000000000000000000000000000000000000000000000000000016978891166113e3565b03925af1938415610adc578d94610b96575b50835160001994858201918211610aad57928e8895938f610a3f90610b5a8f968599611148565b5190610a2a8288610b6a8b611125565b5116987f00000000000000000000000000000000000000000000000000000000000000001680996113e3565b610bac9194508d3d8091833e610a958183610fe6565b9238610b33565b8c80fd5b8c5162461bcd60e51b81526020818901526009818a01526813db9b1e481c1bdbdb60ba1b6044820152606490fd5b8b51633ee5aeb560e01b81528690fd5b8a80fd5b8980fd5b8383346100eb5760c03660031901126100eb5767ffffffffffffffff908335602435838111610dad57610c339036908701610ebd565b9093604435908111610e3257610c4c9036908801610ebd565b9160a43580151590818103610e2e576001600160a01b0390610c91337f0000000000000000000000000000000000000000000000000000000000000000841614610f36565b610c9c871515610f6e565b600284101580610e23575b15610df1578015610dc4578315610db15792610d6892610d468a9b9c9593610cf68c98958f9c9d610cda610ce491610fa8565b9a5b873691611020565b610cef368d8a611020565b908b611223565b7f00000000000000000000000000000000000000000000000000000000000000001697610d328c519d8e9560a0602088015260c0870191611076565b90601f19958d878785030190870152611076565b906064356060840152608435608084015260a083015203908101895288610fe6565b823b15610dad578490610d908751988996879586946310ac2ddf60e21b8652309086016110ba565b03925af19081156105bb5750610da4575080f35b61038290610fbc565b8480fd5b634e487b7160e01b8a5260328b5260248afd5b8515610db15792610d6892610d468693610cf68d9e97610ce48e9f9d9e9a610deb90610fa8565b9a610cdc565b875162461bcd60e51b81526020818d0152600c60248201526b092dcecc2d8d2c840e0c2e8d60a31b6044820152606490fd5b506002861015610ca7565b8880fd5b8580fd5b5050346100eb57816003193601126100eb57517f00000000000000000000000000000000000000000000000000000000000000006001600160a01b03168152602090f35b8490346100eb57816003193601126100eb577f00000000000000000000000000000000000000000000000000000000000000006001600160a01b03168152602090f35b9181601f840112156101df5782359167ffffffffffffffff83116101df576020808501948460051b0101116101df57565b600435906001600160a01b03821682036101df57565b35906001600160a01b03821682036101df57565b359060ff821682036101df57565b359062ffffff821682036101df57565b15610f3d57565b60405162461bcd60e51b81526020600482015260096024820152682737ba1037bbb732b960b91b6044820152606490fd5b15610f7557565b60405162461bcd60e51b815260206004820152600b60248201526a16995c9bc8185b5bdd5b9d60aa1b6044820152606490fd5b356001600160a01b03811681036101df5790565b67ffffffffffffffff8111610fd057604052565b634e487b7160e01b600052604160045260246000fd5b90601f8019910116810190811067ffffffffffffffff821117610fd057604052565b67ffffffffffffffff8111610fd05760051b60200190565b929161102b82611008565b916110396040519384610fe6565b829481845260208094019160051b81019283116101df57905b82821061105f5750505050565b83809161106b84610f04565b815201910190611052565b91908082526020809201929160005b828110611093575050505090565b909192938280600192838060a01b036110ab89610f04565b16815201950193929101611085565b9493929060018060a01b0380911686526020921682860152604085015260a060608501528151918260a086015260005b83811061111157505050608060c082600082819588010152601f8019910116850101930152565b81810183015186820160c0015282016110ea565b8051156111325760200190565b634e487b7160e01b600052603260045260246000fd5b80518210156111325760209160051b010190565b1561116357565b60405162461bcd60e51b8152602060048201526013602482015272082e6e6cae85ee0c2e8d040dad2e6dac2e8c6d606b1b6044820152606490fd5b156111a557565b60405162461bcd60e51b8152602060048201526012602482015271446973636f6e6e656374656420706174687360701b6044820152606490fd5b156111e657565b60405162461bcd60e51b81526020600482015260156024820152740a4cae8eae4dc40c2e6e6cae840dad2e6dac2e8c6d605b1b6044820152606490fd5b9190926000146112bc576001600160a01b0390611250828061124487611125565b5116941680941461115c565b835160001994908581019081116112a65761126f849161128393611148565b51168361127b84611125565b51161461119e565b80519384019384116112a6576112a49361129c91611148565b5116146111df565b565b634e487b7160e01b600052601160045260246000fd5b916001600160a01b0390611250828061124487611125565b9080601f830112156101df578160206112ef93359101611020565b90565b60209081818403126101df5780519067ffffffffffffffff82116101df57019180601f840112156101df57825161132881611008565b936113366040519586610fe6565b818552838086019260051b8201019283116101df578301905b82821061135d575050505090565b8151815290830190830161134f565b9291909594939560a084019084526020918285015260a0604085015282518091528160c0850193019160005b8281106113b95750505050906080919460018060a01b031660608201520152565b83516001600160a01b031685529381019392810192600101611398565b919082018092116112a657565b604051636eb1769f60e11b81523060048201526001600160a01b03838116602483018190526020959184169490929091908681604481895afa90811561153157600091611502575b5090611436916113d6565b60405163095ea7b360e01b8782018181526001600160a01b039490941660248301526044808301939093529181529490918690600090611477606489610fe6565b87519082885af1903d60005190836114e3575b5050501561149a575b5050505050565b60405194850152602484015260006044840152604483526080830183811067ffffffffffffffff821117610fd0576114d99361037d916040528261153d565b3880808080611493565b919250906114f857503b15155b38808061148a565b60019150146114f0565b908782813d831161152a575b6115188183610fe6565b810103126105b857505161143661142b565b503d61150e565b6040513d6000823e3d90fd5b906000602091828151910182855af115611531576000513d61159057506001600160a01b0381163b155b61156e5750565b604051635274afe760e01b81526001600160a01b039091166004820152602490fd5b60011415611567565b90929493919460018060a01b039182811692600097848952600160205260409660ff888b205416156116d05784836115d3921694856113e3565b8651926060840184811067ffffffffffffffff8211176116bc578852600284528736602086013761160384611125565b528251600110156116a857168582015284516338ed173960e01b81529387938593909284928692849261163f924292309291906004870161136c565b03925af191821561169f57508391611685575b5080516000198101919082116116715761166d929350611148565b5190565b634e487b7160e01b84526011600452602484fd5b61169991503d8085833e610a958183610fe6565b38611652565b513d85823e3d90fd5b634e487b7160e01b89526032600452602489fd5b634e487b7160e01b8b52604160045260248bfd5b875162461bcd60e51b8152602060048201526012602482015271149bdd5d195c881b9bdd081d1c9d5cdd195960721b6044820152606490fd5b6001600160a01b0394939192908516917f00000000000000000000000000000000000000000000000000000000000000008616916117488284866113e3565b6040519561010087019287841067ffffffffffffffff851117610fd057889586946040528852836020890197168752604088019262ffffff80911684528460608a0130815260808b019242845260a08c0194855260c08c0195865260e08c019660009d8e9c8d8a526040519e8f9d8e9163414bf38960e01b835251169060040152511660248c0152511660448a0152511660648801525160848701525160a48601525160c4850152511660e4830152815a9361010492602095f191821561184457809261181457505090565b9091506020823d821161183c575b8161182f60209383610fe6565b810103126105b857505190565b3d9150611822565b604051903d90823e3d90fdfea2646970667358221220fcbb81af3f07c3b6fc7f28a9d76dece0d61b9d7601e5810357e46a9538f97b1464736f6c63430008140033",
  "linkReferences": {},
  "deployedLinkReferences": {}
}