{
  "_format": "hh-sol-artifact-1",
  "contractName": "CycleArbExecutor",
  "sourceName": "contracts/CycleArbExecutor.sol",
  "abi": [
    {
      "inputs": [
        {
          "internalType": "address[]",
          "name": "routers",
          "type": "address[]"
        }
      ],
      "stateMutability": "nonpayable",
      "type": "constructor"
    },
    {
      "inputs": [
        {
          "internalType": "address",
          "name": "owner",
          "type": "address"
        }
      ],
      "name": "OwnableInvalidOwner",
      "type": "error"
    },
    {
      "inputs": [
        {
          "internalType": "address",
          "name": "account",
          "type": "address"
        }
      ],
      "name": "OwnableUnauthorizedAccount",
      "type": "error"
    },
    {
      "inputs": [],
      "name": "ReentrancyGuardReentrantCall",
      "type": "error"
    },
    {
      "inputs": [
        {
          "internalType": "address",
          "name": "token",
          "type": "address"
        }
      ],
      "name": "SafeERC20FailedOperation",
      "type": "error"
    },
    {
      "anonymous": false,
      "inputs": [
        {
          "indexed": true,
          "internalType": "address",
          "name": "previousOwner",
          "type": "address"
        },
        {
          "indexed": true,
          "internalType": "address",
          "name": "newOwner",
          "type": "address"
        }
      ],
      "name": "OwnershipTransferred",
      "type": "event"
    },
    {
      "anonymous": false,
      "inputs": [
        {
          "indexed": true,
          "internalType": "address",
          "name": "tokenIn",
          "type": "address"
        },
        {
          "indexed": true,
          "internalType": "address",
          "name": "middleToken",
          "type": "address"
        },
        {
          "indexed": true,
          "internalType": "address",
          "name": "firstRouter",
          "type": "address"
        },
        {
          "indexed": false,
          "internalType": "address",
          "name": "secondRouter",
          "type": "address"
        },
        {
          "indexed": false,
          "internalType": "uint256",
          "name": "amountIn",
          "type": "uint256"
        },
        {
          "indexed": false,
          "internalType": "uint256",
          "name": "amountOut",
          "type": "uint256"
        }
      ],
      "name": "TwoLegSwapExecuted",
      "type": "event"
    },
    {
      "inputs": [
        {
          "internalType": "address",
          "name": "routerA",
          "type": "address"
        },
        {
          "internalType": "address",
          "name": "routerB",
          "type": "address"
        },
        {
          "internalType": "address",
          "name": "tokenIn",
          "type": "address"
        },
        {
          "internalType": "address",
          "name": "middleToken",
          "type": "address"
        },
        {
          "internalType": "uint24",
          "name": "feeA",
          "type": "uint24"
        },
        {
          "internalType": "uint24",
          "name": "feeB",
          "type": "uint24"
        },
        {
          "internalType": "uint256",
          "name": "amountIn",
          "type": "uint256"
        },
        {
          "internalType": "uint256",
          "name": "minOutFirst",
          "type": "uint256"
        },
        {
          "internalType": "uint256",
          "name": "minOutSecond",
          "type": "uint256"
        }
      ],
      "name": "executeTwoLegSwap",
      "outputs": [
        {
          "internalType": "uint256",
          "name": "finalAmount",
          "type": "uint256"
        }
      ],
      "stateMutability": "nonpayable",
      "type": "function"
    },
    {
      "inputs": [],
      "name": "owner",
      "outputs": [
        {
          "internalType": "address",
          "name": "",
          "type": "address"
        }
      ],
      "stateMutability": "view",
      "type": "function"
    },
    {
      "inputs": [],
      "name": "renounceOwnership",
      "outputs": [],
      "stateMutability": "nonpayable",
      "type": "function"
    },
    {
      "inputs": [
        {
          "internalType": "address",
          "name": "router",
          "type": "address"
        },
        {
          "internalType": "bool",
          "name": "allowed",
          "type": "bool"
        }
      ],
      "name": "setTrustedRouter",
      "outputs": [],
      "stateMutability": "nonpayable",
      "type": "function"
    },
    {
      "inputs": [
        {
          "internalType": "address",
          "name": "token",
          "type": "address"
        },
        {
          "internalType": "address",
          "name": "to",
          "type": "address"
        }
      ],
      "name": "sweep",
      "outputs": [],
      "stateMutability": "nonpayable",
      "type": "function"
    },
    {
      "inputs": [
        {
          "internalType": "address",
          "name": "newOwner",
          "type": "address"
        }
      ],
      "name": "transferOwnership",
      "outputs": [],
      "stateMutability": "nonpayable",
      "type": "function"
    },
    {
      "inputs": [
        {
          "internalType": "address",
          "name": "",
          "type": "address"
        }
      ],
      "name": "trustedRouter",
      "outputs": [
        {
          "internalType": "bool",
          "name": "",
          "type": "bool"
        }
      ],
      "stateMutability": "view",
      "type": "function"
    }
  ],
  "bytecode": "0x60406080815234620001c45762000df1803803806200001e81620001df565b92833981016020908183820312620001c45782516001600160401b0393848211620001c457019080601f83011215620001c4578151938411620001c95760059184831b90848062000071818501620001df565b809881520192820101928311620001c4578401905b828210620001a35750505033156200018b5760008054336001600160a01b031982168117835592949193926001600160a01b03929183167f8be0079c531659141344cd1fd0a4f28419497f9722a3daafe3b4186f6b6457e08680a360018080559484865b620000ff575b8751610beb9081620002068239f35b82518110156200018557838582841b8501015116801562000153578652600285528786208760ff198254161790558681018091116200013f5786620000ea565b634e487b7160e01b86526011600452602486fd5b885162461bcd60e51b815260048101879052600b60248201526a3d32b937903937baba32b960a91b6044820152606490fd5b620000f0565b8351631e4fbdf760e01b815260006004820152602490fd5b81516001600160a01b0381168103620001c457815290840190840162000086565b600080fd5b634e487b7160e01b600052604160045260246000fd5b6040519190601f01601f191682016001600160401b03811183821017620001c95760405256fe608080604052600436101561001357600080fd5b60003560e01c908163687e2c171461087557508063715018a61461081c5780637f39a74c146103115780638da5cb5b146102e8578063b8dc491b1461018f578063c64f5351146100ff5763f2fde38b1461006c57600080fd5b346100fa5760203660031901126100fa576100856108b0565b61008d6108dc565b6001600160a01b039081169081156100e157600054826bffffffffffffffffffffffff60a01b821617600055167f8be0079c531659141344cd1fd0a4f28419497f9722a3daafe3b4186f6b6457e0600080a3005b604051631e4fbdf760e01b815260006004820152602490fd5b600080fd5b346100fa5760403660031901126100fa576101186108b0565b602435908115158092036100fa5761012e6108dc565b6001600160a01b0316801561015c57600052600260205260406000209060ff80198354169116179055600080f35b60405162461bcd60e51b815260206004820152600b60248201526a3d32b937903937baba32b960a91b6044820152606490fd5b346100fa5760403660031901126100fa576101a86108b0565b6101b06108c6565b906101b96108dc565b6001600160a01b0390828216156102b2571690604051916370a0823160e01b83523060048401526020928381602481855afa9081156102a657600091610279575b5080156102475760405163a9059cbb60e01b948101949094526001600160a01b039290921660248401526044808401929092529082526102459190610240606483610957565b6109e0565b005b60405162461bcd60e51b815260048101859052600a6024820152696e6f2062616c616e636560b01b6044820152606490fd5b90508381813d831161029f575b6102908183610957565b810103126100fa5751846101fa565b503d610286565b6040513d6000823e3d90fd5b60405162461bcd60e51b815260206004820152600e60248201526d1e995c9bc81c9958da5c1a595b9d60921b6044820152606490fd5b346100fa5760003660031901126100fa576000546040516001600160a01b039091168152602090f35b346100fa576101203660031901126100fa5761032b6108b0565b6103336108c6565b6044356001600160a01b03811681036100fa57606435906001600160a01b03821682036100fa576084359262ffffff9081851685036100fa5760a4359082821682036100fa576103816108dc565b60026001541461080a57600260015560018060a01b038716600052600260205260ff60406000205416806107ed575b156107b5576001600160a01b0384161515806107a3575b15610771576001600160a01b038481169086161461073f5760c4351561070c576040516370a0823160e01b81523060048201526020816024816001600160a01b0389165afa9081156102a6576000916106da575b5060c4351161069e57610437876001600160a01b038616610a3c565b61044d60c435886001600160a01b038716610af5565b826040519661045b88610908565b60018060a01b038616885260018060a01b038716602089015216604087015230606087015242608087015260c43560a087015260e43560c0870152600060e087015260405190602082806104bd63414bf38960e01b9a8b835260048301610979565b038160006001600160a01b038d165af19182156102a657600092610662575b50610576966020939290916104fa816001600160a01b038a16610a3c565b61050e82826001600160a01b038b16610af5565b60018060a01b0316946040519361052485610908565b60018060a01b038916855260018060a01b0388168686015216604084015230606084015242608084015260a08301526101043560c0830152600060e08301526040519687928392835260048301610979565b03816000855af19384156102a65760009461062e575b5060c4358411156105f4576040805191825260c435602083810191909152908201859052946001600160a01b039081169381169216907fd2f2f6bc95428b74c337e895ea9c3900d5daa9b9c83e4dd50ac028ec5016136490606090a460018055604051908152f35b60405162461bcd60e51b8152602060048201526012602482015271756e70726f66697461626c65206379636c6560701b6044820152606490fd5b9093506020813d60201161065a575b8161064a60209383610957565b810103126100fa5751928561058c565b3d915061063d565b929150956020833d602011610696575b8161067f60209383610957565b810103126100fa57915191959091906105766104dc565b3d9150610672565b60405162461bcd60e51b8152602060048201526014602482015273696e73756666696369656e742062616c616e636560601b6044820152606490fd5b90506020813d602011610704575b816106f560209383610957565b810103126100fa57518861041b565b3d91506106e8565b60405162461bcd60e51b815260206004820152600b60248201526a1e995c9bc8185b5bdd5b9d60aa1b6044820152606490fd5b60405162461bcd60e51b815260206004820152600a60248201526939b0b6b2903a37b5b2b760b11b6044820152606490fd5b60405162461bcd60e51b815260206004820152600a6024820152693d32b937903a37b5b2b760b11b6044820152606490fd5b506001600160a01b03851615156103c7565b60405162461bcd60e51b815260206004820152601060248201526f3ab73a393ab9ba32b2103937baba32b960811b6044820152606490fd5b506001600160a01b0381166000908152604090205460ff166103b0565b604051633ee5aeb560e01b8152600490fd5b346100fa5760003660031901126100fa576108356108dc565b600080546001600160a01b0319811682556001600160a01b03167f8be0079c531659141344cd1fd0a4f28419497f9722a3daafe3b4186f6b6457e08280a3005b346100fa5760203660031901126100fa576020906001600160a01b036108996108b0565b166000526002825260ff6040600020541615158152f35b600435906001600160a01b03821682036100fa57565b602435906001600160a01b03821682036100fa57565b6000546001600160a01b031633036108f057565b60405163118cdaa760e01b8152336004820152602490fd5b610100810190811067ffffffffffffffff82111761092557604052565b634e487b7160e01b600052604160045260246000fd5b6080810190811067ffffffffffffffff82111761092557604052565b90601f8019910116810190811067ffffffffffffffff82111761092557604052565b91909160e06101008201938160018060a01b039182815116855282602082015116602086015262ffffff60408201511660408601528260608201511660608601526080810151608086015260a081015160a086015260c081015160c0860152015116910152565b906000602091828151910182855af1156102a6576000513d610a3357506001600160a01b0381163b155b610a115750565b604051635274afe760e01b81526001600160a01b039091166004820152602490fd5b60011415610a0a565b60405190602082019263095ea7b360e01b80855260018060a01b038092169182602486015260206000809781604489015260448852610a7a8861093b565b87519082885af1903d87519083610ad4575b50505015610a9c575b5050505050565b610aca94610240926040519260208401526024830152604482015260448152610ac48161093b565b826109e0565b3880808080610a95565b91925090610aeb575083163b15155b388080610a8c565b6001915014610ae3565b60405163095ea7b360e01b60208083018281526001600160a01b03861660248501526044808501979097529583529094919391600090610b36606487610957565b85519082865af16000513d82610b90575b505015610b55575b50505050565b610b87936102409160405191602083015260018060a01b031660248201526000604482015260448152610ac48161093b565b38808080610b4f565b909150610bad57506001600160a01b0382163b15155b3880610b47565b600114610ba656fea26469706673582212202912a81846b0bec833a072da582d870c3e990690e8bb52c985b52a1e6df56e3064736f6c63430008140033",
  "linkReferences": {},
  "deployedLinkReferences": {}
}